:020000040800F2
:10000000E09500206D060008A5030008A70300087E
:10001000AB030008AF030008B303000800000000B2
:100020000000000000000000000000003D02000889
:10003000B70300080000000081020008375F0008D5
:10004000870600088706000887060008870600085C
:10005000870600088706000887060008870600084C
:10006000870600088706000887060008870600083C
:10007000870600088706000887060008870600082C
:10008000870600088706000887060008870600081C
:10009000870600088706000887060008870600080C
:1000A00087060008870600088706000887060008FC
:1000B000D70300088706000887060008870600089F
:1000C00087060008870600088706000887060008DC
:1000D00087060008B9030008870600080D04000819
:1000E00087060008870600088706000887060008BC
:1000F00087060008870600088706000887060008AC
:10010000870600088706000887060008870600089B
:10011000870600088706000887060008870600088B
:10012000870600088706000887060008870600087B
:1001300000F002F800F073F80AA090E8000C824486
:100140008344AAF10107DA4501D100F068F8AFF263
:10015000090EBAE80F0013F0010F18BFFB1A43F0A5
:10016000010318476C8700008C8700000A444FF099
:10017000000C10F8013B13F0070408BF10F8014B06
:100180001D1108BF10F8015B641E05D010F8016B4B
:10019000641E01F8016BF9D113F0080F1EBF10F8AF
:1001A000014BAD1C0C1B09D16D1E58BF01F801CBD2
:1001B000FAD505E014F8016B01F8016B6D1EF9D555
:1001C0009142D6D37047000000230024002500266A
:1001D000103A28BF78C1FBD8520728BF30C148BFAA
:1001E0000B607047662908F02E80642906F0BC81F8
:1001F000752906F0B981632906F0F785732906F0A1
:10020000FC85002070471FB506F040FE040000206A
:10021000002107F091FBE0601FBD10B510BD06F096
:1002200039FF1146FFF7EFFF00F054F806F057FFD3
:1002300003B4FFF7F2FF03BC02F004FF224B19687E
:100240000868B0E8F00F80F30988BFF36F8F4FF0B4
:10025000000080F311884EF00D0E70470000000082
:1002600006480068006880F3088862B661B6BFF38C
:100270004F8FBFF36F8F00DF00BF00BF08ED00E0BE
:10028000EFF30980BFF36F8F0F4B1A6820E9F00F6F
:10029000106008B54FF0500080F31188BFF34F8F06
:1002A000BFF36F8F04F016F84FF0000080F3118851
:1002B000BDE8084019680868B0E8F00F80F30988C5
:1002C000BFF36F8F704700BF04060020EFF3058077
:1002D000704700004FF4407000F0E8F902F080FE33
:1002E0004FF4E13002F00FFF02F040FD02F042F95E
:1002F00002F063FF02F08AFF4FF47A7003F025F8F2
:1003000002F0AAF801F0FCFF02F0B8FB02F0C1FA1B
:1003100000221146012002F02CFB012200211220B4
:1003200002F027FB02220021232002F022FB0322FD
:100330000021342002F01DFB04220021452002F0A0
:1003400018FB05220021562002F013FB0022022197
:10035000082002F03FFB01220221302002F03AFB8C
:100360004FF4E13003F091F805F0C9FFFF210A488E
:1003700000F017FB0FE00948006807F09FFC0446F7
:1003800022460B4606A006F0A5F802F0D2FD4FF477
:10039000FA6002F046FEEEE700100140D8050020AA
:1003A00025660000704700BFFEE700BFFEE700BF04
:1003B000FEE700BFFEE7704710B540F225512C481C
:1003C00000F022FF30B12A4800F09EFE0446E0B261
:1003D00002F040FC10BD10B50121880701F051FE6C
:1003E00078B124480068052806D12348006802F047
:1003F00030FF00201F4908601E480068401C1D494E
:1004000008600121880701F04DFE10BD10B540F2D3
:1004100024411A4800F0F8FE40B30021184801F0CA
:1004200012FF164800881548001D00884FF480719F
:10043000134801F01DFF0121114801F004FF11488C
:10044000007898B10F4806F088F902280ED90020EC
:100450000C4981F8FF0000231A460B48006805F09C
:10046000B6F84FF48071074806F0E3F910BD0000BC
:100470000038014004000020D8050020004800405A
:1004800030000240860A0020740600200CB50020CF
:10049000019000906C48006840F480306A49086020
:1004A00000BF6948006800F4003000900198401CCB
:1004B0000190009818B90198B0F5A06FF1D1624889
:1004C000006800F4003010B10120009001E000202D
:1004D00000900098012843D15C48006840F010006B
:1004E0005A4908600846006820F003000860084682
:1004F000006840F002000860534840685249486074
:100500000846406848600846406840F4806048609B
:100510000846406820F47C1048600846406840F473
:10052000E81048600846006840F08070086000BF2E
:100530004548006800F000700028F9D04248406843
:1005400020F00300404948600846406840F002003F
:10055000486000BF3C48406800F00C000828F9D112
:100560000CBD10B5FFF792FF10BD10B536480068FE
:1005700040F00100344908600846406834490840AA
:100580003149486008460068324908402E490860F1
:100590000846006820F4802008600846406820F47F
:1005A000FE0048604FF41F008860FFF7DAFF4FF04D
:1005B00000602949086010BD10B50021002000220C
:1005C000214B5B6803F00C0121B1042906D00829F6
:1005D00028D107E0214B224C236027E01F4B204C01
:1005E000236023E0184B5B6803F47010164B5B68C4
:1005F00003F48032022303EB904022B9194B4343AA
:10060000174C23600DE0104B5B6803F4003323B1FB
:10061000144B4343124C236003E0104B4343104CF4
:10062000236003E00D4B0E4C236000BF00BF064B60
:100630005B68C3F303130C4CE15C094B1B68CB40B4
:10064000074C236010BD0000001002400020024053
:100650000000FFF8FFFFF6FE08ED00E000127A0050
:100660000800002000093D000C00002009488047D8
:1006700009480047FEE7FEE7FEE7FEE7FEE7FEE784
:10068000FEE7FEE7FEE7FEE704480549054A064B9C
:10069000704700006B05000831010008E08F002062
:1006A000E0950020E0910020E091002031490143D5
:1006B000314A1160704770B5002100230F22C478C1
:1006C00004B32D4C246804F4E064C4F5E064210A0A
:1006D000C1F10403CA40447804FA03F18478144059
:1006E00021430901254C0678A155047804F01F0523
:1006F0000124AC4005786D11AD0005F1E025C5F889
:10070000004109E0047804F01F050124AC401C4DB1
:100710000678761145F8264070BD1A4A0A40024311
:10072000154B1B1F1A60704739B1134A121D12680E
:100730000243114B1B1D1A6006E00F4A121D12687E
:1007400082430D4B1B1D1A607047042808D14FF0DF
:10075000E021096941F004014FF0E022116107E056
:100760004FF0E021096921F004014FF0E02211610E
:10077000704700000000FA050CED00E000E400E026
:1007800080E100E080FFFF1F10B50446CC488442A2
:1007900008D10121042000F02DFB0021042000F0ED
:1007A00029FB46E0C748844208D10121082000F017
:1007B00021FB0021082000F01DFB3AE0C2488442E2
:1007C00008D10121102000F015FB0021102000F0BD
:1007D00011FB2EE0BD48844208D10121202000F009
:1007E00009FB0021202000F005FB22E0B8488442EC
:1007F00008D10121402000F0FDFA0021402000F046
:10080000F9FA16E0B348844208D10121802000F0B3
:10081000F1FA0021802000F0EDFA0AE0AE488442AF
:1008200007D10121801500F0E5FA0021A01500F0A4
:10083000E1FA10BD10B50121084600F0DBFA0021F5
:10084000012000F0D7FA10BD2DE9F0410246002545
:100850000026002000230024002791F803C00CF09C
:100860000F0591F803C00CF0100CBCF1000F03D081
:1008700091F802C04CEA050591F800C0BCF1000FE8
:1008800031D0146800202BE04FF0010C0CFA00F37B
:10089000B1F800C00CEA03069E4220D183004FF05D
:1008A0000F0C0CFA03F7BC4305FA03FC4CEA0404F2
:1008B00091F803C0BCF1280F06D14FF0010C0CFADF
:1008C00000FCC2F814C00AE091F803C0BCF1480F64
:1008D00005D14FF0010C0CFA00FCC2F810C0401C0E
:1008E0000828D1D31460B1F800C0BCF1FF0F34DD8B
:1008F000546800202EE000F1080C4FF0010808FABF
:100900000CF3B1F800C00CEA03069E4221D183002B
:100910004FF00F0C0CFA03F7BC4305FA03FC4CEA4A
:10092000040491F803C0BCF1280F05D100F1080CB4
:1009300008FA0CF8C2F8148091F803C0BCF1480F13
:1009400007D100F1080C4FF0010808FA0CF8C2F8C2
:100950001080401C0828CED35460BDE8F0814FF6CB
:10096000FF710180022181700421C170704702462D
:10097000002093680B400BB1012000E0002070477D
:100980000146886880B2704702460020D3680B4059
:100990000BB1012000E0002070470146C86880B21A
:1009A000704701617047416170470AB1016100E021
:1009B00041617047C16070474FF480320A438261E1
:1009C0008161826182698269704702460020434BDF
:1009D00018684FF68073184040EA021008433F4BF6
:1009E000186070473E49C8617047F0B50A46002359
:1009F00000240021002500F00046B6F1004F02D18E
:100A0000364EF16901E0354E7168C0F3034583B29B
:100A100000F44016B6F5401F08D121F070612F4E4A
:100A2000766826F070662D4F7E6012E000F4801626
:100A3000B6F5801F06D1032606FA05F4A14341F05E
:100A4000706106E0460D360103FA06F6B14341F047
:100A5000706122B1460D360103FA06F6314300F00B
:100A60000046B6F1004F02D11C4EF16101E01B4E71
:100A70007160F0BD30B500228B071C0F0F2303FA05
:100A800004F2164B08338C1053F824309343134C64
:100A900008348D1044F8253023468C1053F8243048
:100AA0008C07240F00FA04F423430C4C08348D10F7
:100AB00044F8253030BD0A49DC3108607047000039
:100AC00000080140000C01400010014000140140EA
:100AD00000180140001C01400020014000000140BE
:100AE00000002042DF48006840F00100DD49086056
:100AF00008464068DC490840DA4948600846006812
:100B0000DA490840D74908600846006820F4802088
:100B100008600846406820F4FE0048604FF41F005B
:100B200088607047CF49096821F48031CD4A11604F
:100B30001146096821F480211160B0F5803F03D08F
:100B4000B0F5802F0ED106E0C649096841F4803126
:100B5000C44A116007E0C349096841F4A021C14AB1
:100B6000116000E000BF00BF704710B501460022D1
:100B7000002300204A11012A02D1BA4C236806E062
:100B8000022A02D1B74C236A01E0B64C636A01F035
:100B90001F02012494401C400CB1012000E0002001
:100BA00010BD38B5002000900024002500BF312082
:100BB000FFF7DBFF05460098401C00900098B0F559
:100BC000A06F01D0002DF2D03120FFF7CEFF08B189
:100BD000012400E00024204638BD01460020A14A3F
:100BE000106820F0F80040EAC10010607047A0498A
:100BF00008607047024600209A4B586820F47C1029
:100C000042EA01031843974B5860704798490866B9
:100C1000704701460020934A506820F003000843C3
:100C2000506070478F48406800F00C0070470146E4
:100C300000208C4A506820F0F00008435060704754
:100C400001460020874A506820F4E0600843506065
:100C5000704701460020834A506820F4605040EA03
:100C6000C1005060704729B17E4A527A02437D4BE1
:100C70005A7204E07B4A527A82437A4B5A72704726
:100C80007B49D8310860704701460020754A50689A
:100C900020F440400843506070470021714A2032E0
:100CA0001170704A82F82010012802D004280AD15D
:100CB00004E001216B4A2032117005E00521694AE8
:100CC0002032117000E000BF00BF70476949086022
:100CD00070476449096A0143624A11627047654975
:100CE00044390860704730B50021002200240023F9
:100CF0005C4D6D6805F00C0121B1042905D008296F
:100D000023D105E05C4D056022E05B4D05601FE0EE
:100D1000544D6D6805F47012524D6D6805F48034C1
:100D2000022505EB92421CB9544D554305600BE07A
:100D30004C4D6D6805F400351DB1504D55430560AF
:100D400002E04D4D5543056002E04B4D056000BF8C
:100D500000BF444D6D6805F0F0010909484D6B5C1A
:100D60000568DD4045603F4D6D6805F4E061090AA6
:100D7000434D6B5C4568DD4085603A4D6D6805F418
:100D80006051C90A3E4D6B5C4568DD40C560354D1C
:100D90006D6805F44041890B3A4D6B5CC568B5FB45
:100DA000F3F5056130BD29B12E4A526902432D4B3E
:100DB0005A6104E02B4A526982432A4B5A617047B8
:100DC00029B1284A92690243264B9A6104E0254AD8
:100DD00092698243234B9A61704729B1214AD269B3
:100DE0000243204BDA6104E01E4AD26982431D4B64
:100DF000DA61704729B11B4AD2680243194BDA60A5
:100E000004E0184AD2688243164BDA60704729B171
:100E1000144A12690243134B1A6104E0114A126921
:100E20008243104B1A61704712494039086070477D
:100E30000F49C86470470B49C87170470948406A38
:100E400040F0807007494862704701460020054A1B
:100E500092680A400AB1012000E000207047014971
:100E600088727047001002400000FFF8FFFFF6FE96
:100E7000000042428004424200127A0000093D0014
:100E80001C0000202C00002010B50446FB488442C2
:100E900009D101218803FFF7ADFF00214FF4804005
:100EA000FFF7A8FF32E0F648844209D10121480447
:100EB000FFF7ADFF00214FF40030FFF7A8FF25E05A
:100EC000F048844209D101218804FFF7A0FF0021E6
:100ED0004FF48020FFF79BFF18E0EB48844209D1D4
:100EE0000121C804FFF793FF00214FF40020FFF712
:100EF0008EFF0BE0E548844208D101210805FFF789
:100F000086FF00214FF48010FFF781FF10BD2DE90F
:100F1000F04786B005460E460024A24600BFA14613
:100F20000027B08900B100BF2F462C8A4CF6FF7015
:100F30000440F08804432C82AC894EF6F310044040
:100F4000B08831890843718908430443AC81AC8A75
:100F50004FF6FF400440B0890443AC8201A8FFF77C
:100F6000C2FEC648874202D1DDF810A001E0DDF8DC
:100F70000CA0A88900F4004040B10AEBCA0000EBC5
:100F80000A1031684900B0FBF1F807E00AEBCA002B
:100F900000EB0A1031688900B0FBF1F86420B8FB5F
:100FA000F0F004012009642101FB1089A88900F4F4
:100FB000004040B1322000EBC900B0FBF1F000F07E
:100FC0000700044308E0322000EB09106421B0FB65
:100FD000F1F000F00F0004432C8106B0BDE8F0876B
:100FE0004FF41651016000218180C18001810C21E4
:100FF000418100218181704710B502460020108A8E
:101000004FF2FF0318400B884C8823438C882343FE
:10101000CC8823431843108210BD002101804180F9
:101020008180C180704721B1828942F4005282815F
:1010300004E082894DF6FF731A4082817047F0B553
:101040000346002400260025002040F66A17B94216
:1010500000D100BF1846C1F3421401F01F0601275A
:1010600007FA06F5012C01D10C3004E0022C01D165
:10107000103000E014301AB107682F43076002E017
:101080000768AF430760F0BD1AB1838A0B438382C0
:1010900002E0838A8B4383827047028A4FF6F073A3
:1010A0001A400282028A0A430282704782894FF202
:1010B000FF731A40828182890A438281704721B17D
:1010C000828942F00202828104E082894FF6FD7338
:1010D0001A4082817047028A4FF6DF731A400282FB
:1010E000028A0A430282704721B1028A42F4804296
:1010F000028204E0028A4BF6FF731A4002827047B4
:10110000C1F308028280704701468888C0F3080056
:101110007047818941F0010181817047028BD2B211
:101120000283028B42EA012202837047028B02F49F
:101130007F420283028B0A430283704721B1828A75
:1011400042F02002828204E0828A4FF6DF731A4066
:101150008282704721B1828A42F01002828204E0CA
:10116000828A4FF6EF731A408282704721B1828AD9
:1011700042F00802828204E0828A4FF6F7731A4036
:101180008282704721B1828942F40042828103E069
:101190008289C2F30E028281704721B1828A42F4B1
:1011A0000062828204E0828A4FF2FF731A408282D8
:1011B0007047828A4FF6FB731A408282828A0A4302
:1011C0008282704721B1828A42F00202828204E068
:1011D000828A4FF6FD731A408282704702460020D1
:1011E000B1F5007F00D100BF13880B400BB1012087
:1011F00000E00020704701F40072B2F5007F00D1DA
:1012000000BFCA430280704770B502460024002325
:101210000025002040F66A16B14200D100BFC1F39C
:10122000421501F01F03012606FA03F3012D02D136
:101230009689334006E0022D02D1168A334001E040
:10124000968A33400C12012606FA04F416883440BC
:1012500013B10CB1012000E0002070BD10B50022D8
:10126000002340F66A14A14200D100BF0A120124F3
:101270009440A3B2DC43048010BD0000003801405C
:101280000044004000480040004C00400050004036
:1012900010B50446FE48844208D10121C014FFF76E
:1012A000A9FD0021E014FFF7A5FDC4E0B4F1804FD3
:1012B00008D101210846FFF7AAFD00210120FFF710
:1012C000A6FDB8E0F348844208D101210220FFF7CF
:1012D0009EFD00210220FFF79AFDACE0EE4884421B
:1012E00008D101210420FFF792FD00210420FFF71F
:1012F0008EFDA0E0E948844208D101210820FFF7D3
:1013000086FD00210820FFF782FD94E0E448844236
:1013100008D101211020FFF77AFD00211020FFF7EE
:1013200076FD88E0DF48844208D101212020FFF7C4
:101330006EFD00212020FFF76AFD7CE0DA48844240
:1013400008D101214014FFF755FD00216014FFF77B
:1013500051FD70E0D548844209D10121C804FFF74E
:1013600049FD00214FF40020FFF744FD63E0D04821
:10137000844209D101210805FFF73CFD00214FF40B
:101380008010FFF737FD56E0CA48844209D1012199
:101390004805FFF72FFD00214FF40010FFF72AFD4D
:1013A00049E0C548844208D101214020FFF72FFDC4
:1013B00000214020FFF72BFD3DE0C048844208D1CA
:1013C00001218020FFF723FD00218020FFF71FFD72
:1013D00031E0BB48844208D101218015FFF717FD99
:1013E0000021A015FFF713FD25E0B648844209D17E
:1013F00001210804FFF7FEFC00214FF48030FFF7C5
:10140000F9FC18E0B048844209D101214804FFF7F3
:10141000F1FC00214FF40030FFF7ECFC0BE0AB488F
:10142000844208D101218804FFF7E4FC00214FF435
:101430008020FFF7DFFC10BD00220288944B984209
:101440000ED0994B98420BD0B0F1804F08D0914B01
:10145000984205D0904B984202D0904B984204D1CC
:101460004FF68F731A404B881A438D4B984207D022
:101470008C4B984204D04FF6FF431A40CB881A4356
:1014800002808B8883850B880385814B98420BD023
:10149000854B984208D08B4B984205D08A4B984296
:1014A00002D08A4B984201D10B7A038601238382B2
:1014B000704770B5002400220023058C4FF6FE769D
:1014C00035400584028C8388048B4FF68F752C4041
:1014D000B51E2C400D882C43751E2A400D892A43C9
:1014E0004D882A436A4DA8420BD06F4DA84208D0C0
:1014F000744DA84205D0744DA84202D0734DA84245
:1015000013D14FF6F7752A404D892A434FF6FB75E4
:101510002A408D882A434FF6FF652B404FF6FF5532
:101520002B408D892B43CD892B4383800483CD8829
:101530008586028470BD70B5002400220023058CCE
:101540004FF6EF7635400584028C8388048B48F68D
:10155000FF752C404FF6FF452C400D884FF6FF7667
:1015600006EA05252C434FF6DF752A400D8906EA69
:1015700005152A434D8806EA05152A43444DA8421D
:1015800002D0494DA8421DD14FF67F752A404D89A2
:101590004FF6FF7606EA05152A434FF6BF752A4037
:1015A0008D8806EA05152A434FF6FF352B404FF28A
:1015B000FF752B408D8906EA85052B43CD8906EA08
:1015C00085052B4383800483CD880587028470BD05
:1015D00070B5002400220023058C4FF6FF663540CD
:1015E0000584028C8388848B4FF68F752C404FF6D0
:1015F000FC752C400D882C434FF6FF552A400D8971
:101600004FF6FF7606EA05252A434D8806EA0525AA
:101610002A431F4DA84202D0234DA8421DD14FF2AC
:10162000FF752A404D894FF6FF7606EA05252A43C5
:101630004FF6FF352A408D8806EA05252A434EF6E7
:10164000FF752B404DF6FF752B408D8906EA051579
:101650002B43CD8906EA05152B4383808483CD88EF
:101660008587028470BD70B5002200230024058C9C
:101670004EF6FF7635400584038C8488828B48F6CD
:10168000FF752A404FF6FF452A400D8820E00000F4
:10169000002C01400004004000080040000C004005
:1016A000001000400014004000340140004C014094
:1016B000005001400054014000180040001C004050
:1016C000002000400040014000440140004801402B
:1016D0004FF6FF7606EA05252A434DF6FF752B40A7
:1016E0000D8906EA05352B434D8806EA05352B435F
:1016F000FA4DA84202D0FA4DA84208D14BF6FF7528
:101700002C408D894FF6FF7606EA85152C438480A0
:101710008283CD88A0F84050038470BD828B4FF245
:10172000FF331A408283828B4FF6FF7303EA012353
:101730001A4382837047F0B50C46154600220021FB
:101740000026078C4EF6FF7C07EA0C070784828B85
:10175000018C4FF6FF7707EA043640F6FF473A4020
:101760004FF6FF7707EA05273A434FF6FF7707EA78
:1017700003373A43D94FB8420ED0D94FB8420BD0B5
:10178000B0F1804F08D0D74FB84205D0D64FB842FD
:1017900002D0D64FB84206D14DF6FF77394046F415
:1017A0008057394305E047F6FF57394044F48057E6
:1017B000394382830184F0BD828B4FF6F3731A4064
:1017C0008283828B0A4382837047F0B50C461546AC
:1017D000002200210026078C4FF6FF6C07EA0C0759
:1017E0000784828B018C4FF6FF7707EA04264FF6B9
:1017F0000C773A404FF6FF7707EA03172F433A4337
:10180000B64FB8420ED0B64FB8420BD0B0F1804FB1
:1018100008D0B44FB84205D0B34FB84202D0B34F4E
:10182000B84206D14FF6FF57394046F48077394326
:1018300005E04FF2FF57394044F480773943828303
:101840000184F0BD028B4FF2FF331A400283028BFA
:101850004FF6FF7303EA01231A4302837047F0B582
:101860000C461546002200210026078C4FF6EF7C1F
:1018700007EA0C070784028B018C4FF6FF7707EA13
:10188000041640F6FF473A404FF6FF7707EA033762
:101890003A434FF6FF7707EA05273A438F4FB8429E
:1018A0000ED08F4FB8420BD0B0F1804F08D08D4F83
:1018B000B84205D08C4FB84202D08C4FB84206D106
:1018C0004FF6DF77394046F01007394305E04FF611
:1018D0005F77394044F01007394302830184F0BD3B
:1018E000028B4FF6F3731A400283028B0A43028382
:1018F0007047F0B50C46154600220021068C4FF6C5
:10190000FE773E400684028B018C4FF60C76324007
:101910007E1C06EA03162E433243704EB0420ED0B0
:101920006F4EB0420BD0B0F1804F08D06D4EB04238
:1019300005D06D4EB04202D06C4EB04206D14FF68B
:10194000FD76314044F00106314305E04FF6F5766F
:10195000314044F00106314302830184F0BD70B58B
:1019600005460C465D4885420ED05D4885420BD049
:10197000B5F1804F08D05B48854205D05A48854272
:1019800002D05A48854200D100E000BF208850B9FB
:101990002389A28861882846FFF7ABFFE1882846A3
:1019A000FFF79EFF25E0208804280AD12389A2881A
:1019B00061882846FFF753FFE1882846FFF742FF7A
:1019C00017E0208808280AD12389A2886188284640
:1019D000FFF7FBFEE1882846FFF7EEFE09E02389CA
:1019E000A28861882846FFF7A6FEE1882846FFF70F
:1019F00095FE70BD2DE9F04105460C4600260127F5
:101A0000608808B9022600E00026A088012801D1DC
:101A1000022700E001272088A0B92389A2886188D5
:101A20002846FFF766FFE1882846FFF759FF23891C
:101A30003A4631462846FFF712FFE1882846FFF76D
:101A400001FF13E02389A28861882846FFF707FF7A
:101A5000E1882846FFF7F6FE23893A4631462846B4
:101A6000FFF747FFE1882846FFF73AFFBDE8F0811E
:101A70000A884B881A438B881A43CB881A430B89F0
:101A80001A434B891A438B891A43A0F844207047A4
:101A90004FF6FF71818000210180C1804180017279
:101AA00070470021018041808180C1800181418196
:101AB0008181C181704700210180418001218180A5
:101AC0000021C18001817047002101804180818017
:101AD000C18001814181818170470000002C01405B
:101AE000003401400004004000080040000C0040A9
:101AF00021B1028842F00102028004E002884FF620
:101B0000FE731A400280704731B1B0F8442042F4AD
:101B10000042A0F8442005E0B0F84420C2F30E02D1
:101B2000A0F8442070471AB183890B43838102E0F7
:101B300083898B43838170478182704741EA020326
:101B4000A0F8483070471AB183890B43838102E0C3
:101B500083898B438381704701894FF6F872114066
:101B6000018170470A46002101894FF68F731940A1
:101B700011430181704730B504460D462946204681
:101B8000FFF7F0FF208940F00700208130BD2DE9EC
:101B9000F04104460D4616461F46602D06D13B46D1
:101BA000012231462046FFF75AFE05E03B4601225E
:101BB00031462046FFF79DFE29462046FFF7D2FF1B
:101BC000208940F007002081BDE8F08130B50C4647
:101BD00000210189C9B24FF6FF7505EA03251543B7
:101BE00025432943018130BD2DE9F04105460E46CC
:101BF00017469846002443463A4631462846FFF7A2
:101C0000E5FF2C894FF6F870044044F007044FF6C6
:101C10008F70044044F070042C81BDE8F081F0B571
:101C200004460D4616461F463B4632462946204688
:101C3000FFF7CCFF208940F480402081F0BD018572
:101C4000828270470A46002101884FF68F7319403F
:101C5000114301807047F0B50C4615461E46002121
:101C6000002200230189028B038C4FF6F87739405C
:101C700021434FF6FC473A4040F201173A434FF6F2
:101C8000DD773B404FF6FF7707EA06172F433B43CC
:101C9000018102830384F0BD0A460021018B4FF6C7
:101CA0008F7319401143018370470A460021018B4D
:101CB00048F6FF7319404FF6FF7303EA02231943F6
:101CC000018370470A460021818B4FF68F731940BC
:101CD0001143818370470A460021818B48F6FF73C8
:101CE00019404FF6FF7303EA0223194381837047BB
:101CF00021B1028842F08002028004E002884FF69F
:101D00007F731A400280704721B1828842F004023A
:101D1000828004E082884FF6FB731A40828070470D
:101D200021B1828842F00802828004E082884FF666
:101D3000F7731A408280704721B1828842F0010215
:101D4000828004E082884FF6FE731A4082807047DA
:101D50000A460021018B4FF6F773194011430183A6
:101D600070470A460021018B4FF2FF7319404FF66E
:101D7000FF7303EA02231943018370470A460021D7
:101D8000818B4FF6F77319401143818370470A46E0
:101D90000021818B4FF2FF7319404FF6FF7303EA66
:101DA00002231943818370470A460021018B4FF6B5
:101DB000FB7319401143018370470A460021018BD0
:101DC0004FF6FF3319404FF6FF7303EA022319431E
:101DD000018370470A460021818B4FF6FB7319403F
:101DE0001143818370470A460021818B4FF6FF33F0
:101DF00019404FF6FF7303EA0223194381837047AA
:101E00000A460021018B4FF67F731940114301836D
:101E100070470A460021018BC1F30E014FF6FF7394
:101E200003EA02231943018370470A460021818B8C
:101E30004FF67F7319401143818370470A46002192
:101E4000818BC1F30E014FF6FF7303EA022319439E
:101E5000818370470A460021018C4FF6FD731940BB
:101E60001143018470470A460021018C4FF6F77335
:101E700019401143018470470A460021018C4FF636
:101E8000DF7319404FF6FF7303EA0213194301840D
:101E900070470A460021018C4FF67F7319404FF6B8
:101EA000FF7303EA02131943018470470A460021B5
:101EB000018C4FF6FF5319404FF6FF7303EA0223DC
:101EC0001943018470470A460021018C4FF2FF73C9
:101ED00019404FF6FF7303EA022319430184704748
:101EE0000A460021018C4DF6FF7319404FF6FF732F
:101EF00003EA023319430184704730B500230124FB
:101F00008C40A3B2048C9C430484048C02FA01F537
:101F1000ADB22C43048430BD30B5002304248C4082
:101F2000A3B2048C9C430484048C02FA01F5ADB284
:101F30002C43048430BD70B50346002000241846AD
:101F4000183001258D40ACB21D8CA5431D8409B10C
:101F5000082909D100EB6100056825F070050560CE
:101F60000568154305600EE00D1FC5F34E052844B6
:101F7000056825F4E045056005684FF6FF7606EA3A
:101F800002263543056070BD21B1028842F002028D
:101F9000028004E002884FF6FD731A400280704709
:101FA00021B1028842F00402028004E002884FF668
:101FB000FB731A400280704721B1828842F0800290
:101FC000828004E082884FF67F731A4082807047D7
:101FD00002884FF6F7731A40028002880A43028093
:101FE000704782884FF68F731A40828082880A4336
:101FF0008280704702894FF6F8731A400281028985
:102000000A430281704702894FF67F731A400281AA
:1020100002890A4302817047818470478185704735
:10202000818670470187704781877047A0F840100C
:10203000704702884FF6FF431A40028002880A4325
:10204000028070470146888E70470146088F7047AE
:102050000146888F70470146B1F84000704701463D
:10206000888C70470146088D704702460020138A0D
:102070000B400BB1012000E000207047CA430282F0
:10208000704730B50246002000230024158A05EA77
:102090000103958905EA010413B10CB1012000E0A8
:1020A000002030BDCA4302827047000001684FF62D
:1020B000FE72114001600021016041608160C160D9
:1020C0008D49884208D18C490839496841F00F018F
:1020D000894A083A51608AE087491431884208D118
:1020E00085490839496841F0F001834A083A51604E
:1020F0007DE081492831884208D17F490839496803
:1021000041F470617C4A083A516070E07A493C3190
:10211000884208D178490839496841F47041764AC3
:10212000083A516063E074495031884208D17249DD
:102130000839496841F470216F4A083A516056E005
:102140006D496431884208D16B490839496841F4C6
:102150007001694A083A516049E06749783188421C
:1021600008D165490839496841F07061624A083A06
:1021700051603CE06149884206D1011F096841F085
:102180000F01021F116032E05C491431884208D10E
:102190005A49091F096841F0F001584A121F11609D
:1021A00025E056492831884208D15449091F096859
:1021B00041F47061514A121F116018E04F493C31DF
:1021C000884208D14D49091F096841F470414B4AC2
:1021D000121F11600BE049495031884207D147492D
:1021E000091F096841F47021444A121F11607047A9
:1021F00010B50022026847F6F0739A430C6A8B68A8
:1022000023430C6923434C6923438C692343CC69E2
:1022100023434C6A23438C6A23431A430260CB68EE
:1022200043600B6883604B68C36010BD0021016090
:1022300041608160C160016141618161C161016290
:1022400041628162704721B1026842F0010202607E
:1022500004E002684FF6FE731A40026070471AB13C
:1022600003680B43036002E003688B43036070471D
:10227000416070470146486880B2704701460020BF
:10228000002201F080531BB11C4B083B1A6802E08E
:10229000194B083B1A6802EA01030BB1012000E068
:1022A0000020704700F0805119B11449091F0860DF
:1022B00002E01149083948607047014600200022B9
:1022C00001F080531BB10D4B083B1A6802E00A4B2A
:1022D000083B1A6802EA01030BB1012000E000206C
:1022E000704700F0805119B10449091F086002E0ED
:1022F000014908394860704708000240080402405C
:1023000008B5FEF732F901211020FEF759FD4FF60E
:10231000FF70ADF8000001208DF8020010208DF84C
:10232000030069462B48FEF78FFA08BD70B50546D5
:10233000FF212848FEF735FB002406E0264830F848
:1023400014102448FEF72FFB641CAC42F6DB70BD72
:102350003FE0FE211F48FEF72DFB4FF47A7000F09E
:1023600058F8FD211B48FEF725FB4FF47A7000F06A
:1023700050F8FB211748FEF71DFB4FF47A7000F070
:1023800048F8F7211348FEF715FB4FF47A7000F078
:1023900040F8EF210F48FEF70DFB4FF47A7000F084
:1023A00038F8DF210B48FEF705FB4FF47A7000F098
:1023B00030F8BF210748FEF7FDFA4FF47A7000F0BD
:1023C00028F87F210348FEF7F5FA4FF47A7000F001
:1023D00020F8BEE70010014030000020014601EB6C
:1023E000C1024FF0E0235A6101221A6100229A6172
:1023F00000BF4FF0E022106900F001021AB100F4B2
:102400008032002AF5D000224FF0E0231A619A6151
:102410007047014642F228324A434FF0E0235A61A6
:1024200001221A6100229A6100BF4FF0E022106978
:1024300000F001021AB100F48032002AF5D0002227
:102440004FF0E0231A619A617047000000BF011E3F
:10245000A0F10100FBD1704708B501211020FEF763
:10246000AFFC4FF48070ADF8000010208DF8030031
:1024700003208DF8020069463C48FEF7E5F908BDE7
:1024800008B501214020FEF79BFC0F20ADF80000AD
:1024900003208DF8020048208DF803006946344877
:1024A000FEF7D2F908BD10B541F2883410E04FF4C0
:1024B00080712E48FEF775FA2046FFF7C7FF4FF4EC
:1024C00080712A48FEF76FFA2046641EFFF7BEFFB0
:1024D000201EA4F10104EAD110BD10B54FF47A74A6
:1024E00010E04FF480712148FEF75BFA2046FFF7B9
:1024F000ADFF4FF480711D48FEF755FA2046641E6B
:10250000FFF7A4FF201EA4F10104EAD110BD2BE0C7
:1025100001211748FEF72BFA80B90A20FFF779FF4F
:1025200001211348FEF723FA08B9FFF7BCFF00BFEB
:1025300001210F48FEF71BFA0028F9D002210C48B0
:10254000FEF715FA80B90A20FFF763FF0221084859
:10255000FEF70DFA08B9FFF7C0FF00BF02210448DB
:10256000FEF705FA0028F9D0D2E70000001001407C
:102570000018014008B501214FF4A070FEF720FCBF
:102580004FF47F40ADF8000001208DF802001020CC
:102590008DF8030069468748FEF756F94FF6FF703D
:1025A000ADF8000001208DF8020010208DF8030026
:1025B00069468148FEF748F908BD5FE047F6FF71BC
:1025C0007C48FEF7F7F9C0217B48FEF7F3F90024B9
:1025D00001E0601C84B2B4F5C87FFADB4BF6FF71F2
:1025E0007448FEF7E7F9F9217348FEF7E3F9002490
:1025F00001E0601C84B2B4F5C87FFADB4DF6FF71D0
:102600006C48FEF7D7F9A4216B48FEF7D3F90024F4
:1026100001E0601C84B2B4F5C87FFADB4EF6FF71AE
:102620006448FEF7C7F9B0216348FEF7C3F90024F8
:1026300001E0601C84B2B4F5C87FFADB4FF2FF7191
:102640005C48FEF7B7F999215B48FEF7B3F900241F
:1026500001E0601C84B2B4F5C87FFADB4FF6FF31AD
:102660005448FEF7A7F992215348FEF7A3F9002436
:1026700001E0601C84B2B4F5C87FFADB9EE797E006
:102680004E4801884B48FEF795F94D4800780A21DD
:1026900090FBF1F04B490D5C29464748FEF78AF95B
:1026A000002401E0601C84B2B4F5C87FFADB434823
:1026B00041884048FEF77EF9414800780A2190FBA6
:1026C000F1F201FB12003F49085C4FF67F7100EA0E
:1026D000010529463848FEF76DF9002401E0601C29
:1026E00084B2B4F5C87FFADB344881883148FEF7FC
:1026F00061F9354800780A2190FBF1F031490D5C11
:1027000029462D48FEF756F9002401E0601C84B2EA
:10271000B4F5C87FFADB2948C1882648FEF74AF994
:10272000294800780A2190FBF1F201FB12002549AB
:10273000085C4FF67F7100EA010529461E48FEF746
:1027400039F9002401E0601C84B2B4F5C87FFADBDB
:102750001A4801891748FEF72DF91C4800780A210C
:1027600090FBF1F017490D5C29461348FEF722F95A
:10277000002401E0601C84B2B4F5C87FFADB0F4886
:1027800041890C48FEF716F9104800780A2190FBA1
:10279000F1F201FB12000B490D5C29460648FEF7D9
:1027A00009F9002401E0601C84B2B4F5C87FFADBAB
:1027B00066E7000000180140002001404C000020A6
:1027C0000000002040000020010000200200002046
:1027D00070B504460E4626B12021FA48FEF7E1F80E
:1027E00003E02021F748FEF7DEF8002517E040213E
:1027F000F448FEF7D8F804F0800020B18021F148B9
:10280000FEF7CFF803E08021EE48FEF7CCF8402138
:10281000EC48FEF7C6F86006040E681CC5B2082D29
:10282000E5DB2021E748FEF7BCF870BD70B5044633
:102830000D4605F1B001C8B20021FFF7C9FF102114
:1028400041EA14100021FFF7C3FF04F00F0141F02B
:1028500001000021FFF7BCFF70BD10B500218D20E5
:10286000FFF7B6FF00211420FFF7B2FF0021AF20D1
:10287000FFF7AEFF10BD10B500218D20FFF7A8FFB8
:1028800000211020FFF7A4FF0021AE20FFF7A0FFDA
:1028900010BD70B5002419E004F1B001C8B20021E8
:1028A000FFF796FF00210846FFF792FF0021102056
:1028B000FFF78EFF002505E001210020FFF788FFCC
:1028C000681CC5B2802DF7DB601CC4B2082CE3DBAA
:1028D00070BD2DE9F04107460E46904600250024C4
:1028E000A8F12000C5B27F2F02DD0027B01CC6B2C0
:1028F00031463846FFF79AFF002408E004EB051143
:10290000B14A505C0121FFF763FF601CC4B2082C80
:10291000F4DB701CC1B23846FFF788FF002409E0E1
:1029200004EB05110831A84A505C0121FFF750FF64
:10293000601CC4B2082CF3DBBDE8F0812DE9F04146
:1029400004460F46154600260EE0AA5D394620468D
:10295000FFF7BFFF04F10800C4B2782C02DD0024A9
:10296000B81CC7B2701CC6B2A85D0028EDD1BDE886
:10297000F0812DE9F04180460E461546002731468C
:102980004046FFF753FF00240AE0904A02EB85110E
:10299000085D0121FFF71CFF781CC7B2601CC4B2A0
:1029A000102CF2DB701CC1B24046FFF73FFF002441
:1029B0000CE06900491C854A02EB4111085D0121C8
:1029C000FFF706FF781CC7B2601CC4B2102CF0DB06
:1029D000BDE8F0812DE9F04107460E461546314627
:1029E0003846FFF723FF002408E0794A02EB45212F
:1029F000085D0121FFF7ECFE601CC4B2202CF4DB63
:102A0000701CC1B23846FFF711FF00240AE0A9008C
:102A1000491C6F4A02EBC111085D0121FFF7D8FE86
:102A2000601CC4B2202CF2DBB01CC1B23846FFF7E8
:102A3000FDFE00240AE0A900891C654A02EBC111D1
:102A4000085D0121FFF7C4FE601CC4B2202CF2DB3C
:102A5000F01CC1B23846FFF7E9FE00240AE0A900E5
:102A6000C91C5B4A02EBC111085D0121FFF7B0FEF2
:102A7000601CC4B2202CF2DBBDE8F08108B5012156
:102A80002020FEF79DF9F020ADF8000010208DF811
:102A9000030003208DF8020069464A48FDF7D4FE82
:102AA0004FF4FC714748FDF77CFF10214548FDF7C6
:102AB00078FF6420FFF7ADFC10214248FDF773FF5B
:102AC0006420FFF7A6FC10213E48FDF76AFF0021B5
:102AD000AE20FFF77DFE00210846FFF779FE0021BA
:102AE0001020FFF775FE00214020FFF771FE002146
:102AF0008120FFF76DFE0021CF20FFF769FE002146
:102B0000A120FFF765FE0021C820FFF761FE00212C
:102B1000A620FFF75DFE0021A820FFF759FE002147
:102B20003F20FFF755FE0021D320FFF751FE002183
:102B30000846FFF74DFE0021D520FFF749FE002192
:102B40008020FFF745FE0021D920FFF741FE00213C
:102B5000F120FFF73DFE0021DA20FFF739FE0021CA
:102B60001220FFF735FE0021DB20FFF731FE0021A8
:102B70004020FFF72DFE00212020FFF729FE002135
:102B80000220FFF725FE00218D20FFF721FE002106
:102B90001420FFF71DFE0021A420FFF719FE0021DD
:102BA000A620FFF715FE0021AF20FFF711FE002140
:102BB000AF20FFF70DFEFFF76CFE00210846FFF780
:102BC00035FE08BD001401404A8200085804002068
:102BD0005800002010B5082200210846FFF7C9FE62
:102BE000092200211420FFF7C4FE0A220021282018
:102BF000FFF7BFFE0B2200213C20FFF7BAFE0C229C
:102C000000215020FFF7B5FE0D2200216420FFF7C0
:102C1000B0FE10BD10B5082200210846FFF7A9FE3E
:102C2000092200211420FFF7A4FE0A2200212820F7
:102C3000FFF79FFE0B2200213C20FFF79AFE0E2299
:102C400000215020FFF795FE0F2200216420FFF79E
:102C500090FE10BD01461D488088B0F5806F01D1FF
:102C60000120704719484288801D8154821F528874
:102C7000501CC21700EB92529212A0EB8222134B0F
:102C80005A8018468088401C1A4690800020E8E749
:102C900001460E48808808B9022070470B48028818
:102CA000801D805C0870094A1288501CC21700EB16
:102CB00092529212A0EB8222044B1A80184680880E
:102CC000401E1A4690800020E7E7000080060020A2
:102CD00010B50024B548006820F47020B34908609E
:102CE0000846006840F40020086004E0601CC4B29C
:102CF000012000F084F91021AC48FDF745FE08B131
:102D0000C82CF3DBC82C01DB012010BD002404E03B
:102D1000601CC4B2012000F072F91021A348FDF735
:102D200033FE08B9F02CF3DBF02C01DB0120ECE7DB
:102D30000020EAE710B59D48006820F470209B4908
:102D400008600846006840F4403008601021974849
:102D5000FDF729FE40F2EE2000F051F910219348D2
:102D6000FDF71FFE0F2000F04AF910BD08B5012144
:102D70004020FEF725F81020ADF8000003208DF864
:102D8000020010208DF8030069468848FDF75CFDBD
:102D900010218648FDF705FEFFF7CCFFFFF798FFEF
:102DA00008BD70B504468148006820F470207F4952
:102DB00008600846006840F440300860012522E0C1
:102DC00004F00106641076B110217848FDF7EBFDA0
:102DD000022000F014F910217448FDF7E2FD3C20B8
:102DE00000F00DF90DE010217048FDF7DCFD3C20EE
:102DF00000F005F910216D48FDF7D3FD022000F029
:102E0000FEF8681CC5B2082DDADD70BD10B5674844
:102E1000006820F47020654908600846006840F4A6
:102E20004030086010216148FDF7BDFD022000F030
:102E3000E6F810215D48FDF7B4FD5C48006820F419
:102E400070205A4908600846006840F40020086075
:102E50000C2000F0D4F810215448FDF788FD08B18B
:102E6000012400E00024322000F0C9F8204610BD03
:102E700070B50026012508E0FFF7C8FF0446E00111
:102E800040EA6600C6B2681CC5B2082DF4DD3046C3
:102E900070BD10B5FFF74EFFFFF71AFFCC20FFF70C
:102EA00080FF4420FFF77DFF10BD2DE9F84FFFF7AD
:102EB000F0FFFFF73FFFFFF70BFFCC20FFF771FF9D
:102EC000BE20FFF76EFFFFF7D3FF8346FFF7D0FF6B
:102ED0000446072C08DDE043C4B26FEA0B0000F0A3
:102EE000FF0B4FF0000A01E04FF0010AA1464FEA44
:102EF00009200FFA80F909EB0B000FFA80F9484618
:102F000005F048F8009004F0D9FE07460022284B4F
:102F100004F0A0FD054604F031FD0FFA80F9BAF186
:102F2000000F02D04846BDE8F88FC9F1000000B29A
:102F3000F9E72DE9F04100240025A046FFF7B5FF91
:102F400004460A2094FBF0F6304605F023F80546C7
:102F50000A2094FBF0F100FB1147384605F01AF8FF
:102F60000646144904F038FF80464146284604F0DE
:102F7000D1FE114908600846006804F09FFE06462D
:102F800032460B460DA003F0A5FA0B48006804F08A
:102F900095FE06460022114B04F05AFE02D200F0C4
:102FA00010F901E000F0EEF8BDE8F08100180140F2
:102FB0000000E43F00002041D80500204453503178
:102FC000384232302054656D706572617475726577
:102FD000203D20252E32660D0A00000000A0604032
:102FE0001448006840F080701249086000201249BF
:102FF00048600846006840F001000860704730B53E
:103000000D4C636800210D4C24680D4DB4FBF5F4A4
:1030100004FB00F202E0084C6468E11A9142FAD322
:1030200030BD10B504464FF47A7104FB01F0FFF790
:10303000E6FF10BDFCED00E0001000E008000020FD
:1030400040420F0000BF704700BF4C4A128802F098
:103050004002002AF9D0C0F30802484B1B1D1A8019
:10306000704708B525208DF800000C208DF8010070
:1030700000208DF8020001208DF803006846FDF75E
:103080001AFB08BD08B501210420FDF799FE4FF495
:103090000070ADF8000003208DF8020018208DF8B4
:1030A000030069463648FDF7CFFB4FF48060ADF86A
:1030B000000004208DF8030069463148FDF7C4FB89
:1030C00008BD1FB5044601218803FDF779FE009471
:1030D0000020ADF80400ADF80600ADF80800ADF82A
:1030E0000C000C20ADF80A0069462448FDF70FFFDC
:1030F000012240F225512148FDF7A1FF01211F487F
:10310000FDF791FF1FBD10B504462046FFF7D9FF1C
:10311000FFF7B8FFFFF7A5FF10BD70B504460D46D9
:103120000026ADB111E000BF1448008800F0800017
:103130000028F9D080211148FEF75DF814F8010B42
:103140000E49091D0880701CC6B2AE42EBDB13E0CD
:103150000FE000BF0948008800F080000028F9D087
:1031600080210648FEF747F814F8010B0349091DB2
:10317000088020780028ECD170BD000000380140A4
:10318000000801404FF480701F494861704708B53E
:1031900001211020FDF714FE4FF48070ADF80000FF
:1031A00003208DF8020010208DF8030069461648B0
:1031B000FDF74AFBFFF7E6FF08BD10B5FFF7E7FF95
:1031C00010BD10B54FF47A7411E04FF480700E49C1
:1031D00008614FF44870FFF701F94FF480700A4915
:1031E0004861C820FFF7FAF80120FFF712F9201E06
:1031F000A4F10104E9D110BD0348C06880F48070D7
:103200000149C860704700000010014008B5012165
:103210004FF4A070FDF7D4FD4FF47F40ADF80000EF
:1032200001208DF8020010208DF80300694629481E
:10323000FDF70AFB4FF6FF70ADF8000001208DF896
:10324000020010208DF8030069462348FDF7FCFAC0
:1032500008BD2DE9F04780462049404604F0B2FE03
:10326000814604F07BFE06464FF47A7500242DE07B
:10327000A01C1B4A32F810101648FDF79BFB012CCE
:103280000CD196FBF5F01749085C4FF67F7100EA08
:10329000010949461048FDF78DFB08E096FBF5F063
:1032A000104911F8009049460B48FDF783FB96FB47
:1032B000F5F005FB10660A2095FBF0F5002700E00D
:1032C0007F1C44F61F608742FADB641C042CCFDBB2
:1032D000BDE8F08700180140002001400000C8420E
:1032E000EC050020E00500203EB50446012108461B
:1032F000FDF773FD601E80B2ADF804004720ADF805
:1033000000000020ADF80600ADF8020069464FF05D
:103310008040FEF791F8012211469007FEF703FC6A
:1033200001218807FEF7E4FB3EBD08B51C208DF89F
:10333000000000208DF801008DF8020001208DF8BA
:1033400003006846FDF7B7F908BD10B50446FFF75E
:10335000ECFF2046FFF7C8FF10BD000000B58BB0A2
:1033600001210846FDF71FFDA848FEF79FFEA8486B
:103370000090A8480190002002904FF480700390C4
:10338000002004908020059000200690079008906F
:103390004FF44050099000200A9069469B48FEF780
:1033A00027FF01219948FEF74EFF0BB000BD08B57D
:1033B00027208DF800000D208DF8010000208DF8E9
:1033C000020001208DF803006846FDF774F908BD7E
:1033D00008B501210820FDF7F3FC4FF48060ADF83B
:1033E000000003208DF8020018208DF803006946C4
:1033F0008948FDF729FA4FF40060ADF80000042079
:103400008DF8030069468448FDF71EFA08BD1FB514
:10341000044601218804FDF7E0FC00940020ADF88B
:103420000400ADF80600ADF80800ADF80C000C2063
:10343000ADF80A0069467648001FFDF768FD402197
:103440007348001FFDF7D7FE002240F22661704846
:10345000001FFDF7F4FD002240F225516C48001FCB
:10346000FDF7EDFD012240F224416948001FFDF700
:10347000E6FD012240216648001FFDF705FE0121FF
:103480006348001FFDF7CFFD1FBD10B50446204661
:10349000FFF7BDFFFFF79CFFFFF789FFFFF75EFF18
:1034A00010BDF0B503460D461646002729460A2EE4
:1034B00003D0002008702846F0BD33B9302001F851
:1034C000010B002008702846F6E7002B03DA2D20B8
:1034D00001F8010B5B4242F210720DE093FBF2F433
:1034E00004B937B104F1300001F8010B04FB1233C9
:1034F00001270A2092FBF0F2002AEFDC002008707E
:103500002846D9E70FB470B586B006460CA80190DE
:1035100073E00B9800785C281CD10B98401C0B9032
:1035200000786E2809D072280FD10D213046FDF7A2
:10353000E7FD0B98401C0B900BE00A213046FDF78D
:10354000DFFD0B98401C0B9003E00B98401C0B9088
:1035500000BF4BE00B980078252840D10B98401C09
:103560000B900078642818D0732833D1019810C8C4
:1035700001900BE021783046FDF7C2FD00BF8021AD
:103580003046FDF72BFE0028F9D0641C2078002877
:10359000F0D10B98401C0B9020E0019820C80190BE
:1035A0000A2202A92846FFF77CFF02AC0BE0217833
:1035B0003046FDF7A5FD00BF80213046FDF70EFE29
:1035C0000028F9D0641C20780028F0D10B98401C0A
:1035D0000B9003E00B98401C0B9000BF06E00B988B
:1035E00010F8011B0B903046FDF78AFD00BF8021CB
:1035F0003046FDF7F3FD0028F9D00B98007800283D
:1036000087D106B070BC5DF814FB000030000240AA
:1036100004480040860A0020000C014070B50546B1
:103620000C46C82629469948FFF76CFF984844661F
:103630000CB9002070BD02E0022000F06EFD94483D
:10364000406E18B1701EC0B2061EF5D1002E01DD0D
:103650000020EFE70120EDE78EA002F03BFF0820FD
:103660009C490870002048709BA19CA0FFF7D6FFE2
:1036700020B947229EA1A3A002F02CFF27E0ABA116
:10368000834803F034F850B1522299A1ABA002F064
:1036900021FF4FF47A7000F040FD00F0EAF8AD48E9
:1036A00001880088401CAB4A108042F210708142B1
:1036B0000ADB5D228EA1A8A002F00CFF4FF4C870B7
:1036C00000F02BFD00F0D5F80A2000F026FDD6E72B
:1036D00010B5002480A1A8A0FFF7A0FF30B90124F5
:1036E000792283A1B2A002F0F5FE05E07D2280A13F
:1036F000B7A002F0EFFE0024204610BD10B504462E
:103700006348416E204602F0F2FF10B1002060498C
:103710004866642221465E4803F03EF8C821B54859
:1037200003F0A9F810BD10B5FF246BA1B2A0FFF7FC
:1037300075FF002822D1B4A1554802F0D8FF08B186
:10374000022423E0B3A1524802F0D1FF08B10324C0
:103750001CE0B3A14E4802F0CAFF08B1042415E0F2
:10376000B2A14B4802F0C3FF08B105240EE0B2A19C
:10377000474802F0BCFF48B1042407E0B0A1444828
:1037800002F0B5FF08B1062400E00724204610BD72
:1037900070B505460E4600240BE000BF40213B48B3
:1037A000FDF71CFD0028F9D0295D3848FDF7A8FC7D
:1037B000641CB442F1D370BD30B585B005460C46EB
:1037C0002246A2A1684602F091FE424840780128B4
:1037D0000ED1A2A16846FFF721FF48B92346F22285
:1037E00043A19FA002F076FE21462846FFF7D0FFB6
:1037F00005B030BD10B5FFF76BFF01280ED10320D7
:10380000344908700020A04908704870887040F260
:10381000011237A19DA002F05DFE05E04FF4837216
:1038200033A1A2A002F056FE10BDF0B5A1B007462C
:103830000D461646802101A803F01DF8324683A1EB
:1038400001A802F053FE85A101A8FFF7E7FE28B901
:1038500031462846FFF79CFF002400E00124204663
:1038600021B0F0BD00201B490978032900D10120B7
:1038700070479748006800F4E06096490843001DCF
:1038800093490860BFF34F8F00BFFEE70048004038
:10389000880B00202D2D2D2D2D2D2D2D2D2D2D2D59
:1038A0002D2D2D456E74657220436F6E66696757C6
:1038B0006946692046756E6374696F6E2D2D2D2DD6
:1038C0002D2D2D2D2D2D2D2D2D2D2D2D2D2D0D0A6B
:1038D00000000000000600204F4B000041542B4325
:1038E00057534D41525453544152543D320D0A00E6
:1038F0004253505C4253505F455350383236362E57
:103900006300000025735F25643A5374617274206C
:10391000736D61727420636F6E66696720636F6E8A
:103920006669677572650D0A00000000534D4152CB
:1039300054205355434345535300000025735F25DE
:10394000643A736D61727420636F6E666967206F8D
:103950006B0D0A000206002025735F25643A636F31
:103960006E6669672074696D656F75742072657322
:10397000746172740D0A000041542B434950535432
:103980004152543D22544350222C22616474777575
:103990007A702E696F742E677A2E6261696475621F
:1039A00063652E636F6D222C313838330D0A0000A9
:1039B00025735F25643A636F6E6E6563742073656B
:1039C0007276657220746370206F6B210D0A00009F
:1039D00025735F25643A636F6E6E6563742073654B
:1039E0007276657220746370206661696C6564210B
:1039F0000D0A0000F00B002041542B434950535452
:103A0000415455530D0A00005354415455533A3212
:103A1000000000005354415455533A330000000055
:103A20005354415455533A34000000005354415408
:103A300055533A3500000000434C4F5345000000F9
:103A40006275737920732E2E2E00000041542B4393
:103A5000495053454E443D25640D0A003E00000088
:103A600025735F25643A53656E6420746F20657317
:103A700070383236362064617461206C656E203D8A
:103A80002025640D0A000000FC05002025735F2539
:103A9000643A636F6E6E656374205443502073659F
:103AA00072766572204F4B0D0A0D0A0025735F2553
:103AB000643A636F6E6E656374205443502073657F
:103AC00072766572204661696C0D0A0D0A0000006D
:103AD0000CED00E00000FA0500F1080141604FF034
:103AE000FF31816000F10801C160016100210160C6
:103AF000704700210161704742684A6093688B609B
:103B0000936859609160086103685B1C03607047AB
:103B100010B502460B685C1C0CB9106907E002F195
:103B2000080000E04068446824689C42FAD9446870
:103B30004C604C68A160886041600A611468641C34
:103B4000146010BD01460A69D1E901309860D1E9DD
:103B5000010358605068884201D188685060002095
:103B600008611068401E10601068704710B500248E
:103B700007E004EB8401FE4A02EB8100FFF7ACFF93
:103B8000641C0C2CF5D3FB48FFF7A6FFFA48FFF79F
:103B9000A3FFFA48FFF7A0FFF948FFF79DFFF94898
:103BA000FFF79AFFF348F8490860F348F7490860BF
:103BB00010BD10B5044602F0A1F9F5480068401C9C
:103BC000F3490860F348006840B9F24804600846C9
:103BD000006801280DD1FFF7C9FF0AE0EE48006830
:103BE00038B9EC480068C06AE16A884201D8E948FF
:103BF0000460EA480068401CE8490860084600681C
:103C0000606494F82C1001208840E5490968084355
:103C1000E3490860E16A01EB8101D54A02EB8100CA
:103C2000211DFFF769FF02F078F9DB48006868B1F1
:103C3000D8480068C06AE16A884207D24FF08050D5
:103C4000D8490860BFF34F8FBFF36F8F10BD2DE9C8
:103C5000F05F81460F4690469A460A9E0C9C4FEABA
:103C60008801A522206B02F0DCFDA8F10100216B88
:103C700001EB800B2BF0070B002507E0795D04F1C9
:103C800034004155785D00B902E06D1C102DF5D36C
:103C900000BF0021432001550C2E00D30B26E66205
:103CA000E66400202065201DFFF723FF04F11800C3
:103CB000FFF71FFF2461C6F10C00A06164620020C1
:103CC000606584F8580052464946584602F0E5F8C7
:103CD00020600B9808B10B980460BDE8F09F2DE9B7
:103CE000FF4F85B0804689461746DDE912ABB80024
:103CF00002F0A3F9064656B15C2002F09EF9044694
:103D00000CB1266304E0304602F0F5F900E000242F
:103D10007CB10020CDE900ABCDE902403A464946EE
:103D20004046089BFFF793FF2046FFF742FF01251F
:103D300001E04FF0FF35284609B0BDE8F08F924909
:103D40000968096809B9012100E0002121B14FF09B
:103D5000FF31954A116006E08B490968C968C86857
:103D6000914A41681160704710B50446206B02F01B
:103D7000C2F9204602F0BFF910BD70B5054602F049
:103D8000BDF815B98348006800E028460446201DA8
:103D9000FFF7D8FE78B9E06A00EB8000744951F86B
:103DA000200040B994F82C10012088407C49096813
:103DB00081437B480160A06A18B104F11800FFF745
:103DC000C1FE76480068401C74490860714800686C
:103DD000844209D1211D6A48FFF78EFE73480068AE
:103DE000401C7249086009E069480068401E684943
:103DF00008602046FFF7B8FFFFF7A1FF02F08DF83B
:103E00006548006858B163480068844207D14FF0A4
:103E1000805064490860BFF34F8FBFF36F8F70BD50
:103E20002DE9F041002762480068002863D161480D
:103E30000068451C5F4805608DB95348D0F8008084
:103E400052480068504908605048C0F800805A48FD
:103E50000068401C58490860FFF771FF00BF5248D6
:103E6000006885423BD300BF47480068006808B936
:103E7000012000E0002020B14FF0FF304A490860E7
:103E80002CE041480068C068C4686668B54202D248
:103E90004548066022E0201DFFF754FEA06A18B1D5
:103EA00004F11800FFF74EFE94F82C100120884012
:103EB0003B49096808433A490860E16A01EB81011E
:103EC0002B4A02EB8100211DFFF716FE3149E06A03
:103ED0000968C96A8842C7D30127C5E700BF2D48D2
:103EE0000068C06A00EB8000214951F820000128D9
:103EF00000D9012704E031480068401C2F490860C0
:103F00002F48006800B101273846BDE8F08170B540
:103F10000024002601F0F2FF25480068401E2449D5
:103F200008600846006800287AD11948006800280F
:103F300076D04FE01148C068C46804F11800FFF75C
:103F400001FE201DFFF7FEFD94F82C100120884093
:103F500013490968084312490860E16A01EB8101CD
:103F6000034A02EB8100211DFFF7C6FD094929E044
:103F7000D80C0020C80D0020DC0D0020F00D002022
:103F8000040E0020180E0020080600200C06002059
:103F90001406002004060020200600203006002021
:103FA0001C06002004ED00E034060020100600206E
:103FB0003C060020180600202C06002024060020C5
:103FC00028060020E06A0968C96A884202D30120F5
:103FD000FA490860FA48006808B9012000E00020AA
:103FE0000028A7D00CB1FFF7AAFEF648056865B116
:103FF00000BFFFF715FF10B10120F04908606D1EEA
:10400000002DF6D10020EF490860EC48006838B177
:1040100001263007EC490860BFF34F8FBFF36F8F65
:1040200001F07BFF304670BD2DE9F04105460E469C
:10403000E6480768E6480068001DFFF783FD50B9B1
:10404000E348006890F82C1001208840E149096895
:104050008143E0480160681C38B936B1DC4801682A
:10406000091DDD48FFF748FD1AE07C19D8480068B3
:104070004460BC4207D2D6480168091DD748006891
:10408000FFF746FD0CE0D2480168091DD4480068DE
:10409000FFF73EFDD3480068844201D2D148046056
:1040A000BDE8F081D0480068401CCF4908607047E7
:1040B0002DE9F047044688464FF00009FFF7F2FF6C
:1040C000C2480668206800EB08052068B04207D99E
:1040D0002068A8420BD9B54209D94FF0010906E082
:1040E0002068A84201D8B54201D94FF001092560E6
:1040F000B9F1000F03D0A81B0021FFF795FFFFF7D0
:1041000006FF07463FB94FF08050AF490860BFF344
:104110004F8FBFF36F8FBDE8F08770B50446002561
:1041200044B1FFF7BFFF00212046FFF77DFFFFF7F7
:10413000EEFE05463DB94FF08050A3490860BFF33D
:104140004F8FBFF36F8F70BD2DE9F04106463746A4
:104150009F480068874201D100241EE001F0CEFE96
:104160007D6901F0DAFE9E480068854203D09B48D5
:104170000068854201D102240FE09748854205D1AD
:10418000B86A08B9032408E0022406E0974885428B
:1041900000D00DB9042400E001242046BDE8F081E0
:1041A00070B5044601F0AAFE14B98948006800E021
:1041B00020460646F56A01F0B0FE284670BD70B58F
:1041C000024600BF5025EFF3118485F31188BFF339
:1041D0004F8FBFF36F8F00BF214612B97C4C24680C
:1041E00000E014462346D86A00BF81F3118800BF5F
:1041F00070BD2DE9F04780460D464FF000090C2DAB
:1042000000D30B2501F07AFEB8F1000F02D17048FF
:10421000006800E040460446E66CAE4256D0B54227
:104220000BD96B48006884420DD069480068C06AA9
:10423000A84208D84FF0010905E0654800688442AB
:1042400001D14FF00109E76AE16AE06C884200D1D0
:10425000E562E564A06900F0004010B9C5F10C000A
:10426000A06107EB8701624A02EB81016069884225
:1042700001D1012000E00020E0B1201DFFF762FC29
:1042800030B90120B8405349096881435148016061
:1042900094F82C10012088404E49096808434D4984
:1042A0000860E16A01EB8101514A02EB8100211DA6
:1042B000FFF722FCB9F1000F07D04FF080504249C0
:1042C0000860BFF34F8FBFF36F8F00BF01F025FE73
:1042D000BDE8F0874448006818B1012037490860FC
:1042E0001DE00020354908603A480068B0FA80F0C7
:1042F000C0F11F0101EB81023D4B03EB82004268DC
:104300005268426000F108024368934202D1426859
:10431000526842604268D2682D4B1A6000BF7047F5
:1043200070B5054601F0EAFD15B92948006800E0BE
:1043300028460446201DFFF705FC78B9E06A00EB2B
:1043400080002B4951F8200040B994F82C1001202E
:1043500088402049096881431E480160A06A18B15D
:1043600004F11800FFF7EEFB211D1B48FFF7C4FB0B
:1043700001F0D3FD1F48006828B101F0BFFDFFF731
:10438000DEFC01F0CAFD12480068844238D11948A9
:10439000006840B14FF080500B490860BFF34F8F69
:1043A000BFF36F8F2CE00C480068134909688842FE
:1043B00024D100200649086022E0000028060020E1
:1043C000F00D00202406002004ED00E01806002077
:1043D000040600201C060020180E00200C060020F9
:1043E00008060020340600203C060020040E0020B1
:1043F000D80C00202006002014060020FFF76AFFDA
:1044000070BD10B5014600200A46FE4C5369A34218
:1044100001D1012300E0002373B1FB4C936AA34256
:1044200001D1012300E0002333B9936A0BB90123C2
:1044300000E0002303B1012010BD70B505462C46F5
:1044400074B3F248006884422AD001F057FD204638
:10445000FFF7D7FF10B3201DFFF774FB94F82C1063
:1044600001208840EA4909680843E9490860E16A8F
:1044700001EB8101E74A02EB8100211DFFF73CFBC4
:10448000E249E06A0968C96A884207D34FF0805060
:10449000E1490860BFF34F8FBFF36F8F01F03DFD1F
:1044A00070BD2DE9F04106460027344600BF50217B
:1044B000EFF3118081F31188BFF34F8FBFF36F8F3C
:1044C00000BF05462046FFF79CFF20B3D348006895
:1044D000E0B9CE49E06A0968C96A884200D3012779
:1044E000201DFFF72FFB94F82C1001208840C849AD
:1044F00009680843C6490860E16A01EB8101C54AC1
:1045000002EB8100211DFFF7F7FA04E004F1180126
:10451000BD48FFF7F1FA00BF85F3118800BF3846A8
:10452000BDE8F08170B523E0FFF7BCFDBC48006832
:1045300008B9012000E000200546FFF7E8FCBDB9FE
:1045400001F0DCFCB648C068C468201DFFF7FAFA29
:10455000B4480068401EB3490860B3480068401E74
:10456000B149086001F0D9FC2046FFF7FDFB00BF10
:10457000AD4800680028D7D170BD00BFFFF7D2FF5B
:10458000A44800680128F9D94FF08050A24908607A
:10459000BFF34F8FBFF36F8FF0E71CB5A348002127
:1045A0000B468222CDE90010A1A1A348FFF797FB9B
:1045B0000446012C02D101F0A0FB0446012C14D1C9
:1045C00000BF502080F31188BFF34F8FBFF36F8F70
:1045D00000BF4FF0FF3099490860012098490860FA
:1045E00000209849086001F073FC1CBD10B500BFA5
:1045F000502080F31188BFF34F8FBFF36F8F00BF40
:1046000000208F49086001F078FC10BD8D490868D2
:10461000704700218B4A10687047824800687047D5
:10462000014611B97948006800E00846024602F1E7
:10463000340070470246002101E0521C491C1078EA
:10464000A528FAD0890888B270472DE9F0410746BD
:104650000C4690461E4617B96C48006800E0384684
:104660000546256005F134006060E86A2061286B2A
:10467000E061686CA060207B032807D1FFF712FD82
:10468000A86A08B102202073FFF741FCE86C606162
:104690000020A061052E01D0267303E03846FFF705
:1046A00053FD2073B8F1000F04D0286BFFF7C2FF51
:1046B000208401E000202084BDE8F0812DE9F0474E
:1046C00007460C4690460026206848B320464168BD
:1046D0004968416000F1080142688A4202D141689C
:1046E000496841604168D1F80C9000BF204641689C
:1046F0004968416000F1080142688A4202D141687C
:10470000496841604168CD6806EBC60007EB80014F
:10471000434601222846FFF798FF761C4D45E5D118
:104720003046BDE8F0872DE9F0410546884616463B
:1047300000240C27FFF7B6FC3A480068804539D3BF
:1047400000BF7F1E07EB8702324B03EB820104EBB5
:10475000C40205EB82000122FFF7B0FF0444002FE2
:10476000EFD104EBC40105EB810002223649096850
:10477000FFF7A4FF044404EBC40105EB810002220F
:1047800032490968FFF79AFF044404EBC40105EBC2
:10479000810004222249FFF791FF044404EBC40185
:1047A00005EB810003221749FFF788FF04440EB18F
:1047B00000203060FFF7ABFB2046BDE8F08170B50C
:1047C00005460C461148016818312846FFF7A0F944
:1047D00001212046FFF728FC70BD70B506460C4647
:1047E000154644F000400949096888610748016896
:1047F00018313046FFF780F901212846FFF714FCF5
:1048000070BD0000180E0020F00D002004060020EE
:104810001C060020D80C002004ED00E03C0600201F
:10482000040E002014060020100600203806002088
:1048300049444C45000000007B4500083406002038
:104840002006002018060020080600200C06002084
:1048500070B506460D461446FE48016818313046CC
:10486000FFF74AF90CB14FF0FF3521462846FFF714
:10487000DBFB70BD70B50646F068C46804F1180033
:10488000FFF760F9F4480068A8B9201DFFF75AF94E
:1048900094F82C1001208840F04909680843EF493A
:1048A0000860E16A01EB8101ED4A02EB8100211D04
:1048B000FFF722F904E004F11801EA48FFF71CF9B8
:1048C000E449E06A0968C96A884204D901250120DF
:1048D000E549086000E00025284670BD2DE9F0415B
:1048E00005460F4647F000402860EC682846FFF771
:1048F00029F9201DFFF726F994F82C100120884093
:10490000D64909680843D5490860E16A01EB81018D
:10491000D34A02EB8100211DFFF7EEF8CD49E06A92
:104920000968C96A884204D901260120CE49086075
:1049300000E000263046BDE8F081CC4909680160FE
:10494000CB4909684160704770B504460D4601F0D7
:10495000D5FAC74802682868401C08B9002619E043
:10496000C24920680968884204D06068904201D832
:1049700001260FE06068101A2968884209D2286869
:104980006168511A401A28602046FFF7D6FF0026BA
:1049900000E0012601F0C1FA304670BD0120B249A5
:1049A00008607047014611B10A46906C00E0002093
:1049B000704708B1024691647047A649086870477D
:1049C000AC49096809B9012005E0A349096809B99A
:1049D000022000E00020704770B505462C46002DEF
:1049E0004BD09C49E06A0968C96A884245D2A069EF
:1049F00000F0004028B997480068C06AC0F10C0078
:104A0000A061E16A01EB8101954A02EB81016069D5
:104A1000884201D1012000E0002050B3201DFFF7A3
:104A200091F878B9E06A00EB80008D4951F82000D8
:104A300040B994F82C1001208840884909688143C6
:104A40008648016083480068C06AE06294F82C10D0
:104A50000120884081490968084380490860E16A6B
:104A600001EB81017E4A02EB8100211DFFF744F832
:104A700003E078480068C06AE06270BD70B5054622
:104A80002C460026ADB3206D401E2065E16CE06A27
:104A900088422ED0206D60BB201DFFF753F878B9F7
:104AA000E06A00EB80006E4951F8200040B994F8AC
:104AB0002C100120884069490968814367480160DA
:104AC000E06CE062E06AC0F10C00A06194F82C1088
:104AD0000120884061490968084360490860E16A2B
:104AE00001EB81015E4A02EB8100211DFFF704F812
:104AF0000126304670BD70B505460E463146284643
:104B000001F007FE284601F028FE044602E02020BE
:104B10002855641C0F2CFAD300202855281970BD85
:104B20007FB505460020287053480068039052491D
:104B3000096801EBC101880001F07FFA0446002CEE
:104B400053D0002220460399FFF7EDFD039000208B
:104B5000029043E0029800EBC00004EB8000007B71
:104B6000012806D0022806D0032806D0042808D140
:104B700005E0522607E0422605E0532603E04426DE
:104B800001E0002600BF00BF029800EBC00004EB6C
:104B9000800041682846FFF7AEFF0546029800EB0B
:104BA000C00004EB80008068029901EBC10104EBB6
:104BB0008101098CCDE90010029800EBC00004EBE4
:104BC000800032462DA10369284601F08FFC28465B
:104BD00001F0C3FD05440298401C0290DDE902018A
:104BE0008842B7D3204601F086FA7FBD194909688B
:104BF000886918490968C96AC1F10C01154A126827
:104C0000916170471348006830B11249096801F199
:104C10005000096D491C01600E480068704770B56E
:104C200006460D4601F06AF90A480068406D80B9F1
:104C300001200849096881F8580055B1012128462A
:104C4000FFF7F2F94FF0805010490860BFF34F8F23
:104C50001EE01FE0040600203C0600201C06002089
:104C6000D80C0020F00D0020280600202C06002083
:104C700018060020200600201406002009256309DC
:104C800025750925750925750D0A000004ED00E05C
:104C9000BFF36F8F01F041F901F030F9C8480068A7
:104CA000446D4CB126B10020C5490968486503E050
:104CB000601EC349096848650020C149096881F838
:104CC000580001F02AF9204670BD2DE9F041074651
:104CD000884614461D4601F011F9B948006890F85D
:104CE0005800022818D0B649096801F15400496DEE
:104CF000B94301600120B249096881F858005DB1EB
:104D000001212846FFF790F94FF08050AD49086027
:104D1000BFF34F8FBFF36F8F01F0FFF801F0EEF894
:104D20001CB1A7480068406D2060A548006890F855
:104D30005800012801D1002608E0A149096801F1C5
:104D40005400496D21EA08010160012600209C49B8
:104D5000096881F8580001F0E0F83046BDE8F081BC
:104D60002DE9F04781460D4616461F464FF0010AD1
:104D70004C4601F0C3F80FB1606D386094F858806C
:104D8000022084F85800052E17D2DFE806F015033C
:104D9000070B0D00606D284360650EE0606D401CE0
:104DA00060650AE0656508E0B8F1020F01D065654D
:104DB00001E04FF0000A00E000BF00BFB8F1010FB2
:104DC00022D1201DFEF7BEFE94F82C100120884051
:104DD0007D49096808437C490860E16A01EB81016B
:104DE0007A4A02EB8100211DFEF786FE7449E06AD3
:104DF0000968C96A884207D94FF080507149086034
:104E0000BFF34F8FBFF36F8F01F087F85046BDE8B7
:104E1000F0872DE9F84F82460D4616461F46DDF80D
:104E200028B001200090544600BF5021EFF31180BC
:104E300081F31188BFF34F8FBFF36F8F00BF81469F
:104E40000FB1606D386094F85880022084F85800E3
:104E5000052E17D2DFE806F01503070B0D00606D75
:104E6000284360650EE0606D401C60650AE0656582
:104E700008E0B8F1020F01D0656501E00020009064
:104E800000E000BF00BFB8F1010F2DD1504800680D
:104E9000A8B9201DFEF756FE94F82C10012088407A
:104EA00049490968084348490860E16A01EB810102
:104EB000464A02EB8100211DFEF71EFE04E004F1CC
:104EC00018014448FEF718FE3D49E06A0968C96ABE
:104ED000884209D9BBF1000F03D00120CBF80000B4
:104EE00002E001203C49086000BF89F3118800BF3F
:104EF0000098BDE8F88F2DE9F04105460E462C4696
:104F000000BF5021EFF3118081F31188BFF34F8F61
:104F1000BFF36F8F00BF074694F85880022084F8D3
:104F20005800606D401C6065B8F1010F2AD1284817
:104F30000068A8B9201DFEF705FE94F82C1001208A
:104F400088402149096808431F490860E16A01EB6C
:104F500081011E4A02EB8100211DFEF7CDFD04E018
:104F600004F118011B48FEF7C7FD1549E06A0968FE
:104F7000C96A884206D916B10120306002E00120DA
:104F80001549086000BF87F3118800BFBDE8F081B4
:104F900070B5054615B90A48006800E0284606467F
:104FA00000F0ACFF96F85800022804D1002086F8E3
:104FB0005800012400E0002400F0AFFF204670BD3F
:104FC0000406002004ED00E01C060020D80C0020A0
:104FD0003C060020F00D00202806002070B5054694
:104FE0000E462C4600F08AFFD4E90F12206801FB20
:104FF000020060600020A0632068A060E06B401E9B
:10500000226C216800FB0210E060FF2084F844005D
:1050100084F845009EB9206908B9012000E000200D
:10502000A8B904F11000FFF725FC80B14FF08050C3
:10503000FB490860BFF34F8FBFF36F8F07E004F1A8
:105040001000FEF749FD04F12400FEF745FD00F0D5
:1050500064FF012070BD2DE9F04106460D4617465C
:105060009846069C0DB9246000E02760E66325643D
:1050700001212046FFF7B2FF84F850800020A06491
:10508000BDE8F0812DE9F84307460D4690460DB97D
:10509000002601E007FB05F606F1540000F0CDFF05
:1050A000044644B104F1540943464A462946384669
:1050B0000094FFF7D0FF2046BDE8F8832DE9F041CA
:1050C00004460F4615464FF00008A66B206C40B909
:1050D000206860BB6068FFF7D1FC804600206060FC
:1050E00025E07DB93946226CA06801F055FB216CA2
:1050F000A0680844A060D4E90110884217D3206852
:10510000A06014E03946226CE06801F045FB216C98
:10511000E068401AE0602168E068884203D2216CB0
:105120006068401AE060022D01D106B1761E701C45
:10513000A0634046BDE8F0812DE9F3410D4600989B
:10514000846C0027A06BE16B88421BD294F9456008
:105150002A4669462046FFF7B1FF0746701C60B932
:10516000606A08B9012000E0002050B904F1240071
:10517000FFF780FB28B1012703E0701C40B284F8E0
:10518000450000BF3846BDE8FC8170B5044600F01C
:10519000B5FE94F945501AE0A06C38B100212046C4
:1051A000FFF7CAFF88B1FFF7F9FB0EE0606A08B9A4
:1051B000012000E0002038B904F12400FFF75AFB79
:1051C00018B1FFF7EBFB00E003E0681E45B2002DCD
:1051D000E2DC00BFFF2084F8450000F09EFE00F0F6
:1051E0008DFE94F9445010E0206908B9012000E0D8
:1051F000002048B904F11000FFF73CFB08B1FFF7AD
:10520000CDFB681E45B200E001E0002DECDC00BFE4
:10521000FF2084F8440000F080FE70BD70B50546A4
:1052200000F06CFEA86BE96B884201D1012400E01C
:10523000002400F072FE204670BD2DE9FF4383B0CC
:10524000074688461D464FF000093C4600BF00F067
:1052500055FEA06BE16B884201D3022D38D12A465E
:1052600041462046FFF72AFF0646A06C68B1294652
:105270002046FFF761FF28B34FF08050684908606F
:10528000BFF34F8FBFF36F8F1CE0606A08B9012036
:1052900000E0002068B904F12400FFF7EBFA88B1C0
:1052A0004FF080505E490860BFF34F8FBFF36F8FA0
:1052B00008E03EB14FF0805059490860BFF34F8F6E
:1052C000BFF36F8F00F029FE012007B0BDE8F08327
:1052D000059818B900F021FE0020F6E7B9F1000F9B
:1052E00004D101A8FFF729FB4FF0010900F015FEDA
:1052F000FEF7D8FE00F002FE94F94400401C10B9FD
:10530000002084F8440094F94500401C10B90020A6
:1053100084F8450000F001FE05A901A8FFF714FB81
:10532000F0B92046FFF77AFFA0B104F1100005990B
:10533000FFF745FA2046FFF728FFFEF7E8FD0028B3
:1053400085D14FF0805036490860BFF34F8FBFF3CF
:105350006F8F7CE72046FFF718FFFEF7D8FD76E752
:105360002046FFF712FFFEF7D2FD0020ADE710B593
:1053700004464CB1002060602060E06000231A46C3
:1053800019462046FFF759FF10BD2DE9F0410446AC
:1053900001260027224600210120FFF773FE054663
:1053A0002846FFF7E4FF2846BDE8F08170B50646C1
:1053B0003446FFF702FB616888420CD1E068401E6A
:1053C000E060E06828B900231A4619462046FFF736
:1053D00034FF012500E00025284670BD70B5054664
:1053E00000F08CFDA86B08B9012400E0002400F057
:1053F00094FD204670BD70B504460D46206C70B11A
:10540000216CE0680844E0606168E068884201D38C
:105410002068E0602846226CE16801F0BDF970BDAB
:1054200004ED00E02DE9FF4782B0054689461E469F
:105430004FF0000A2C4600BF00F060FDD4F8388021
:10544000B8F1000F3BD0E76849462046FFF7D3FF8D
:10545000DEB9A8F10100A063206810B9FFF7D2FB04
:105460006060206908B9012000E0002008BB04F159
:105470001000FFF7FFF9E0B14FF08050F9490860E4
:10548000BFF34F8FBFF36F8F13E0E760606A08B917
:10549000012000E0002060B904F12400FFF7EAF9E0
:1054A00038B14FF08050EF490860BFF34F8FBFF322
:1054B0006F8F00F032FD012006B0BDE8F087049840
:1054C00018B900F02AFD0020F6E7BAF1000F04D168
:1054D0006846FFF732FA4FF0010A00F01EFDFEF7B2
:1054E000E1FD00F00BFD94F94400401C10B90020D0
:1054F00084F8440094F94500401C10B9002084F859
:10550000450000F00AFD04A96846FFF71DFA40BBFC
:105510002046FFF763FFF0B1206830B900F0EEFCE1
:105520006068FFF759FA00F0F8FC04F124000499D0
:10553000FFF745F92046FFF728FEFEF7E8FC0028B4
:105540007FF47AAF4FF08050C6490860BFF34F8FA9
:10555000BFF36F8F70E72046FFF717FEFEF7D7FC0B
:105560006AE72046FFF711FEFEF7D1FC2046FFF761
:1055700035FF0028EED000209EE72DE9F0410646D9
:105580000F463446FFF719FA6168884204D1E06893
:10559000401CE06001250AE000233A4619462046F7
:1055A000FFF740FF054615B1E068401CE060284663
:1055B000BDE8F08170B506460D4602220021304656
:1055C000FFF760FD044604B1A563204670BD2DE9D8
:1055D000F05F06468A4615461F46344600BF5021F6
:1055E000EFF3118081F31188BFF34F8FBFF36F8FFB
:1055F00000BF8146A06BE16B884201D3022F2BD103
:1056000094F945B03A4651462046FFF757FD0BF155
:105610000100C8B9A06C40B139462046FFF78CFDA7
:10562000B8B1B5B10120286013E0606A08B9012063
:1056300000E0002068B904F12400FFF71BF940B135
:105640003DB10120286004E00BF1010040B284F874
:1056500045004FF0010801E04FF0000800BF89F35A
:10566000118800BF4046BDE8F09F2DE9F04706468F
:105670000D46344600BF5021EFF3118081F31188AD
:10568000BFF34F8FBFF36F8F00BF8046D4F83890C1
:10569000E06B484528D994F945A009F10100A063C1
:1056A0000AF10100C8B9A06C40B100212046FFF703
:1056B00043FDB8B1B5B10120286013E0606A08B9B4
:1056C000012000E0002068B904F12400FFF7D2F8BF
:1056D00040B13DB10120286004E00AF1010040B270
:1056E00084F84500012700E0002700BF88F31188F7
:1056F00000BF3846BDE8F0872DE9F05F05468A46D1
:1057000016462C4600BF5021EFF3118081F311881B
:10571000BFF34F8FBFF36F8F00BF8046D4F8389030
:10572000B9F1000F21D094F944B051462046FFF75B
:1057300062FEA9F10100A0630BF1010070B92069BC
:1057400008B9012000E0002068B904F11000FFF75B
:1057500091F840B13EB10120306004E00BF101004E
:1057600040B284F84400012700E0002700BF88F31E
:10577000118800BF3846BDE8F09F2DE9F047054687
:1057800089462C4600BF5021EFF3118081F3118828
:10579000BFF34F8FBFF36F8F00BF0746A06B48B1B9
:1057A000D4F80C8049462046FFF725FEC4F80C804B
:1057B000012600E0002600BF87F3118800BF3046B5
:1057C000BDE8F08770B5044600F098FBA56B00F0CB
:1057D000A4FB284670BD70B50446254600F08EFB3C
:1057E000D5E90E10461A00F098FB304670BD014610
:1057F000886B7047014600200EE01B4A02EBC00296
:1058000052688A4207D10022174B43F8302003EB3D
:10581000C0035A6002E0401C0828EED300BF704766
:1058200070B5044625462846FFF7E4FF284600F0F9
:1058300062FC70BD0146C86C7047C1647047014688
:1058400091F85000704701468A6B0AB9012000E0C8
:105850000020704701468A6BCB6B9A4206D101202B
:1058600005E0000004ED00E02C0E00200020704751
:10587000024600200BE04A4B53F8303033B9484B16
:1058800043F8301003EBC0035A6002E0401C0828C4
:10589000F1D300BF70470246002000210AE0404BD0
:1058A00003EBC1035B68934203D13D4B53F83100D6
:1058B00002E0491C0829F2D300BF70472DE9F041EE
:1058C00005460E4617462C4600F018FB94F9440096
:1058D000401C10B9002084F8440094F94500401C95
:1058E00010B9002084F8450000F017FBA06B28B920
:1058F0003A46314604F12400FEF7AAFF2046FFF79E
:1059000044FCBDE8F08170B5044600220421204625
:10591000FFF7B8FB0546284670BD70B504460E4635
:1059200000F0ECFAA06C08B1002505E0A06B08B10E
:10593000002501E0A664012500F0EFFA284670BDBD
:105940002DE9F04105460F462E46B06CB84201D015
:1059500000240AE0B06B08B1002406E000F0CEFAA3
:105960000020B06400F0D9FA01242046BDE8F0819F
:1059700038B505460C4600200090002322466946B3
:105980002846FFF74FFD009838BD38B50446002083
:105990000090002269462046FFF7AEFE009838BD11
:1059A0002C0E00202DE9F04104460D4616461F46F8
:1059B0004FF0000865602461B5420CD8F01BA16966
:1059C000884202D34FF0010811E0211DF948006818
:1059D000FEF79EF80BE0BE4204D2BD4202D34FF068
:1059E000010804E0211DF4480068FEF791F84046E4
:1059F000BDE8F0812DE9FF4705460C4616461F46D7
:105A0000DDF830804FF00009EC48006810B30094D6
:105A100001960295062C15DAFEF7D2FF022808D16E
:105A2000002342466946E5480068FFF706FC8146C8
:105A300010E000231A466946E0480068FFF7FDFBC6
:105A4000814607E000233A466946DC480068FFF7D4
:105A5000BEFD8146484604B0BDE8F0872DE9F84315
:105A600026E0D5480068C0680568D3480068C0686B
:105A7000C468201DFEF766F82046616A8847E06921
:105A8000012815D1A0694619AE4207D96660246184
:105A9000211DC9480068FEF73BF809E000200346D5
:105AA0002A46014600902046FFF7A4FF804600BF2B
:105AB000C1480068006808B9012000E00020002803
:105AC000CFD0BD480768BB480068BB490860B948EB
:105AD0000760BDE8F88370B50446FEF797FD0546FC
