:020000040800F2
:10000000480E002019050008E1020008E30200087C
:10001000E7020008EB020008EF0200080000000001
:10002000000000000000000000000000F3020008D3
:10003000F502000800000000F7020008F9020008BD
:1000400033050008330500083305000833050008B0
:1000500033050008330500083305000833050008A0
:100060003305000833050008330500083305000890
:100070003305000833050008330500083305000880
:100080003305000833050008330500083305000870
:100090003305000833050008330500083305000860
:1000A0003305000833050008330500083305000850
:1000B000FB0200083305000833050008330500087B
:1000C0003305000833050008330500083305000830
:1000D0003305000833050008330500083305000820
:1000E0003305000833050008330500083305000810
:1000F0003305000833050008330500083305000800
:1001000033050008330500083305000833050008EF
:1001100033050008330500083305000833050008DF
:1001200033050008330500083305000833050008CF
:1001300000F002F800F067F80AA090E8000C824492
:100140008344AAF10107DA4501D100F05CF8AFF26F
:10015000090EBAE80F0013F0010F18BFFB1A43F0A5
:1001600001031847304B0000504B00000A444FF089
:10017000000C10F8013B13F0070408BF10F8014B06
:100180001D1108BF10F8015B641E05D010F8016B4B
:10019000641E01F8016BF9D113F0080F1EBF10F8AF
:1001A000014BAD1C0C1B09D16D1E58BF01F801CBD2
:1001B000FAD505E014F8016B01F8016B6D1EF9D555
:1001C0009142D6D37047000000230024002500266A
:1001D000103A28BF78C1FBD8520728BF30C148BFAA
:1001E0000B607047662904F01082002070471FB52D
:1001F00003F016F804000020002103F07FFDE0600A
:100200001FBD10B510BD03F027F91146FFF7EFFF32
:1002100000F008F803F045F903B4FFF7F2FF03BC60
:1002200002F0BAFB4FF4407000F096F902F082FB46
:100230004FF4E13002F011FC02F042FA01F0C2FE8C
:1002400002F065FC02F08CFC4FF47A7002F027FD9E
:1002500002F03CF902F045F800221146012002F0BC
:10026000B0F801220021122002F0ABF80222002196
:10027000232002F0A6F803220021342002F0A1F886
:1002800004220021452002F09CF80522002156207E
:1002900002F097F800220221082002F0C3F80122A0
:1002A0000221302002F0BEF802221146582002F04E
:1002B000B9F80FE00848006803F0E2FE0446224661
:1002C0000B4606A002F0F4FC02F0DDFA4FF4FA60EF
:1002D00002F051FBEEE70000C80700202566000091
:1002E000704700BFFEE700BFFEE700BFFEE700BFAC
:1002F000FEE7704770477047704710B501218807C7
:1003000001F015FE78B10A480068052806D10948B1
:10031000006802F048FC00200549086004480068B5
:10032000401C034908600121880701F011FE10BD3F
:1003300004000020C80700200CB5002001900090A8
:100340006C48006840F480306A49086000BF694822
:10035000006800F4003000900198401C0190009863
:1003600018B90198B0F5A06FF1D16248006800F4A7
:10037000003010B10120009001E0002000900098B2
:10038000012843D15C48006840F010005A490860D9
:100390000846006820F0030008600846006840F046
:1003A0000200086053484068524948600846406867
:1003B00048600846406840F48060486008464068ED
:1003C00020F47C1048600846406840F4E81048601B
:1003D0000846006840F08070086000BF454800682B
:1003E00000F000700028F9D04248406820F0030077
:1003F000404948600846406840F00200486000BF3D
:100400003C48406800F00C000828F9D10CBD10B53C
:10041000FFF792FF10BD10B53648006840F00100AC
:10042000344908600846406834490840314948600A
:1004300008460068324908402E49086008460068AE
:1004400020F4802008600846406820F4FE004860E0
:100450004FF41F008860FFF7DAFF4FF00060294972
:10046000086010BD10B5002100200022214B5B6800
:1004700003F00C0121B1042906D0082928D107E096
:10048000214B224C236027E01F4B204C236023E0AC
:10049000184B5B6803F47010164B5B6803F48032F2
:1004A000022303EB904022B9194B4343174C2360BE
:1004B0000DE0104B5B6803F4003323B1144B43434E
:1004C000124C236003E0104B4343104C236003E0C5
:1004D0000D4B0E4C236000BF00BF064B5B68C3F39F
:1004E00003130C4CE15C094B1B68CB40074C2360A9
:1004F00010BD000000100240002002400000FFF884
:10050000FFFFF6FE08ED00E000127A000800002070
:1005100000093D000C0000200948804709480047B9
:10052000FEE7FEE7FEE7FEE7FEE7FEE7FEE7FEE7A3
:10053000FEE7FEE704480549054A064B7047000000
:10054000170400083101000848080020480E002068
:10055000480A0020480A002031490143314A11600D
:10056000704770B5002100230F22C47804B32D4CCE
:10057000246804F4E064C4F5E064210AC1F10403D2
:10058000CA40447804FA03F18478144021430901F5
:10059000254C0678A155047804F01F050124AC40D1
:1005A00005786D11AD0005F1E025C5F8004109E0C1
:1005B000047804F01F050124AC401C4D0678761128
:1005C00045F8264070BD1A4A0A400243154B1B1FCE
:1005D0001A60704739B1134A121D12680243114B59
:1005E0001B1D1A6006E00F4A121D126882430D4B54
:1005F0001B1D1A607047042808D14FF0E0210969DB
:1006000041F004014FF0E022116107E04FF0E021DA
:10061000096921F004014FF0E022116170470000E8
:100620000000FA050CED00E000E400E080E100E0ED
:1006300080FFFF1F10B50446CC48844208D1012139
:10064000042000F02DFB0021042000F029FB46E0EF
:10065000C748844208D10121082000F021FB002175
:10066000082000F01DFB3AE0C248844208D1012175
:10067000102000F015FB0021102000F011FB2EE0EF
:10068000BD48844208D10121202000F009FB00214F
:10069000202000F005FB22E0B848844208D1012167
:1006A000402000F0FDFA0021402000F0F9FA16E0A9
:1006B000B348844208D10121802000F0F1FA0021E2
:1006C000802000F0EDFA0AE0AE48844207D1012113
:1006D000801500F0E5FA0021A01500F0E1FA10BD48
:1006E00010B50121084600F0DBFA0021012000F0DE
:1006F000D7FA10BD2DE9F041024600250026002062
:1007000000230024002791F803C00CF00F0591F896
:1007100003C00CF0100CBCF1000F03D091F802C024
:100720004CEA050591F800C0BCF1000F31D0146807
:1007300000202BE04FF0010C0CFA00F3B1F800C0E0
:100740000CEA03069E4220D183004FF00F0C0CFAF6
:1007500003F7BC4305FA03FC4CEA040491F803C018
:10076000BCF1280F06D14FF0010C0CFA00FCC2F8C6
:1007700014C00AE091F803C0BCF1480F05D14FF056
:10078000010C0CFA00FCC2F810C0401C0828D1D3A0
:100790001460B1F800C0BCF1FF0F34DD54680020D4
:1007A0002EE000F1080C4FF0010808FA0CF3B1F844
:1007B00000C00CEA03069E4221D183004FF00F0CCB
:1007C0000CFA03F7BC4305FA03FC4CEA040491F865
:1007D00003C0BCF1280F05D100F1080C08FA0CF891
:1007E000C2F8148091F803C0BCF1480F07D100F1A2
:1007F000080C4FF0010808FA0CF8C2F81080401CF1
:100800000828CED35460BDE8F0814FF6FF71018017
:10081000022181700421C170704702460020936854
:100820000B400BB1012000E00020704701468868B2
:1008300080B2704702460020D3680B400BB1012004
:1008400000E0002070470146C86880B2704701612F
:100850007047416170470AB1016100E04161704732
:10086000C16070474FF480320A43826181618261C6
:1008700082698269704702460020434B18684FF630
:100880008073184040EA021008433F4B18607047DD
:100890003E49C8617047F0B50A4600230024002194
:1008A000002500F00046B6F1004F02D1364EF16946
:1008B00001E0354E7168C0F3034583B200F4401681
:1008C000B6F5401F08D121F070612F4E766826F0F2
:1008D00070662D4F7E6012E000F48016B6F5801F22
:1008E00006D1032606FA05F4A14341F0706106E043
:1008F000460D360103FA06F6B14341F0706122B1AC
:10090000460D360103FA06F6314300F00046B6F113
:10091000004F02D11C4EF16101E01B4E7160F0BD31
:1009200030B500228B071C0F0F2303FA04F2164B7D
:1009300008338C1053F824309343134C08348D1033
:1009400044F8253023468C1053F824308C07240FAC
:1009500000FA04F423430C4C08348D1044F825307D
:1009600030BD0A49DC3108607047000000080140D2
:10097000000C01400010014000140140001801402B
:10098000001C014000200140000001400000204206
:10099000DF48006840F00100DD4908600846406813
:1009A000DC490840DA49486008460068DA490840EE
:1009B000D74908600846006820F48020086008468F
:1009C000406820F4FE0048604FF41F0088607047C4
:1009D000CF49096821F48031CD4A11601146096878
:1009E00021F480211160B0F5803F03D0B0F5802F55
:1009F0000ED106E0C649096841F48031C44A11604D
:100A000007E0C349096841F4A021C14A116000E030
:100A100000BF00BF704710B5014600220023002030
:100A20004A11012A02D1BA4C236806E0022A02D1F7
:100A3000B74C236A01E0B64C636A01F01F0201243F
:100A400094401C400CB1012000E0002010BD38B5DE
:100A5000002000900024002500BF3120FFF7DBFFBD
:100A600005460098401C00900098B0F5A06F01D09A
:100A7000002DF2D03120FFF7CEFF08B1012400E0B5
:100A80000024204638BD01460020A14A106820F00D
:100A9000F80040EAC10010607047A0490860704744
:100AA000024600209A4B586820F47C1042EA010369
:100AB0001843974B5860704798490866704701463D
:100AC0000020934A506820F00300084350607047AC
:100AD0008F48406800F00C007047014600208C4AA7
:100AE000506820F0F0000843506070470146002035
:100AF000874A506820F4E060084350607047014620
:100B00000020834A506820F4605040EAC1005060E1
:100B1000704729B17E4A527A02437D4B5A7204E0F3
:100B20007B4A527A82437A4B5A7270477B49D8315A
:100B30000860704701460020754A506820F4404024
:100B40000843506070470021714A20321170704A8A
:100B500082F82010012802D004280AD104E00121E3
:100B60006B4A2032117005E00521694A203211706C
:100B700000E000BF00BF70476949086070476449E2
:100B8000096A0143624A1162704765494439086045
:100B9000704730B500210022002400235C4D6D68B1
:100BA00005F00C0121B1042905D0082923D105E065
:100BB0005C4D056022E05B4D05601FE0544D6D68A3
:100BC00005F47012524D6D6805F48034022505EB72
:100BD00092421CB9544D554305600BE04C4D6D6875
:100BE00005F400351DB1504D5543056002E04D4DF3
:100BF0005543056002E04B4D056000BF00BF444D0A
:100C00006D6805F0F0010909484D6B5C0568DD4031
:100C100045603F4D6D6805F4E061090A434D6B5C2A
:100C20004568DD4085603A4D6D6805F46051C90A3C
:100C30003E4D6B5C4568DD40C560354D6D6805F423
:100C40004041890B3A4D6B5CC568B5FBF3F5056116
:100C500030BD29B12E4A526902432D4B5A6104E03E
:100C60002B4A526982432A4B5A61704729B1284A5C
:100C700092690243264B9A6104E0254A92698243B5
:100C8000234B9A61704729B1214AD2690243204B14
:100C9000DA6104E01E4AD26982431D4BDA61704773
:100CA00029B11B4AD2680243194BDA6004E0184AA2
:100CB000D2688243164BDA60704729B1144A126930
:100CC0000243134B1A6104E0114A12698243104B2C
:100CD0001A61704712494039086070470F49C8646B
:100CE00070470B49C87170470948406A40F08070EE
:100CF00007494862704701460020054A92680A4049
:100D00000AB1012000E00020704701498872704755
:100D1000001002400000FFF8FFFFF6FE0000424214
:100D20008004424200127A0000093D001C000020AD
:100D30002C00002010B50446FB48844209D1012153
:100D40008803FFF7ADFF00214FF48040FFF7A8FFB5
:100D500032E0F648844209D101214804FFF7ADFF93
:100D600000214FF40030FFF7A8FF25E0F04884424F
:100D700009D101218804FFF7A0FF00214FF4802052
:100D8000FFF79BFF18E0EB48844209D10121C8041A
:100D9000FFF793FF00214FF40020FFF78EFF0BE0D9
:100DA000E548844208D101210805FFF786FF0021AC
:100DB0004FF48010FFF781FF10BD2DE9F04786B09A
:100DC00005460E460024A24600BFA1460027B08972
:100DD00000B100BF2F462C8A4CF6FF700440F0880B
:100DE00004432C82AC894EF6F3100440B08831895C
:100DF0000843718908430443AC81AC8A4FF6FF4035
:100E00000440B0890443AC8201A8FFF7C2FEC64883
:100E1000874202D1DDF810A001E0DDF80CA0A8891E
:100E200000F4004040B10AEBCA0000EB0A10316840
:100E30004900B0FBF1F807E00AEBCA0000EB0A102A
:100E400031688900B0FBF1F86420B8FBF0F00401D0
:100E50002009642101FB1089A88900F4004040B1F9
:100E6000322000EBC900B0FBF1F000F007000443B2
:100E700008E0322000EB09106421B0FBF1F000F033
:100E80000F0004432C8106B0BDE8F0874FF41651E3
:100E9000016000218180C18001810C2141810021FC
:100EA0008181704710B502460020108A4FF2FF037F
:100EB00018400B884C8823438C882343CC882343D9
:100EC0001843108210BD0021018041808180C180C3
:100ED000704721B1828942F40052828104E0828904
:100EE0004DF6FF731A4082817047F0B50346002427
:100EF00000260025002040F66A17B94200D100BF45
:100F00001846C1F3421401F01F06012707FA06F53F
:100F1000012C01D10C3004E0022C01D1103000E092
:100F200014301AB107682F43076002E00768AF4327
:100F30000760F0BD1AB1838A0B43838202E0838A83
:100F40008B4383827047028A4FF6F0731A40028205
:100F5000028A0A430282704782894FF2FF731A4065
:100F6000828182890A438281704721B1828942F05D
:100F70000202828104E082894FF6FD731A40828169
:100F80007047028A4FF6DF731A400282028A0A43D0
:100F90000282704721B1028A42F48042028204E058
:100FA000028A4BF6FF731A4002827047C1F30802AF
:100FB0008280704701468888C0F3080070478189A5
:100FC00041F0010181817047028BD2B20283028B12
:100FD00042EA012202837047028B02F47F420283BD
:100FE000028B0A430283704721B1828A42F02002B9
:100FF000828204E0828A4FF6DF731A408282704751
:1010000021B1828A42F01002828204E0828A4FF685
:10101000EF731A408282704721B1828A42F008023F
:10102000828204E0828A4FF6F7731A408282704708
:1010300021B1828942F40042828103E08289C2F3B5
:101040000E028281704721B1828A42F4006282825C
:1010500004E0828A4FF2FF731A4082827047828ACC
:101060004FF6FB731A408282828A0A43828270475B
:1010700021B1828A42F00202828204E0828A4FF623
:10108000FD731A408282704702460020B1F5007F4E
:1010900000D100BF13880B400BB1012000E00020FD
:1010A000704701F40072B2F5007F00D100BFCA435F
:1010B0000280704770B502460024002300250020FE
:1010C00040F66A16B14200D100BFC1F3421501F0EB
:1010D0001F03012606FA03F3012D02D1968933403E
:1010E00006E0022D02D1168A334001E0968A334091
:1010F0000C12012606FA04F41688344013B10CB120
:10110000012000E0002070BD10B50022002340F651
:101110006A14A14200D100BF0A1201249440A3B274
:10112000DC43048010BD0000003801400044004052
:1011300000480040004C00400050004010B50446FC
:10114000FE48844208D10121C014FFF7A9FD002107
:10115000E014FFF7A5FDC4E0B4F1804F08D10121F0
:101160000846FFF7AAFD00210120FFF7A6FDB8E021
:10117000F348844208D101210220FFF79EFD00219F
:101180000220FFF79AFDACE0EE48844208D101212D
:101190000420FFF792FD00210420FFF78EFDA0E060
:1011A000E948844208D101210820FFF786FD00218B
:1011B0000820FFF782FD94E0E448844208D1012131
:1011C0001020FFF77AFD00211020FFF776FD88E060
:1011D000DF48844208D101212020FFF76EFD002165
:1011E0002020FFF76AFD7CE0DA48844208D1012123
:1011F0004014FFF755FD00216014FFF751FD70E02A
:10120000D548844209D10121C804FFF749FD0021D6
:101210004FF40020FFF744FD63E0D048844209D139
:1012200001210805FFF73CFD00214FF48010FFF776
:1012300037FD56E0CA48844209D101214805FFF72D
:101240002FFD00214FF40010FFF72AFD49E0C548AB
:10125000844208D101214020FFF72FFD00214020CA
:10126000FFF72BFD3DE0C048844208D101218020DA
:10127000FFF723FD00218020FFF71FFD31E0BB4871
:10128000844208D101218015FFF717FD0021A01528
:10129000FFF713FD25E0B648844209D10121080477
:1012A000FFF7FEFC00214FF48030FFF7F9FC18E057
:1012B000B048844209D101214804FFF7F1FC002124
:1012C0004FF40030FFF7ECFC0BE0AB48844208D150
:1012D00001218804FFF7E4FC00214FF48020FFF790
:1012E000DFFC10BD00220288944B98420ED0994B2F
:1012F00098420BD0B0F1804F08D0914B984205D066
:10130000904B984202D0904B984204D14FF68F7385
:101310001A404B881A438D4B984207D08C4B984209
:1013200004D04FF6FF431A40CB881A4302808B88C3
:1013300083850B880385814B98420BD0854B98425F
:1013400008D08B4B984205D08A4B984202D08A4BEA
:10135000984201D10B7A038601238382704770B5CE
:10136000002400220023058C4FF6FE7635400584CC
:10137000028C8388048B4FF68F752C40B51E2C4051
:101380000D882C43751E2A400D892A434D882A4317
:101390006A4DA8420BD06F4DA84208D0744DA842A8
:1013A00005D0744DA84202D0734DA84213D14FF618
:1013B000F7752A404D892A434FF6FB752A408D88E0
:1013C0002A434FF6FF652B404FF6FF552B408D8982
:1013D0002B43CD892B4383800483CD88858602846B
:1013E00070BD70B5002400220023058C4FF6EF7607
:1013F00035400584028C8388048B48F6FF752C40A9
:101400004FF6FF452C400D884FF6FF7606EA05257E
:101410002C434FF6DF752A400D8906EA05152A434D
:101420004D8806EA05152A43444DA84202D0494D8D
:10143000A8421DD14FF67F752A404D894FF6FF76A1
:1014400006EA05152A434FF6BF752A408D8806EA3D
:1014500005152A434FF6FF352B404FF2FF752B4001
:101460008D8906EA85052B43CD8906EA85052B4340
:1014700083800483CD880587028470BD70B5002405
:1014800000220023058C4FF6FF6635400584028C50
:101490008388848B4FF68F752C404FF6FC752C405B
:1014A0000D882C434FF6FF552A400D894FF6FF76E5
:1014B00006EA05252A434D8806EA05252A431F4DDD
:1014C000A84202D0234DA8421DD14FF2FF752A40F9
:1014D0004D894FF6FF7606EA05252A434FF6FF357C
:1014E0002A408D8806EA05252A434EF6FF752B40D3
:1014F0004DF6FF752B408D8906EA05152B43CD89E6
:1015000006EA05152B4383808483CD888587028472
:1015100070BD70B5002200230024058C4EF6FF76C6
:1015200035400584038C8488828B48F6FF752A40F9
:101530004FF6FF452A400D8820E00000002C0140B6
:101540000004004000080040000C00400010004073
:101550000014004000340140004C014000500140A4
:101560000054014000180040001C004000200040D2
:101570000040014000440140004801404FF6FF7622
:1015800006EA05252A434DF6FF752B400D8906EA2C
:1015900005352B434D8806EA05352B43FA4DA84205
:1015A00002D0FA4DA84208D14BF6FF752C408D8928
:1015B0004FF6FF7606EA85152C4384808283CD881A
:1015C000A0F84050038470BD828B4FF2FF331A4065
:1015D0008283828B4FF6FF7303EA01231A438283CF
:1015E0007047F0B50C461546002200210026078CF6
:1015F0004EF6FF7C07EA0C070784828B018C4FF6BE
:10160000FF7707EA043640F6FF473A404FF6FF7788
:1016100007EA05273A434FF6FF7707EA03373A43CD
:10162000D94FB8420ED0D94FB8420BD0B0F1804F4D
:1016300008D0D74FB84205D0D64FB84202D0D64FC7
:10164000B84206D14DF6FF77394046F4805739430A
:1016500005E047F6FF57394044F480573943828309
:101660000184F0BD828B4FF6F3731A408283828B24
:101670000A4382837047F0B50C46154600220021CC
:101680000026078C4FF6FF6C07EA0C070784828B55
:10169000018C4FF6FF7707EA04264FF60C773A40A5
:1016A0004FF6FF7707EA03172F433A43B64FB84286
:1016B0000ED0B64FB8420BD0B0F1804F08D0B44F27
:1016C000B84205D0B34FB84202D0B34FB84206D1AA
:1016D0004FF6FF57394046F48077394305E04FF223
:1016E000FF57394044F48077394382830184F0BD49
:1016F000028B4FF2FF331A400283028B4FF6FF73C7
:1017000003EA01231A4302837047F0B50C461546DD
:10171000002200210026078C4FF6EF7C07EA0C0719
:101720000784028B018C4FF6FF7707EA041640F618
:10173000FF473A404FF6FF7707EA03373A434FF641
:10174000FF7707EA05273A438F4FB8420ED08F4FF5
:10175000B8420BD0B0F1804F08D08D4FB84205D0C1
:101760008C4FB84202D08C4FB84206D14FF6DF778B
:10177000394046F01007394305E04FF65F773940AE
:1017800044F01007394302830184F0BD028B4FF609
:10179000F3731A400283028B0A4302837047F0B549
:1017A0000C46154600220021068C4FF6FE773E407F
:1017B0000684028B018C4FF60C7632407E1C06EAC2
:1017C00003162E433243704EB0420ED06F4EB042DD
:1017D0000BD0B0F1804F08D06D4EB04205D06D4EA9
:1017E000B04202D06C4EB04206D14FF6FD76314089
:1017F00044F00106314305E04FF6F576314044F000
:101800000106314302830184F0BD70B505460C46E4
:101810005D4885420ED05D4885420BD0B5F1804FC2
:1018200008D05B48854205D05A48854202D05A48C4
:10183000854200D100E000BF208850B92389A288EA
:1018400061882846FFF7ABFFE1882846FFF79EFF37
:1018500025E0208804280AD12389A28861882846A7
:10186000FFF753FFE1882846FFF742FF17E0208883
:1018700008280AD12389A28861882846FFF7FBFE41
:10188000E1882846FFF7EEFE09E02389A2886188F7
:101890002846FFF7A6FEE1882846FFF795FE70BDB3
:1018A0002DE9F04105460C4600260127608808B95D
:1018B000022600E00026A088012801D1022700E0CE
:1018C00001272088A0B92389A28861882846FFF7CC
:1018D00066FFE1882846FFF759FF23893A463146DB
:1018E0002846FFF712FFE1882846FFF701FF13E0C3
:1018F0002389A28861882846FFF707FFE1882846E8
:10190000FFF7F6FE23893A4631462846FFF747FFA0
:10191000E1882846FFF73AFFBDE8F0810A884B8846
:101920001A438B881A43CB881A430B891A434B8975
:101930001A438B891A43A0F8442070474FF6FF7171
:10194000818000210180C1804180017270470021A7
:10195000018041808180C180018141818181C1817B
:101960007047002101804180012181800021C180D8
:10197000018170470021018041808180C180018107
:101980004181818170470000002C014000340140FA
:101990000004004000080040000C004021B1028813
:1019A00042F00102028004E002884FF6FE731A4002
:1019B0000280704731B1B0F8442042F40042A0F8F0
:1019C000442005E0B0F84420C2F30E02A0F8442001
:1019D00070471AB183890B43838102E083898B436B
:1019E000838170478182704741EA0203A0F8483042
:1019F00070471AB183890B43838102E083898B434B
:101A00008381704701894FF6F87211400181704758
:101A10000A46002101894FF68F7319401143018155
:101A2000704730B504460D4629462046FFF7F0FFC3
:101A3000208940F00700208130BD2DE9F0410446A7
:101A40000D4616461F46602D06D13B460122314603
:101A50002046FFF75AFE05E03B460122314620466C
:101A6000FFF79DFE29462046FFF7D2FF208940F070
:101A700007002081BDE8F08130B50C4600210189C6
:101A8000C9B24FF6FF7505EA0325154325432943DF
:101A9000018130BD2DE9F04105460E4617469846B6
:101AA000002443463A4631462846FFF7E5FF2C8995
:101AB0004FF6F870044044F007044FF68F7004406E
:101AC00044F070042C81BDE8F081F0B504460D4669
:101AD00016461F463B46324629462046FFF7CCFFB6
:101AE000208940F480402081F0BD018582827047CA
:101AF0000A46002101884FF68F7319401143018077
:101B00007047F0B50C4615461E4600210022002302
:101B10000189028B038C4FF6F877394021434FF649
:101B2000FC473A4040F201173A434FF6DD773B401D
:101B30004FF6FF7707EA06172F433B4301810283E5
:101B40000384F0BD0A460021018B4FF68F731940C4
:101B50001143018370470A460021018B48F6FF7349
:101B600019404FF6FF7303EA0223194301837047BC
:101B70000A460021818B4FF68F73194011438183F0
:101B800070470A460021818B48F6FF7319404FF6D3
:101B9000FF7303EA022319438183704721B102884E
:101BA00042F08002028004E002884FF67F731A4000
:101BB0000280704721B1828842F00402828004E0F2
:101BC00082884FF6FB731A408280704721B1828869
:101BD00042F00802828004E082884FF6F7731A40D0
:101BE0008280704721B1828842F00102828004E045
:101BF00082884FF6FE731A40828070470A460021A1
:101C0000018B4FF6F77319401143018370470A4661
:101C10000021018B4FF2FF7319404FF6FF7303EA67
:101C200002231943018370470A460021818B4FF636
:101C3000F77319401143818370470A460021818B55
:101C40004FF2FF7319404FF6FF7303EA0223194363
:101C5000818370470A460021018B4FF6FB731940C0
:101C60001143018370470A460021018B4FF6FF3371
:101C700019404FF6FF7303EA0223194301837047AB
:101C80000A460021818B4FF6FB7319401143818373
:101C900070470A460021818B4FF6FF3319404FF6FB
:101CA000FF7303EA02231943818370470A46002128
:101CB000018B4FF67F7319401143018370470A4629
:101CC0000021018BC1F30E014FF6FF7303EA0223DB
:101CD0001943018370470A460021818B4FF67F73B9
:101CE00019401143818370470A460021818BC1F35B
:101CF0000E014FF6FF7303EA0223194381837047F5
:101D00000A460021018C4FF6FD73194011430184EE
:101D100070470A460021018C4FF6F77319401143B2
:101D2000018470470A460021018C4FF6DF73194089
:101D30004FF6FF7303EA02131943018470470A4602
:101D40000021018C4FF67F7319404FF6FF7303EAB1
:101D500002131943018470470A460021018C4FF693
:101D6000FF5319404FF6FF7303EA0223194301841E
:101D700070470A460021018C4FF2FF7319404FF65D
:101D8000FF7303EA02231943018470470A460021C6
:101D9000018C4DF6FF7319404FF6FF7303EA0233CF
:101DA00019430184704730B5002301248C40A3B24D
:101DB000048C9C430484048C02FA01F5ADB22C43DC
:101DC000048430BD30B5002304248C40A3B2048CBD
:101DD0009C430484048C02FA01F5ADB22C430484C4
:101DE00030BD70B503460020002418461830012588
:101DF0008D40ACB21D8CA5431D8409B1082909D1C1
:101E000000EB6100056825F0700505600568154365
:101E100005600EE00D1FC5F34E052844056825F446
:101E2000E045056005684FF6FF7606EA0226354371
:101E3000056070BD21B1028842F00202028004E018
:101E400002884FF6FD731A400280704721B1028864
:101E500042F00402028004E002884FF6FB731A404D
:101E60000280704721B1828842F08002828004E0C3
:101E700082884FF67F731A408280704702884FF63F
:101E8000F7731A40028002880A43028070478288F2
:101E90004FF68F731A40828082880A43828070478F
:101EA00002894FF6F8731A40028102890A430281BF
:101EB000704702894FF67F731A40028102890A43F4
:101EC00002817047818470478185704781867047A1
:101ED0000187704781877047A0F8401070470288DB
:101EE0004FF6FF431A40028002880A43028070477F
:101EF0000146888E70470146088F70470146888FDB
:101F000070470146B1F8400070470146888C704721
:101F10000146088D704702460020138A0B400BB122
:101F2000012000E000207047CA430282704730B5AC
:101F30000246002000230024158A05EA0103958942
:101F400005EA010413B10CB1012000E0002030BD0E
:101F5000CA4302827047014601EBC1024FF0E02301
:101F60005A6101221A6100229A6100BF4FF0E022FB
:101F7000106900F001021AB100F48032002AF5D095
:101F800000224FF0E0231A619A617047014642F245
:101F900028324A434FF0E0235A6101221A6100229D
:101FA0009A6100BF4FF0E022106900F001021AB1FF
:101FB00000F48032002AF5D000224FF0E0231A61AD
:101FC0009A61704708B501214FF4A070FEF74EFEEC
:101FD0004FF47F40ADF8000001208DF80200102082
:101FE0008DF8030069468748FEF784FB4FF6FF70C3
:101FF000ADF8000001208DF8020010208DF80300DC
:1020000069468148FEF776FB08BD5FE047F6FF7141
:102010007C48FEF725FCC0217B48FEF721FC00240C
:1020200001E0601C84B2B4F5C87FFADB4BF6FF71A7
:102030007448FEF715FCF9217348FEF711FC0024E3
:1020400001E0601C84B2B4F5C87FFADB4DF6FF7185
:102050006C48FEF705FCA4216B48FEF701FC002448
:1020600001E0601C84B2B4F5C87FFADB4EF6FF7164
:102070006448FEF7F5FBB0216348FEF7F1FB00244E
:1020800001E0601C84B2B4F5C87FFADB4FF2FF7147
:102090005C48FEF7E5FB99215B48FEF7E1FB002475
:1020A00001E0601C84B2B4F5C87FFADB4FF6FF3163
:1020B0005448FEF7D5FB92215348FEF7D1FB00248C
:1020C00001E0601C84B2B4F5C87FFADB9EE797E0BC
:1020D0004E4801884B48FEF7C3FB4D4800780A2163
:1020E00090FBF1F04B490D5C29464748FEF7B8FBE1
:1020F000002401E0601C84B2B4F5C87FFADB4348D9
:1021000041884048FEF7ACFB414800780A2190FB2B
:10211000F1F201FB12003F49085C4FF67F7100EAC3
:10212000010529463848FEF79BFB002401E0601CAE
:1021300084B2B4F5C87FFADB344881883148FEF7B1
:102140008FFB354800780A2190FBF1F031490D5C96
:1021500029462D48FEF784FB002401E0601C84B270
:10216000B4F5C87FFADB2948C1882648FEF778FB1A
:10217000294800780A2190FBF1F201FB1200254961
:10218000085C4FF67F7100EA010529461E48FEF7FC
:1021900067FB002401E0601C84B2B4F5C87FFADB61
:1021A0001A4801891748FEF75BFB1C4800780A2192
:1021B00090FBF1F017490D5C29461348FEF750FBE0
:1021C000002401E0601C84B2B4F5C87FFADB0F483C
:1021D00041890C48FEF744FB104800780A2190FB27
:1021E000F1F201FB12000B490D5C29460648FEF78F
:1021F00037FB002401E0601C84B2B4F5C87FFADB31
:1022000066E7000000180140002001403C0000206B
:10221000000000203000002001000020020000200B
:1022200070B504460E4626B12021FA48FEF70FFB92
:1022300003E02021F748FEF70CFB002517E04021C2
:10224000F448FEF706FB04F0800020B18021F1483D
:10225000FEF7FDFA03E08021EE48FEF7FAFA40218E
:10226000EC48FEF7F4FA6006040E681CC5B2082DAF
:10227000E5DB2021E748FEF7EAFA70BD70B50446B9
:102280000D4605F1B001C8B20021FFF7C9FF1021CA
:1022900041EA14100021FFF7C3FF04F00F0141F0E1
:1022A00001000021FFF7BCFF70BD10B500218D209B
:1022B000FFF7B6FF00211420FFF7B2FF0021AF2087
:1022C000FFF7AEFF10BD10B500218D20FFF7A8FF6E
:1022D00000211020FFF7A4FF0021AE20FFF7A0FF90
:1022E00010BD70B5002419E004F1B001C8B200219E
:1022F000FFF796FF00210846FFF792FF002110200C
:10230000FFF78EFF002505E001210020FFF788FF81
:10231000681CC5B2802DF7DB601CC4B2082CE3DB5F
:1023200070BD2DE9F04107460E4690460025002479
:10233000A8F12000C5B27F2F02DD0027B01CC6B275
:1023400031463846FFF79AFF002408E004EB0511F8
:10235000B14A505C0121FFF763FF601CC4B2082C36
:10236000F4DB701CC1B23846FFF788FF002409E097
:1023700004EB05110831A84A505C0121FFF750FF1A
:10238000601CC4B2082CF3DBBDE8F0812DE9F041FC
:1023900004460F46154600260EE0AA5D3946204643
:1023A000FFF7BFFF04F10800C4B2782C02DD00245F
:1023B000B81CC7B2701CC6B2A85D0028EDD1BDE83C
:1023C000F0812DE9F04180460E4615460027314642
:1023D0004046FFF753FF00240AE0904A02EB8511C4
:1023E000085D0121FFF71CFF781CC7B2601CC4B256
:1023F000102CF2DB701CC1B24046FFF73FFF0024F7
:102400000CE06900491C854A02EB4111085D01217D
:10241000FFF706FF781CC7B2601CC4B2102CF0DBBB
:10242000BDE8F0812DE9F04107460E4615463146DC
:102430003846FFF723FF002408E0794A02EB4521E4
:10244000085D0121FFF7ECFE601CC4B2202CF4DB18
:10245000701CC1B23846FFF711FF00240AE0A90042
:10246000491C6F4A02EBC111085D0121FFF7D8FE3C
:10247000601CC4B2202CF2DBB01CC1B23846FFF79E
:10248000FDFE00240AE0A900891C654A02EBC11187
:10249000085D0121FFF7C4FE601CC4B2202CF2DBF2
:1024A000F01CC1B23846FFF7E9FE00240AE0A9009B
:1024B000C91C5B4A02EBC111085D0121FFF7B0FEA8
:1024C000601CC4B2202CF2DBBDE8F08108B501210C
:1024D0002020FEF7CBFBF020ADF8000010208DF897
:1024E000030003208DF8020069464A48FEF702F90E
:1024F0004FF4FC714748FEF7AAF910214548FEF752
:10250000A6F96420FFF742FD10214248FEF7A1F929
:102510006420FFF73BFD10213E48FEF798F90021AB
:10252000AE20FFF77DFE00210846FFF779FE00216F
:102530001020FFF775FE00214020FFF771FE0021FB
:102540008120FFF76DFE0021CF20FFF769FE0021FB
:10255000A120FFF765FE0021C820FFF761FE0021E2
:10256000A620FFF75DFE0021A820FFF759FE0021FD
:102570003F20FFF755FE0021D320FFF751FE002139
:102580000846FFF74DFE0021D520FFF749FE002148
:102590008020FFF745FE0021D920FFF741FE0021F2
:1025A000F120FFF73DFE0021DA20FFF739FE002180
:1025B0001220FFF735FE0021DB20FFF731FE00215E
:1025C0004020FFF72DFE00212020FFF729FE0021EB
:1025D0000220FFF725FE00218D20FFF721FE0021BC
:1025E0001420FFF71DFE0021A420FFF719FE002193
:1025F000A620FFF715FE0021AF20FFF711FE0021F6
:10260000AF20FFF70DFEFFF76CFE00210846FFF735
:1026100035FE08BD001401400E46000848060020A3
:102620004800002010B50024B548006820F4702050
:10263000B34908600846006840F40020086004E0E0
:10264000601CC4B2012000F084F91021AC48FEF7F0
:10265000F1F808B1C82CF3DBC82C01DB012010BD58
:10266000002404E0601CC4B2012000F072F91021C3
:10267000A348FEF7DFF808B9F02CF3DBF02C01DB00
:102680000120ECE70020EAE710B59D48006820F43F
:1026900070209B4908600846006840F4403008609C
:1026A00010219748FEF7D5F840F2EE2000F051F9DE
:1026B00010219348FEF7CBF80F2000F04AF910BD27
:1026C00008B501214020FEF7D1FA1020ADF8000036
:1026D00003208DF8020010208DF803006946884819
:1026E000FEF708F810218648FEF7B1F8FFF7CCFF97
:1026F000FFF798FF08BD70B504468148006820F4D4
:1027000070207F4908600846006840F44030086047
:10271000012522E004F00106641076B1102178480A
:10272000FEF797F8022000F014F910217448FEF724
:102730008EF83C2000F00DF90DE010217048FEF7F6
:1027400088F83C2000F005F910216D48FEF77FF86D
:10275000022000F0FEF8681CC5B2082DDADD70BD5D
:1027600010B56748006820F4702065490860084685
:10277000006840F44030086010216148FEF769F8B5
:10278000022000F0E6F810215D48FEF760F85C4892
:10279000006820F470205A4908600846006840F438
:1027A000002008600C2000F0D4F810215448FEF7F7
:1027B00034F808B1012400E00024322000F0C9F808
:1027C000204610BD70B50026012508E0FFF7C8FFC0
:1027D0000446E00140EA6600C6B2681CC5B2082D96
:1027E000F4DD304670BD10B5FFF74EFFFFF71AFF5E
:1027F000CC20FFF780FF4420FFF77DFF10BD2DE9BF
:10280000F84FFFF7F0FFFFF73FFFFFF70BFFCC207C
:10281000FFF771FFBE20FFF76EFFFFF7D3FF834680
:10282000FFF7D0FF0446072C08DDE043C4B26FEA8F
:102830000B0000F0FF0B4FF0000A01E04FF0010A1F
:10284000A1464FEA09200FFA80F909EB0B000FFAB5
:1028500080F9484601F080FD009001F011FC074628
:102860000022284B01F0D8FA054601F069FA0FFA68
:1028700080F9BAF1000F02D04846BDE8F88FC9F1DF
:10288000000000B2F9E72DE9F04100240025A04640
:10289000FFF7B5FF04460A2094FBF0F6304601F03E
:1028A0005BFD05460A2094FBF0F100FB114738461A
:1028B00001F052FD0646144901F070FC8046414685
:1028C000284601F009FC114908600846006801F03B
:1028D000D7FB064632460B460DA000F0E9F90B483F
:1028E000006801F0CDFB06460022114B01F092FB7F
:1028F00002D200F010F901E000F0EEF8BDE8F0813E
:10290000001801400000E43F00002041C8070020FB
:1029100044535031384232302054656D70657261D5
:1029200074757265203D20252E32660D0A00000068
:1029300000A060401448006840F0807012490860B0
:102940000020124948600846006840F00100086015
:10295000704730B50D4C636800210D4C24680D4D57
:10296000B4FBF5F404FB00F202E0084C6468E11AE1
:102970009142FAD330BD10B504464FF47A7104FB8E
:1029800001F0FFF7E6FF10BDFCED00E0001000E0F5
:102990000800002040420F0000BF704700BF4C4AB3
:1029A000128802F04002002AF9D0C0F30802484B16
:1029B0001B1D1A80704708B525208DF800000C20DB
:1029C0008DF8010000208DF8020001208DF8030031
:1029D0006846FDF7C6FD08BD08B501210420FEF7D5
:1029E00045F94FF40070ADF8000003208DF80200A7
:1029F00018208DF8030069463648FDF77BFE4FF43A
:102A00008060ADF8000004208DF80300694631486D
:102A1000FDF770FE08BD1FB5044601218803FEF7CF
:102A200025F900940020ADF80400ADF80600ADF8DB
:102A30000800ADF80C000C20ADF80A0069462448E7
:102A4000FEF7BBF9012240F225512148FEF74DFA6D
:102A500001211F48FEF73DFA1FBD10B50446204670
:102A6000FFF7D9FFFFF7B8FFFFF7A5FF10BD70B55F
:102A700004460D460026ADB111E000BF14480088A1
:102A800000F080000028F9D080211148FEF709FBF2
:102A900014F8010B0E49091D0880701CC6B2AE4225
:102AA000EBDB13E00FE000BF0948008800F0800076
:102AB0000028F9D080210648FEF7F3FA14F8010B3C
:102AC0000349091D088020780028ECD170BD000062
:102AD00000380140000801404FF480701F494861F0
:102AE000704708B501211020FEF7C0F84FF4807040
:102AF000ADF8000003208DF8020010208DF80300CF
:102B000069461648FDF7F6FDFFF7E6FF08BD10B56C
:102B1000FFF7E7FF10BD10B54FF47A7411E04FF4E2
:102B200080700E4908614FF44870FFF714FA4FF4B3
:102B300080700A494861C820FFF70DFA0120FFF7AD
:102B400025FA201EA4F10104E9D110BD0348C06894
:102B500080F480700149C860704700000010014097
:102B600008B501214FF4A070FEF780F84FF47F40C4
:102B7000ADF8000001208DF8020010208DF8030050
:102B800069462948FDF7B6FD4FF6FF70ADF8000025
:102B900001208DF8020010208DF8030069462348BB
:102BA000FDF7A8FD08BD2DE9F047804620494046C5
:102BB00001F0EAFB814601F0B3FB06464FF47A755B
:102BC00000242DE0A01C1B4A32F810101648FDF717
:102BD00047FE012C0CD196FBF5F01749085C4FF627
:102BE0007F7100EA010949461048FDF739FE08E007
:102BF00096FBF5F0104911F8009049460B48FDF797
:102C00002FFE96FBF5F005FB10660A2095FBF0F50C
:102C1000002700E07F1C44F61F608742FADB641C3B
:102C2000042CCFDBBDE8F0870018014000200140F4
:102C30000000C842DC070020D00700203EB5044653
:102C400001210846FEF71FF8601E80B2ADF80400AF
:102C50004720ADF800000020ADF80600ADF80200F6
:102C600069464FF08040FEF73DFB01221146900778
:102C7000FEF7AFFE01218807FEF790FE3EBD08B5C6
:102C80001C208DF8000000208DF801008DF8020056
:102C900001208DF803006846FDF763FC08BD10B500
:102CA0000446FFF7ECFF2046FFF7C8FF10BD704752
:102CB0000FB4044910B503AA029800F09FFA10BCA3
:102CC0005DF814FBCC0700202DE9F0474FF0000A17
:102CD00089460446C0F820A02046E16888470028BD
:102CE00076D0252806D0D4E901219047206A401CDF
:102CF0002062F1E7E168204600258847C4F81CA05F
:102D000006460027C4F818A02A2E09D0304600F045
:102D1000EDFF38B304EB8708303EC8F8186019E0BF
:102D200059F8041B204604EB87029161E16888474B
:102D3000012F064618D1E069002820DA25F0200589
:102D40001DE0D8F8180000EB800006EB400030389A
:102D5000C8F818002046E1688847064600F0C6FF1C
:102D60000028EED1012F0AD02E2E08D12046E1688E
:102D700088477F1C0646022F45F02005C4DBA0696A
:102D8000002803DA404245F00105A061E80701D0C0
:102D900025F01005B6B1A6F14100192802D8203659
:102DA00045F400654A463146204625604D46FDF70C
:102DB00019FA58B1012806D0ED1D25F0070000F1E1
:102DC000080989E704E005F1040985E730468AE748
:102DD000206ABDE8F08770477047704770477047BA
:102DE0002DE9FF4F0C461E464FF0FF378BB0D2E95E
:102DF0000001DDF860800A908A46C1F30A5505B9E2
:102E00003D46002108464FF00000BAF1000F00F4E3
:102E1000400005DA00EB80004FF4400101EA500069
:102E20004FEA9059B9F1010F00DDB9460A9850EA0E
:102E30004A000ED044F61050A5F2FF3545432F143A
:102E4000B8F1000F1ED07542291E1EDDC9F1000227
:102E50001CE0B8F1010F4FF0000001D0302103E079
:102E6000F24305E02154401CB042FBDB3046002217
:102E7000002121540B99C1F80880C1E900200FB04E
:102E8000BDE8F08FBD1B6D1CDEE74A4600DA6942E3
:102E900006A800F067FA06AB93E8070003AB83E8E7
:102EA000070050460A9900F045FB8DE80700A0F5A1
:102EB00000501F3800900398002D0ADD42F21F01D8
:102EC0004A460844002303A90390684600F0AEFD7B
:102ED00009E0A0F500504A461F38002303A90390DB
:102EE000684600F0B8FD8DE807000004000C03D030
:102EF0004FF0FF30410800E01046B8F1000F03D05A
:102F00000022009215461EE0751E05D400F08CF9D3
:102F1000303262556D1EF9D5B3460122084302D006
:102F200000227F1C04E02078302801D100227F1E7F
:102F3000002A099784D01DE0112D07DA00F074F9FA
:102F4000303262556D1C50EA0102F5D1084302D0BF
:102F50000098C8B10EE00021681E05E0235C625CA9
:102F600063542254401E491C8142F7DBAB46A81B28
:102F7000401E0990002004F80B000B98099AC0F835
:102F80000880C0E9002B7AE711264FF0000857E7C8
:102F90002DE9F04F88460446D21D22F0070191B07A
:102FA000D1E90001CDE90A0100F08CFE02460B9840
:102FB000C00F01D02D2007E02068810701D52B200C
:102FC00002E0202101EAC000032A099001D0072A6B
:102FD00005DB03464146204600F084F90BE12078EA
:102FE000800601D5E06900E00620B8F1650F814652
:102FF00006D0B8F1660F18D0B8F1670F70D131E084
:103000000020B9F1110F009001DB112301E009F15B
:1030100001030AAA01A90CA8FFF7E2FEDDE90C7082
:10302000002609F10105834647E001204B46009048
:103030004FF000470AAA01A90CA8FFF7D1FEDDE96D
:103040000DB00C995D46002610B909F101000D186C
:10305000B9EB050003D4C0F1FF3609F10105A5EB7A
:1030600009002BE0B9F1010F01DA4FF0010900204E
:10307000B9F1110F0090484601DD112300E003462D
:103080000AAA01A90CA8FFF7ABFEDDE90C704D46BA
:1030900000268346207800070AD4AB4500DA5D4657
:1030A00001A8012D04DD411911F8011C302907D0B8
:1030B0004F4502DA17F1040F04DA012082460FE0CF
:1030C0006D1EEEE7002F02DCED1B3E4403E0781C92
:1030D000A84200DD7D1CB81B00F1010A4FF000473B
:1030E0002078000703D4AA4501DB4FF0FF3A002106
:1030F000B7F1004F0DF143088DF8431024D00220A2
:103100002B23002F01DA7F422D230A21021EA0F17A
:10311000010000DC5FB197FBF1FC97FBF1F201FBD2
:103120001C7C17460CF1300C08F801CDEEE7A8F135
:10313000010003702188090501D5452100E06521C2
:10314000A0F1010800F8011C09980FA9A1EB0807DC
:10315000FF1D00B10120411901EBEA70A16938445B
:10316000081A401EA0612078C00602D42046AFF3A2
:103170000080099828B1D4E901219047206A401CB9
:1031800020622078C00622D52046AFF300801EE0E2
:10319000002E04DBB34502DD01A8805D00E0302095
:1031A000D4E901219047206A401C2062761CAAF1D4
:1031B00001005FEA000A0AD100F032F8C068016835
:1031C000405CD4E901219047206A401C2062281EFF
:1031D000A5F10105DCDC07E0D4E9012118F8010BB9
:1031E0009047206A401C2062381EA7F10107F3DCDB
:1031F0002046AFF30080032011B041E6074B70B5C5
:103200000D467B4400F05BF80446284600F01CF9AC
:1032100010B14FF0FF3070BD204670BD97F7FFFF33
:10322000004870470808002030B5B0F10A024FEAA4
:10323000900E71F100034EEA817EB0EB0E0061EB5F
:1032400091014FEA101E4EEA017E10EB0E0041EB99
:1032500011114FEA102E4EEA016E10EB0E0041EBF9
:1032600011214FEA104E4EEA014E10EB0E0041EBD9
:103270001141401841F100014FEAD00040EA41708D
:103280004FEAD10110EB80054FEA810444EA9074C3
:1032900044EB01046D1944EB0404521BA3414FF0AD
:1032A000000348BF0A3200D530BD401C41F1000187
:1032B00030BD000001694A1C02610878704700B502
:1032C0008FB0CDE901310021059105497944CDE95F
:1032D000031011466846FFF7F7FC0FB000BD000071
:1032E000E5FFFFFF2DE9F0411F4604460326016874
:1032F000072A01F4006004DB08B116A505E016A555
:1033000003E008B115A500E015A521F0100020602C
:10331000A069C01EA0610FB1401EA0612046AFF39E
:1033200000804FB1D4E9012138469047206A401C03
:103330002062C01C206206E0206AFAE7D4E901217D
:1033400015F8010B9047761EF8D22046AFF30080A7
:10335000BDE8F0814E414E006E616E00494E460060
:10336000696E66002DE9F047814616468AB03548F9
:1033700078440DC88DE80D0032487844801C03ACB9
:103380000DC884E80D0041F69B300844372190FBBE
:10339000F1F290FBF1F5A5F1800501FB12041B3C55
:1033A00002D56442012000E00020DFF898A08046AA
:1033B0000027FA44AAF1BE0A0EE0E0070AD032461E
:1033C000684607EB470101230AEB810100F043FB4C
:1033D0008DE8070064107F1C002CEED1194F7F444C
:1033E000AE3F19E0E80715D007EB04100DF1180AFD
:1033F00090E80E008AE80E00C068F04201D19819EA
:1034000008903246012306A903A800F024FB03AB71
:1034100083E807006D10641C002DE3D14FF0010319
:1034200032466946B8F1000F03A802D000F0FEFA58
:1034300001E000F010FBC9E90001C9F808200AB05A
:10344000BDE8F08708190000007B00F0800070479D
:1034500000487047E80700207546FFF7F9FFAE46C1
:1034600005006946534620F00700854618B020B590
:10347000FDF760F8BDE820404FF000064FF0000770
:103480004FF000084FF0000B21F00701AC46ACE80C
:10349000C009ACE8C009ACE8C009ACE8C0098D4679
:1034A000704710B50446AFF300802046BDE81040D9
:1034B000FCF7B2BE4FF0013C50F8042B51F8043B2E
:1034C0009A4221D1A2EB0C03934313EACC1317D1F8
:1034D00050F8042B51F8043B9A4215D1A2EB0C038F
:1034E000934313EACC130BD150F8042B51F8043B4F
:1034F0009A4209D1A2EB0C03934313EACC13DBD01D
:103500004FF00000704700BFD01A01BAB1FA81F144
:1035100001F0180122FA01F0CB40C1F12001DBB229
:10352000C0B2C01A2CFA01F3D11A914311EAC311A7
:10353000E6D170475FEA400C08BF91F0000F4FEAF8
:103540008C234FEAC12243EA51514FEA1C5018BF65
:1035500000F5F0404FEA300018BF41F000415FEA4B
:103560006C5C00F02980BCF1FF3F08BF40F0804058
:103570007047130C06BF12044FF0100C4FF0000CF4
:10358000130E04BF12020CF1080C130F04BF12013A
:103590000CF1040C930F04BF92000CF1020CD30F3A
:1035A00004BF52000CF1010C11464FF00002A0F1D3
:1035B0001F00A0EB0C00704711F0004F08BF7047D0
:1035C00031F000413FF4D5AF0B0C06BF09044FF0BA
:1035D000100C4FF0000C0B0E04BF09020CF1080C8C
:1035E0000B0F04BF09010CF1040C8B0F04BF890001
:1035F0000CF1020CCB0F04BF49000CF1010CCCF113
:103600002003A0EB0C0022FA03F302FA0CF241EAC9
:10361000030100F10100704720F07F4C80EA0300B5
:1036200023F07F47ACEB070303F57C5300F0004029
:1036300003F1FF032DE980494FEA154B09B44FEA26
:10364000144325EA0B4E24EA03480FF2042606EB46
:10365000132749083E785FEA320203FB0667C7F585
:10366000000707FB06F64FEA54374FEAD64606F145
:10367000020607FB066CCCF1005C4FEA1C472CEA03
:10368000074C07FB06F40CFB06F504EB15464FEA66
:10369000961634BF00204FF000404FEAD13706FBAA
:1036A00007FC4FEA1C4C0CFB0BF7D21B03FB0CF77F
:1036B00061EB07010CFB0EF7B0EB074072EB174212
:1036C0000CFB08F734BFA2EB0742B2EB074261EBF9
:1036D00017414FEA0C444FEA910706FB07FC4FEAFB
:1036E0001C4C0CFB0BF7B0EBC74072EB573203FBE3
:1036F0000CF734BFA2EBC742B2EBC74261EB5731C4
:103700000CFB0EF7B0EBC70072EB57720CFB08F71F
:1037100034BFA2EBC702B2EBC70261EB5771039F44
:103720004FEA816141EA921104EBCC044FEAD137B0
:103730004FEA826206FB07FC42EA90124FEA806081
:103740004FEA1C4C0CFB0BF7D21B03FB0CF761EB95
:1037500007010CFB0EF7B0EB074072EB17420CFBB6
:1037600008F734BFA2EB0742B2EB074261EB174107
:103770004FEA8C554FEA910704EB9C2406FB07FCAB
:103780004FEA1C4C0CFB0BF7B0EBC74072EB573207
:1037900003FB0CF734BFA2EBC742B2EBC74261EBAD
:1037A00057310CFB0EF7B0EBC70072EB57720CFBF6
:1037B00008F734BFA2EBC702B2EBC70261EB577147
:1037C00015EB4C254FEA816141EA92114FEA826282
:1037D0004FEAD13742EA901206FB07FC44F100049D
:1037E0004FEA80604FEA1C4C0CFB0BF7D21B03FB2B
:1037F0000CF761EB07010CFB0EF7B0EB074072EB27
:1038000017420CFB08F734BFA2EB0742B2EB0742AA
:1038100061EB174115EB1C154FEA813141EA9241EA
:103820004FEA823242EA90424FEA80304FEA0C7609
:1038300044F1000448EA03434EEA0B484FF0000EFF
:10384000B2EB080C71EB030724BF624639464EEB1E
:103850000E0E4FF0000B0018524149414BEB0B0B81
:10386000B2EB080C71EB03077BF1000B24BF62463F
:1038700039464EEB0E0E4FF0000B001852414941F5
:103880004BEB0B0BB2EB080C71EB03077BF1000B5E
:1038900024BF624639464EEB0E0E51EA020718BFAE
:1038A00046F0010616EB0E7655F1000254F10001C8
:1038B00003D5BDE88901BDE80088BDE88901BDE800
:1038C0000048B619524141EB0101A3F101037047D1
:1038D00080807F7E7D7C7B7A79787776767574734D
:1038E000727171706F6E6E6D6C6C6B6A6A6968680C
:1038F000676666656464636362616160605F5F5EA2
:103900005E5D5D5C5C5B5B5A5A5959585857575617
:10391000565555555454535352525251515050507C
:103920004F4F4F4E4E4D4D4D4C4C4C4B4B4B4A4ACE
:103930004A49494948484847474747464646454512
:10394000454444444443434343424242424141414B
:10395000002B9C4630D477002BD01CB54FEA37079C
:1039600003B44FF010004FF01001BAF1000F06D071
:10397000BCF1000FDCBF40F0080040F008014FF040
:1039800000000FBCBDE810400BF1010BBBF1010FB3
:1039900008BF5FEA170722BF12F1010211F101010E
:1039A0004FF0004143F1000300F0004043EA000003
:1039B0007047F9D35708D0E746EA064613F1400F9F
:1039C0004FEA16461FDD13F1200FDFBF16430A46EC
:1039D000002120335B42BED0C3F1200746EA0646F1
:1039E00002FA07F74FEA164646EA0706C3F1200730
:1039F00022FA03F201FA07F721FA03F14FF000036C
:103A000042EA0702A7E746EA020646EA06464FEA06
:103A1000164646EA0106BCBF46EA0646360C4FF09B
:103A200000034FF000024FF0000194E72DE9804CB5
:103A30009A46934670B491E8380007C831EA400CC2
:103A400048BF34EA430C03D5FFF7E6FDFFF780FFDC
:103A5000F0BCBDE8008C2DE9804C9A46934670B4CA
:103A600091E8380007C810F0804F08BF13F0804F6E
:103A700003D100F005F8FFF76BFFF0BCBDE8008C48
:103A800020F07F4780EA030023F07F4C07EB0C0314
:103A9000A3F57C5300F00040A3F1FE0392F0000F69
:103AA00000F0B38095F0000F00F077802DE9014918
:103AB0004FEA11404FEA144621EA004800FB06FC99
:103AC00024EA064708FB06F607FB08F800FB07F7A1
:103AD00018EB06484CEB164C4FEA124B18EB074814
:103AE0004FEA15464CEB174022EA0B4E0BFB06FC47
:103AF00025EA06470EFB06F607FB0EFE0BFB07F753
:103B00001EEB064E4CEB164C4FF000061EEB074E1C
:103B10004CEB174B18EB0B0840F1000018EB0E0BA9
:103B200058EB000840F100008F1A4FF000013CBF35
:103B3000C943661B14BFB5EB040C00213CBFC9434D
:103B4000F61B4FEA17444EEA8E0E27EA04454FEA69
:103B50001C4704FB07622CEA074C05FB07F70CFB2C
:103B600005F604FB0CFC16EB074642EB174216EB7E
:103B70000C4642EB1C421BEB060658EB020241418D
:103B800046EA9E0601D5BDE80189B619524141EBCE
:103B90000101A3F10103BDE801894FEA14454FEA91
:103BA000114724EA054621EA074C05FB07F406FB0A
:103BB00007F70CFB06F105FB0CFC11EB074144EB8E
:103BC00017444FEA124711EB0C4144EB1C4422EA24
:103BD000074C05FB07F206FB07F70CFB06F605FB97
:103BE0000CFC16EB074642EB174216EB0C4642EB79
:103BF0001C456A1854F1000148BF7047B61952417C
:103C000041EB0101A3F10103704795F0000F37D09C
:103C10004FEA11424FEA144721EA024624EA074CD0
:103C200002FB07F106FB07F70CFB06F402FB0CFC9A
:103C300014EB074441EB17414FEA154714EB0C44D2
:103C400041EB1C4125EA074C02FB07F506FB07F791
:103C50000CFB06F602FB0CFC16EB074645EB174582
:103C600016EB0C4645EB1C42121951F1000148BFFE
:103C70007047B619524141EB0101A3F101037047AE
:103C80004FEA14454FEA114724EA054621EA074C5A
:103C900005FB07F106FB07F70CFB06F24FF00006E9
:103CA00005FB0CFC12EB074241EB174112EB0C42F7
:103CB00051EB1C4148BF7047921841EB0101A3F141
:103CC00001037047490050EAC12018BF04204A0D83
:103CD00018BF40F0010040F2FF72B2EB515F08BF25
:103CE00040F00200012808BF0520704730380A283C
:103CF00001D20120704700207047000010B5002954
:103D00000AD00878002807D005487844FFF7D2FB8E
:103D1000002801D0002010BD0248784410BD0000EA
:103D2000AA0F0000A20F0000491058BFC1F1404186
:103D30005B1058BFC3F140438B42EFF300807047E4
:103D40004FEA41034FEA5353A3F58063D3F11E03B7
:103D5000C8BFD3F1210C0CDD4FF0004242EAC12272
:103D600042EA505232FA03FC8CEAE17CACEBE1709F
:103D70007047102BC4BF0020704703F5787CBCF15E
:103D8000FF3F04D06FF0004282EA2100704770B517
:103D900000F0ECF84992248000207047F2E7000020
:103DA00051EA030C17D41CF5801F58BFBCF5801FC7
:103DB00000F10680994218BF704708BF90427047D3
:103DC00007D711F5801F58BF13F5801F19D49942EA
:103DD0007047894270471CF5801F08D5BCF5801FCD
:103DE000F7D58B4218BF704708BF824270474FF427
:103DF000001C1CEB410F38BF1CEB430F01D28B4260
:103E0000704770B500F0B2F8922449004FF00051AD
:103E10004FF08053FFF788BFDFF848C170B51CEA48
:103E2000111E1EBF1CEA13159EEA0C0F95EA0C0F1B
:103E300000F06F8081EA030423EA4C134EEAD47E3B
:103E400021EA4C1141F4801143F48013AE44A1FBEC
:103E5000024CA0FB0365AEF17F7E361955EB0C05D5
:103E6000A1FB034C4CF10003A0FB021C16EB0C065B
:103E7000654153F10003094218BF46F0010613F4EF
:103E8000007F0BD14FEA03314FEA0530340341EA9A
:103E9000155140EA16506FF003020AE04FEAC321C1
:103EA0004FEAC520F40241EA555140EA56506FF0FE
:103EB000020202EB2E4201EB025585EACE710AD0D6
:103EC0005FEA440C18BF24F0004450F1000041F1B7
:103ED000000120EAD47040F2FE7C624500D270BD41
:103EE000A84214BF4FF080444FF04044002E08BF5A
:103EF0000024BEF1806FA8BFA1F1C041BDE87040B1
:103F000080F282804FF0000001F1C04101F00041D9
:103F100070479EEA0C0F0CEA131518BF95EA0C0FB8
:103F200006D04FF0000081EA030E0EF0004170BD94
:103F300000F01CF88900013E00F007B800F009B855
:103F40004FEA430C5FEA5C5C08D081EA030100F0B1
:103F50005BB84FEA410C5FEA5C5CF6D14FF00000C1
:103F6000014970470000FF070000F87F0EF1020EC4
:103F70002EF0030E5EF8046B364205D4012A43EBA3
:103F8000030515F5001F12D8012841EB010C1CF5A3
:103F9000001F0CD80ED14FEAD17C15F5001F0CEB99
:103FA0004C0C0CF1020C08BF4CEBD37C04E04FF03E
:103FB000080C01E04FEAD37C0CEB4C0526FA05F621
:103FC00006F00706B6F1040C06D20EEB860CBDE82F
:103FD00070404CF0010C6047DFE80CF0090B020266
:103FE0004FF000414FF00000A1F5002170BD1946CF
:103FF0001046012851EB010418BFD4F5001484BF0A
:10400000002001F0004170BD0808A0F500114FEA42
:104010003101704753EA010C17D41CF5801F58BFBB
:10402000BCF5801F00F106808B4218BF704708BFA7
:104030008242704707D713F5801F58BF11F5801FC4
:1040400019D48B4270479B4270471CF5801F08D5DE
:10405000BCF5801FF7D5994218BF704708BF904242
:1040600070474FF4001C1CEB430F38BF1CEB410F93
:1040700001D2994270470FB40CBC03BCFFF7C1BE1C
:1040800043004FEAD30C4FEA3C0C43401FBF4007AC
:104090000CF1605113F0FE4F70471CF0006F03D11C
:1040A00000200CF0004170470CF0004343EA5070D0
:1040B00010B540EACC0000F0E8F900BF0000009223
:1040C0004FEA0001FFF7A0BF4FF000414FF00000A2
:1040D000A1F500217047000090EA010F48BF81F070
:1040E000004100F12482421A3CBF801A89184FEA2D
:1040F000D0524FF07F4C1CEA410FA2EBD15318BFB6
:104100009CEA026F00F03B804FF0004C4CEA00202C
:104110004CEA012121FA03FC10EB0C0C1ED202F137
:10412000FF325FEA1C2040EBC25038BF70471CF0E2
:104130007F0F4FEA400C18BFBCF17F4F38BF70476C
:10414000C3F12003994008BF20F00100BCF17F4F6C
:1041500038BF7047A0F1C04000F0DDB94FEA3C0025
:10416000000A40EBC25028BF1CF0FF0F4FEA400C82
:10417000E6D018BFBCF17F4F38BF7047EAE79CEA32
:10418000026F05D010EA5C0F08BF00F000407047D6
:1041900010B500F07AF900BF64FBBE3E4FF47F0C0F
:1041A0001CEAD0121EBF1CEAD11392EA0C0F93EA4C
:1041B0000C0F00F0858090EA010F48BF42F4807236
:1041C00040F4000C41F400002CF07F4120F07F40CF
:1041D00000B58142A2EB03020FF2081CACEB504E7B
:1041E000C0F100009EF800E04FEA4E0E00FB0EFC0E
:1041F00038BF49004FEA2C1C02F5FA020CFB0EF303
:104200004FEACE1E4FEA112C4FEAC1210EEB635E3E
:1042100042EB22420EFB0CFC4FEA1C5300FB031145
:104220004FEA112C4FEA01310EFB0CFC4FEADC4C3B
:1042300000FB0C11C14228BF09184CEB03335DF899
:1042400004EB10EB410143EBC250B2F57C0F38BFD9
:10425000704729D512F0F00F1CBF00F1C04000F0EC
:1042600000407047008182838485868788898B8C93
:104270008D8E8F919293959697999A9C9D9FA0A2CF
:10428000A3A5A7A8AAACAEB0B2B3B5B7B9BCBEC01F
:10429000C2C5C7C9CCCED1D4D7D9DCDFE2E6E9ECC0
:1042A000F0F3F7FAFE0000004FEA400C0CF1807CBE
:1042B000BCF17E4F28BF7047B0F1C04000F02BB971
:1042C00090EA010F0CEAD11348BF42F480726245B4
:1042D00038BF634507D213F47F0F16D080EA010080
:1042E00000F00040704710B500F0CFF8097EFC3EAA
:1042F00000F005B880EA010000F00040704780EA55
:10430000010000F0004000F006B912F47F0F04BF76
:104310000248704780EA010000F0FDB80000C07F4D
:1043200041000B0ED3F19E0208D950F400034FEA6E
:10433000032323FA02F048BF4042704710B500F053
:10434000A4F800BF49922480002070476FF000421B
:1043500082EA20007047000010F0004148BF404250
:10436000B0FA80F310FA03F2C3F19D030BD051EAC7
:10437000C35101EB1220530638BF704700F1010012
:1043800008BF20F0010070474FF47F0C1CEAD012E8
:104390001EBF1CEAD11392EA0C0F93EA0C0F00F037
:1043A000478090EA010F48BF42F480724FF0004C02
:1043B0004CEA00204CEA012102EB0302A0FB0113AE
:1043C000A2F50002002918BF43F001035B0028BFDB
:1043D0004FEA330342EB22425FEA132C4CEBC2500C
:1043E0002EBFBCEB436FB2F57C0F70474FEA036CF6
:1043F000BCF1004F08BF20F00100B2F57C0F38BFC0
:1044000070470BD582F0FF0212F5803FC8BF70479E
:1044100000F1C040D8BF00F00040704700F5000C2C
:104420005FEA4C0C48BF7047B0F1C04000F073B871
:1044300090EA010F0CEAD11348BF42F48072624542
:1044400038BF634504D280EA010000F000407047A5
:1044500010B500F01AF800BF8900013E00F007B85F
:1044600000F009B85FEA410C5FEA1C6C08D080EAF2
:10447000010000F050B85FEA400C5FEA1C6CF6D116
:104480004FF00040A0F5800070470EF1020E2EF0B4
:10449000030E5EF8044B244204D44FEA4102B2F109
:1044A0007F4F11D84FEA4003B3F17F4F0CD80ED1A4
:1044B0004FEAD07CB2F17F4F0CEB4C0C0CF1020CAC
:1044C00008BF4CEBD17C04E04FF0080C01E04FEA50
:1044D000D17C0CEB4C0324FA03F404F00704B4F190
:1044E000040C06D20EEB840CBDE810404CF0010C1D
:1044F0006047DFE80CF0070802024FF00040A0F52B
:10450000800010BD0846420018BFD2F1807288BFFB
:1045100000F0004010BDFF2141EAD050C0057047B7
:1045200090EA010F48BF81F000413FF5DCAD421A2F
:1045300004D882F00042A0EB020011444FEAD052AE
:104540004FF07F4C1CEA410FA2EBD15318BF9CEAFD
:10455000026F4AD04FF0004C4CEA00204CEA012197
:1045600021FA03FCB0EB0C0C0FD412F0FE0F36D086
:104570005FEA4C001DD5001240EBC25038BF7047B7
:104580001CF03F0F18BF70470BE0A2F101025FEA79
:104590001C2040EBC25038BF70471CF07F0F18BF83
:1045A0007047C3F12003994014BF401E20F0010062
:1045B000704780084FEA122308BF7047B0FA80FCAA
:1045C000A2EB0C02CCF1280C60FA0CF093EA122F4B
:1045D00004BF00EBC25070474FEAC3707047130A24
:1045E0005FEADC1008BF7047F6E79CEA026F04D070
:1045F00010EA5C0F08BF0020704710B5FFF745FFB9
:1046000040DFF63E81F000407047FEF7C1BC00007D
:10461000000000000000000000000000000000009A
:1046200000F800000000000000333000000000101F
:104630000C06100C0600000000000000000040C046
:104640007840C0784000043F04043F040400007038
:1046500088FC08300000001820FF211E0000F00830
:10466000F000E018000000211C031E211E0000F0D5
:104670000888700000001E2123241927211010161D
:104680000E0000000000000000000000000000001C
:1046900000E018040200000000071820400000029B
:1046A0000418E0000000004020180700000040400F
:1046B00080F0804040000202010F01020200000071
:1046C00000F0000000000101011F010101000000D5
:1046D00000000000000080B070000000000000003A
:1046E00000000000000000010101010101010000C3
:1046F000000000000000003030000000000000005A
:10470000000080601804006018060100000000E04E
:1047100010080810E000000F102020100F000010FB
:1047200010F8000000000020203F20200000007052
:10473000080808887000003028242221300000304A
:104740000888884830000018202020110E00000042
:10475000C02010F8000000070424243F240000F8C3
:104760000888880808000019212020110E0000E0A8
:10477000108888180000000F112020110E0000384A
:104780000808C83808000000003F00000000007062
:10479000880808887000001C222121221C0000E0EB
:1047A00010080810E0000000312222110F00000064
:1047B00000C0C00000000000003030000000000019
:1047C0000080000000000000806000000000000089
:1047D0008040201008000001020408102000404022
:1047E0004040404040000404040404040400000865
:1047F000102040800000002010080402010000701A
:1048000048080808F0000000003036010000C03001
:10481000C828E810E0000718272423140B00000024
:10482000C038E0000000203C23020227382008F8AE
:10483000888888700000203F202020110E00C030A2
:10484000080808083800071820202010080008F879
:1048500008080810E000203F202020100F0008F872
:104860008888E8081000203F20202320180008F83E
:104870008888E8081000203F200003000000C030B6
:1048800008080838000007182020221E020008F837
:1048900008000008F808203F210101213F200008FE
:1048A00008F8080800000020203F20200000000039
:1048B0000808F8080800C08080807F00000008F821
:1048C00088C028180800203F20012638200008F85A
:1048D000080000000000203F20202020300008F8C1
:1048E000F800F8F80800203F003F003F200008F8DB
:1048F00030C00008F808203F200007183F00E010F3
:1049000008080810E0000F10202020100F0008F801
:1049100008080808F000203F210101010000E01014
:1049200008080810E0000F18242438504F0008F839
:10493000888888887000203F2000030C3020007099
:104940008808080838000038202121221C00180897
:1049500008F8080818000000203F2000000008F8B0
:1049600008000008F808001F202020201F000878F9
:10497000880000C83808000007380E010000F80859
:1049800000F80008F800033C0700073C0300081883
:1049900068808068180820302C03032C30200838E9
:1049A000C800C83808000000203F200000001008A0
:1049B0000808C838080020382621202018000000E8
:1049C00000FE020202000000007F40404000000C98
:1049D00030C000000000000000010638C0000002E6
:1049E0000202FE000000004040407F000000000086
:1049F00004020202040000000000000000000000A9
:104A000000000000000080808080808080800002A4
:104A10000204000000000000000000000000000090
:104A20008080808000000019242222223F2008F884
:104A3000008080000000003F112020110E000000C7
:104A4000008080800000000E112020201100000056
:104A500000808088F800000E112020103F20000008
:104A6000808080800000001F22222222130000800C
:104A700080F0888888180020203F20200000000057
:104A8000808080808000006B94949493600008F88C
:104A9000008080800000203F210000203F20008017
:104AA0009898000000000020203F20200000000017
:104AB00000809898000000C08080807F000008F887
:104AC000000080808000203F24022D30200000085C
:104AD00008F8000000000020203F20200000808017
:104AE000808080808000203F20003F20003F808029
:104AF000008080800000203F210000203F20000037
:104B0000808080800000001F202020201F008080E7
:104B100000808000000080FFA12020110E00000016
:104B2000008080808000000E112020A0FF80808007
:104B300080008080800020203F21200001000000B4
:104B40008080808080000033242424241900008089
:104B500080E0808000000000001F20200000808096
:104B6000000000808000001F202020103F20808057
:104B700080000080808000010E30080601008080E7
:104B80000080008080800F300C030C300F0000800C
:104B90008000808080000020312E0E312000808037
:104BA00080000080808080818E7018060100008067
:104BB0008080808080000021302C22213000000085
:104BC0000000807C020200000000003F4040000026
:104BD0000000FF00000000000000FF0000000002D5
:104BE000027C800000000040403F00000000000602
:104BF00001010202040400000000000000000000A7
:104C000002400000000000A000000000054000007D
:104C1000000000C8000000000C4000000000409CA4
:104C200000000000194000000020BCBE0000000091
:104C300034400000BFC91B8E00000004B5400000D6
:104C4000504BCFD06607E2CF010000006C4100005E
:104C50003E8251AADFEEA73401000000D9420000D5
:104C6000DCB5A0E23A301F97FFFFFFFFB44500001C
:104C7000FD25A0C8E9A3C14FFFFFFFFFFF3F0000D4
:104C80000000008000000000FF3F000000000080E6
:104C900000000000D04C000800000020E8070000E1
:104CA0006C010008844E0008E80700206006000040
:104CB000C80100081C00000043000000F8FFFFFFCF
:104CC0000C0000000E0000000F0000002E0000008D
:104CD0009184A24A04680901020304060708090C2A
:104CE0006910200F02040608C0F9A4B0999282F856
:104CF0008090400DFF7FFFBFFFDFFFEFFFF7FFFB5F
:104D00004A40015BFC4808390904666060402A0893
:104D100001180BC8C8484847484848F8F808190916
:104D20007FC8E848080406DA01613CFFFF88018972
:104D300008016A600B4040203011190C0E07020078
:104D40000A67020204040D193870709A80016CFC25
:104D5000FC880B046B4060403BF808013B0F0F07D9
:104D6000046FF8FC081F1F040404FC7C051B04FCF2
:104D700004431F0F026680500B4040402020101853
:104D80000C07034C3F3020010466303F1059708CF3
:104D900020E0E006056920303020440870C07BFF29
:104DA000FF06056C80E07C188C0F3F1C8006696054
:104DB000180C03017A10018B1F1F060008631010E6
:104DC000181C1C181042E07BFEFE0B01101B3F203C
:104DD000013A3F0602137F3F04C4C44444FC030469
:104DE00013C4C404080C127F7F2826212020272406
:104DF000247F4011180830301090D0789EF20313B1
:104E00009030000F12080C06437F603001060E1B25
:104E10003160201420E0801A06BE19030A1280C0F7
:104E20002F40414740407F031A420901123A600176
:104E30004BFEFE08091140080D11602030180603D2
:104E400003060C30206040080F1170743CB8B0B0FD
:104E5000BEB4B0B0BC367070C01901180848C8C8DC
:104E60007E0A09090A0119200BC0F9A4B09992829F
:104E7000F88090000D00FF7FFFBFFFDFFFEFFFF71F
:044E8000FFFB000034
:0400000508000131BD
:00000001FF
