:020000040800F2
:1000000068940020E90500086D0300086F030008EC
:1000100073030008770300087B030008000000005A
:100020000000000000000000000000001D020008A9
:100030007F0300080000000061020008FD51000875
:10004000030600080306000803060008030600086C
:10005000030600080306000803060008030600085C
:10006000030600080306000803060008030600084C
:10007000030600080306000803060008030600083C
:10008000030600080306000803060008030600082C
:10009000030600080306000803060008030600081C
:1000A000030600080306000803060008030600080C
:1000B000C103000803060008030600080306000841
:1000C00003060008030600080306000803060008EC
:1000D000030600088103000803060008A1030008C6
:1000E00003060008030600080306000803060008CC
:1000F00003060008030600080306000803060008BC
:1001000003060008030600080306000803060008AB
:10011000030600080306000803060008030600089B
:10012000030600080306000803060008030600088B
:1001300000F002F800F062F80AA090E8000C824497
:100140008344AAF10107DA4501D100F057F8AFF274
:10015000090EBAE80F0013F0010F18BFFB1A43F0A5
:1001600001031847D8660000F86600000A444FF003
:10017000000C10F8013B13F0070408BF10F8014B06
:100180001D1108BF10F8015B641E05D010F8016B4B
:10019000641E01F8016BF9D113F0080F1EBF10F8AF
:1001A000014BAD1C0C1B09D16D1E58BF01F801CBD2
:1001B000FAD505E014F8016B01F8016B6D1EF9D555
:1001C0009142D6D37047000000230024002500266A
:1001D000103A28BF78C1FBD8520728BF30C148BFAA
:1001E0000B607047752905F01B82632905F0698350
:1001F000002070471FB51FBD10B510BD05F0FFFBF7
:100200001146FFF7F7FF00F055F805F01DFC03B4A9
:10021000FFF7F2FF03BC02F099FA0000224B1968C5
:100220000868B0E8F00F80F30988BFF36F8F4FF0D4
:10023000000080F311884EF00D0E704700000000A2
:1002400006480068006880F3088862B661B6BFF3AC
:100250004F8FBFF36F8F00DF00BF00BF08ED00E0DE
:10026000EFF30980BFF36F8F0F4B1A6820E9F00F8F
:10027000106008B54FF0500080F31188BFF34F8F26
:10028000BFF36F8F03F06CFE4FF0000080F3118816
:10029000BDE8084019680868B0E8F00F80F30988E5
:1002A000BFF36F8F704700BFE00B0020EFF30580B6
:1002B000704700001FB529A30FCB8DE80F004FF446
:1002C000407000F031FD02F00FFA4FF4E13002F01F
:1002D0009EFA4FF4E13002F053FD02F0DEFA01F035
:1002E00035FF01F0A1FE02F04DFC02F056FB0422A6
:1002F0000021084602F0C1FB05220021142002F073
:10030000BCFB06220021282002F0B7FB07220021B7
:100310003C2002F0B2FB08220021502002F0ADFB8D
:1003200009220021642002F0A8FB032202210820F8
:1003300002F0D4FB04220221302002F0CFFB052280
:100340000221582002F0CAFB6A460621042002F06E
:1003500079FB05F099F8002004B010BD3134313438
:100360003738324071712E636F6D0000704700BFE7
:10037000FEE700BFFEE700BFFEE700BFFEE77047F5
:1003800010B540F225511C4800F0FCFE38B11A4867
:1003900000F078FE04462146184800F06FFE10BDBC
:1003A00010B540F22551154800F0ECFE38B1134865
:1003B00000F068FE044621460F4800F05FFE10BDC5
:1003C00010B50121880701F01AFE78B10C480068C9
:1003D000052806D10B48006801F0D7FF0020084926
:1003E000086007480068401C05490860012188072B
:1003F00001F016FE10BD000000380140004800402A
:1004000004000020580000200CB50020019000904E
:100410006C48006840F480306A49086000BF694851
:10042000006800F4003000900198401C0190009892
:1004300018B90198B0F5A06FF1D16248006800F4D6
:10044000003010B10120009001E0002000900098E1
:10045000012843D15C48006840F010005A49086008
:100460000846006820F0030008600846006840F075
:100470000200086053484068524948600846406896
:1004800048600846406840F480604860084640681C
:1004900020F47C1048600846406840F4E81048604A
:1004A0000846006840F08070086000BF454800685A
:1004B00000F000700028F9D04248406820F00300A6
:1004C000404948600846406840F00200486000BF6C
:1004D0003C48406800F00C000828F9D10CBD10B56C
:1004E000FFF792FF10BD10B53648006840F00100DC
:1004F000344908600846406834490840314948603A
:1005000008460068324908402E49086008460068DD
:1005100020F4802008600846406820F4FE0048600F
:100520004FF41F008860FFF7DAFF4FF000602949A1
:10053000086010BD10B5002100200022214B5B682F
:1005400003F00C0121B1042906D0082928D107E0C5
:10055000214B224C236027E01F4B204C236023E0DB
:10056000184B5B6803F47010164B5B6803F4803221
:10057000022303EB904022B9194B4343174C2360ED
:100580000DE0104B5B6803F4003323B1144B43437D
:10059000124C236003E0104B4343104C236003E0F4
:1005A0000D4B0E4C236000BF00BF064B5B68C3F3CE
:1005B00003130C4CE15C094B1B68CB40074C2360D8
:1005C00010BD000000100240002002400000FFF8B3
:1005D000FFFFF6FE08ED00E000127A0008000020A0
:1005E00000093D000C0000200948804709480047E9
:1005F000FEE7FEE7FEE7FEE7FEE7FEE7FEE7FEE7D3
:10060000FEE7FEE704480549054A064B704700002F
:10061000E704000831010008688E0020689400207B
:10062000689000206890002010B50446CC488442B1
:1006300008D10121042000F02DFB0021042000F04E
:1006400029FB46E0C748844208D10121082000F078
:1006500021FB0021082000F01DFB3AE0C248844243
:1006600008D10121102000F015FB0021102000F01E
:1006700011FB2EE0BD48844208D10121202000F06A
:1006800009FB0021202000F005FB22E0B84884424D
:1006900008D10121402000F0FDFA0021402000F0A7
:1006A000F9FA16E0B348844208D10121802000F015
:1006B000F1FA0021802000F0EDFA0AE0AE48844211
:1006C00007D10121801500F0E5FA0021A01500F006
:1006D000E1FA10BD10B50121084600F0DBFA002157
:1006E000012000F0D7FA10BD2DE9F04102460025A7
:1006F0000026002000230024002791F803C00CF0FE
:100700000F0591F803C00CF0100CBCF1000F03D0E2
:1007100091F802C04CEA050591F800C0BCF1000F49
:1007200031D0146800202BE04FF0010C0CFA00F3DC
:10073000B1F800C00CEA03069E4220D183004FF0BE
:100740000F0C0CFA03F7BC4305FA03FC4CEA040453
:1007500091F803C0BCF1280F06D14FF0010C0CFA40
:1007600000FCC2F814C00AE091F803C0BCF1480FC5
:1007700005D14FF0010C0CFA00FCC2F810C0401C6F
:100780000828D1D31460B1F800C0BCF1FF0F34DDEC
:10079000546800202EE000F1080C4FF0010808FA20
:1007A0000CF3B1F800C00CEA03069E4221D183008D
:1007B0004FF00F0C0CFA03F7BC4305FA03FC4CEAAC
:1007C000040491F803C0BCF1280F05D100F1080C16
:1007D00008FA0CF8C2F8148091F803C0BCF1480F75
:1007E00007D100F1080C4FF0010808FA0CF8C2F824
:1007F0001080401C0828CED35460BDE8F0814FF62D
:10080000FF710180022181700421C170704702468E
:10081000002093680B400BB1012000E000207047DE
:100820000146886880B2704702460020D3680B40BA
:100830000BB1012000E0002070470146C86880B27B
:10084000704701617047416170470AB1016100E082
:1008500041617047C16070474FF480320A43826142
:100860008161826182698269704702460020434B40
:1008700018684FF68073184040EA021008433F4B57
:10088000186070473E49C8617047F0B50A460023BA
:1008900000240021002500F00046B6F1004F02D1EF
:1008A000364EF16901E0354E7168C0F3034583B2FD
:1008B00000F44016B6F5401F08D121F070612F4EAC
:1008C000766826F070662D4F7E6012E000F4801688
:1008D000B6F5801F06D1032606FA05F4A14341F0C0
:1008E000706106E0460D360103FA06F6B14341F0A9
:1008F000706122B1460D360103FA06F6314300F06D
:100900000046B6F1004F02D11C4EF16101E01B4ED2
:100910007160F0BD30B500228B071C0F0F2303FA66
:1009200004F2164B08338C1053F824309343134CC5
:1009300008348D1044F8253023468C1053F82430A9
:100940008C07240F00FA04F423430C4C08348D1058
:1009500044F8253030BD0A49DC310860704700009A
:1009600000080140000C014000100140001401404B
:1009700000180140001C014000200140000001401F
:1009800000002042DF48006840F00100DD490860B7
:1009900008464068DC490840DA4948600846006873
:1009A000DA490840D74908600846006820F48020EA
:1009B00008600846406820F4FE0048604FF41F00BD
:1009C00088607047CF49096821F48031CD4A1160B1
:1009D0001146096821F480211160B0F5803F03D0F1
:1009E000B0F5802F0ED106E0C649096841F4803188
:1009F000C44A116007E0C349096841F4A021C14A13
:100A0000116000E000BF00BF704710B50146002232
:100A1000002300204A11012A02D1BA4C236806E0C3
:100A2000022A02D1B74C236A01E0B64C636A01F096
:100A30001F02012494401C400CB1012000E0002062
:100A400010BD38B5002000900024002500BF3120E3
:100A5000FFF7DBFF05460098401C00900098B0F5BA
:100A6000A06F01D0002DF2D03120FFF7CEFF08B1EA
:100A7000012400E00024204638BD01460020A14AA0
:100A8000106820F0F80040EAC10010607047A049EB
:100A900008607047024600209A4B586820F47C108A
:100AA00042EA01031843974B58607047984908661B
:100AB000704701460020934A506820F00300084325
:100AC000506070478F48406800F00C007047014646
:100AD00000208C4A506820F0F000084350607047B6
:100AE00001460020874A506820F4E06008435060C7
:100AF000704701460020834A506820F4605040EA65
:100B0000C1005060704729B17E4A527A02437D4B42
:100B10005A7204E07B4A527A82437A4B5A72704787
:100B20007B49D8310860704701460020754A5068FB
:100B300020F440400843506070470021714A203241
:100B40001170704A82F82010012802D004280AD1BE
:100B500004E001216B4A2032117005E00521694A49
:100B60002032117000E000BF00BF70476949086083
:100B700070476449096A0143624A116270476549D6
:100B800044390860704730B500210022002400235A
:100B90005C4D6D6805F00C0121B1042905D00829D0
:100BA00023D105E05C4D056022E05B4D05601FE050
:100BB000544D6D6805F47012524D6D6805F4803423
:100BC000022505EB92421CB9544D554305600BE0DC
:100BD0004C4D6D6805F400351DB1504D5543056011
:100BE00002E04D4D5543056002E04B4D056000BFEE
:100BF00000BF444D6D6805F0F0010909484D6B5C7C
:100C00000568DD4045603F4D6D6805F4E061090A07
:100C1000434D6B5C4568DD4085603A4D6D6805F479
:100C20006051C90A3E4D6B5C4568DD40C560354D7D
:100C30006D6805F44041890B3A4D6B5CC568B5FBA6
:100C4000F3F5056130BD29B12E4A526902432D4B9F
:100C50005A6104E02B4A526982432A4B5A61704719
:100C600029B1284A92690243264B9A6104E0254A39
:100C700092698243234B9A61704729B1214AD26914
:100C80000243204BDA6104E01E4AD26982431D4BC5
:100C9000DA61704729B11B4AD2680243194BDA6006
:100CA00004E0184AD2688243164BDA60704729B1D3
:100CB000144A12690243134B1A6104E0114A126983
:100CC0008243104B1A6170471249403908607047DF
:100CD0000F49C86470470B49C87170470948406A9A
:100CE00040F0807007494862704701460020054A7D
:100CF00092680A400AB1012000E0002070470149D3
:100D000088727047001002400000FFF8FFFFF6FEF7
:100D1000000042428004424200127A0000093D0075
:100D20001C0000202C00002031490143314A116091
:100D3000704770B5002100230F22C47804B32D4CF6
:100D4000246804F4E064C4F5E064210AC1F10403FA
:100D5000CA40447804FA03F184781440214309011D
:100D6000254C0678A155047804F01F050124AC40F9
:100D700005786D11AD0005F1E025C5F8004109E0E9
:100D8000047804F01F050124AC401C4D0678761150
:100D900045F8264070BD1A4A0A400243154B1B1FF6
:100DA0001A60704739B1134A121D12680243114B81
:100DB0001B1D1A6006E00F4A121D126882430D4B7C
:100DC0001B1D1A607047042808D14FF0E021096903
:100DD00041F004014FF0E022116107E04FF0E02103
:100DE000096921F004014FF0E02211617047000011
:100DF0000000FA050CED00E000E400E080E100E016
:100E000080FFFF1F10B50446FB48844209D1012131
:100E10008803FFF73FFF00214FF48040FFF73AFFC0
:100E200032E0F648844209D101214804FFF73FFF30
:100E300000214FF40030FFF73AFF25E0F0488442EC
:100E400009D101218804FFF732FF00214FF48020EF
:100E5000FFF72DFF18E0EB48844209D10121C804B7
:100E6000FFF725FF00214FF40020FFF720FF0BE0E4
:100E7000E548844208D101210805FFF718FF002149
:100E80004FF48010FFF713FF10BD2DE9F04786B037
:100E900005460E460024A24600BFA1460027B089A1
:100EA00000B100BF2F462C8A4CF6FF700440F0883A
:100EB00004432C82AC894EF6F3100440B08831898B
:100EC0000843718908430443AC81AC8A4FF6FF4064
:100ED0000440B0890443AC8201A8FFF754FEC64821
:100EE000874202D1DDF810A001E0DDF80CA0A8894E
:100EF00000F4004040B10AEBCA0000EB0A10316870
:100F00004900B0FBF1F807E00AEBCA0000EB0A1059
:100F100031688900B0FBF1F86420B8FBF0F00401FF
:100F20002009642101FB1089A88900F4004040B128
:100F3000322000EBC900B0FBF1F000F007000443E1
:100F400008E0322000EB09106421B0FBF1F000F062
:100F50000F0004432C8106B0BDE8F0874FF4165112
:100F6000016000218180C18001810C21418100212B
:100F70008181704710B502460020108A4FF2FF03AE
:100F800018400B884C8823438C882343CC88234308
:100F90001843108210BD0021018041808180C180F2
:100FA000704721B1828942F40052828104E0828933
:100FB0004DF6FF731A4082817047F0B50346002456
:100FC00000260025002040F66A17B94200D100BF74
:100FD0001846C1F3421401F01F06012707FA06F56F
:100FE000012C01D10C3004E0022C01D1103000E0C2
:100FF00014301AB107682F43076002E00768AF4357
:101000000760F0BD1AB1838A0B43838202E0838AB2
:101010008B4383827047028A4FF6F0731A40028234
:10102000028A0A430282704782894FF2FF731A4094
:10103000828182890A438281704721B1828942F08C
:101040000202828104E082894FF6FD731A40828198
:101050007047028A4FF6DF731A400282028A0A43FF
:101060000282704721B1028A42F48042028204E087
:10107000028A4BF6FF731A4002827047C1F30802DE
:101080008280704701468888C0F3080070478189D4
:1010900041F0010181817047028BD2B20283028B41
:1010A00042EA012202837047028B02F47F420283EC
:1010B000028B0A430283704721B1828A42F02002E8
:1010C000828204E0828A4FF6DF731A408282704780
:1010D00021B1828A42F01002828204E0828A4FF6B5
:1010E000EF731A408282704721B1828A42F008026F
:1010F000828204E0828A4FF6F7731A408282704738
:1011000021B1828942F40042828103E08289C2F3E4
:101110000E028281704721B1828A42F4006282828B
:1011200004E0828A4FF2FF731A4082827047828AFB
:101130004FF6FB731A408282828A0A43828270478A
:1011400021B1828A42F00202828204E0828A4FF652
:10115000FD731A408282704702460020B1F5007F7D
:1011600000D100BF13880B400BB1012000E000202C
:10117000704701F40072B2F5007F00D100BFCA438E
:101180000280704770B5024600240023002500202D
:1011900040F66A16B14200D100BFC1F3421501F01A
:1011A0001F03012606FA03F3012D02D1968933406D
:1011B00006E0022D02D1168A334001E0968A3340C0
:1011C0000C12012606FA04F41688344013B10CB14F
:1011D000012000E0002070BD10B50022002340F681
:1011E0006A14A14200D100BF0A1201249440A3B2A4
:1011F000DC43048010BD0000003801400044004082
:1012000000480040004C00400050004010B504462B
:10121000FE48844208D10121C014FFF73BFD0021A4
:10122000E014FFF737FDC4E0B4F1804F08D101218D
:101230000846FFF73CFD00210120FFF738FDB8E02C
:10124000F348844208D101210220FFF730FD00213C
:101250000220FFF72CFDACE0EE48844208D10121CA
:101260000420FFF724FD00210420FFF720FDA0E06B
:10127000E948844208D101210820FFF718FD002128
:101280000820FFF714FD94E0E448844208D10121CE
:101290001020FFF70CFD00211020FFF708FD88E06B
:1012A000DF48844208D101212020FFF700FD002102
:1012B0002020FFF7FCFC7CE0DA48844208D10121C1
:1012C0004014FFF7E7FC00216014FFF7E3FC70E037
:1012D000D548844209D10121C804FFF7DBFC002175
:1012E0004FF40020FFF7D6FC63E0D048844209D1D8
:1012F00001210805FFF7CEFC00214FF48010FFF715
:10130000C9FC56E0CA48844209D101214805FFF7CB
:10131000C1FC00214FF40010FFF7BCFC49E0C548B8
:10132000844208D101214020FFF7C1FC0021402068
:10133000FFF7BDFC3DE0C048844208D10121802078
:10134000FFF7B5FC00218020FFF7B1FC31E0BB487E
:10135000844208D101218015FFF7A9FC0021A015C6
:10136000FFF7A5FC25E0B648844209D10121080415
:10137000FFF790FC00214FF48030FFF78BFC18E062
:10138000B048844209D101214804FFF783FC0021C1
:101390004FF40030FFF77EFC0BE0AB48844208D1ED
:1013A00001218804FFF776FC00214FF48020FFF72D
:1013B00071FC10BD00220288944B98420ED0994BCC
:1013C00098420BD0B0F1804F08D0914B984205D095
:1013D000904B984202D0904B984204D14FF68F73B5
:1013E0001A404B881A438D4B984207D08C4B984239
:1013F00004D04FF6FF431A40CB881A4302808B88F3
:1014000083850B880385814B98420BD0854B98428E
:1014100008D08B4B984205D08A4B984202D08A4B19
:10142000984201D10B7A038601238382704770B5FD
:10143000002400220023058C4FF6FE7635400584FB
:10144000028C8388048B4FF68F752C40B51E2C4080
:101450000D882C43751E2A400D892A434D882A4346
:101460006A4DA8420BD06F4DA84208D0744DA842D7
:1014700005D0744DA84202D0734DA84213D14FF647
:10148000F7752A404D892A434FF6FB752A408D880F
:101490002A434FF6FF652B404FF6FF552B408D89B1
:1014A0002B43CD892B4383800483CD88858602849A
:1014B00070BD70B5002400220023058C4FF6EF7636
:1014C00035400584028C8388048B48F6FF752C40D8
:1014D0004FF6FF452C400D884FF6FF7606EA0525AE
:1014E0002C434FF6DF752A400D8906EA05152A437D
:1014F0004D8806EA05152A43444DA84202D0494DBD
:10150000A8421DD14FF67F752A404D894FF6FF76D0
:1015100006EA05152A434FF6BF752A408D8806EA6C
:1015200005152A434FF6FF352B404FF2FF752B4030
:101530008D8906EA85052B43CD8906EA85052B436F
:1015400083800483CD880587028470BD70B5002434
:1015500000220023058C4FF6FF6635400584028C7F
:101560008388848B4FF68F752C404FF6FC752C408A
:101570000D882C434FF6FF552A400D894FF6FF7614
:1015800006EA05252A434D8806EA05252A431F4D0C
:10159000A84202D0234DA8421DD14FF2FF752A4028
:1015A0004D894FF6FF7606EA05252A434FF6FF35AB
:1015B0002A408D8806EA05252A434EF6FF752B4002
:1015C0004DF6FF752B408D8906EA05152B43CD8915
:1015D00006EA05152B4383808483CD8885870284A2
:1015E00070BD70B5002200230024058C4EF6FF76F6
:1015F00035400584038C8488828B48F6FF752A4029
:101600004FF6FF452A400D8820E00000002C0140E5
:101610000004004000080040000C004000100040A2
:101620000014004000340140004C014000500140D3
:101630000054014000180040001C00400020004001
:101640000040014000440140004801404FF6FF7651
:1016500006EA05252A434DF6FF752B400D8906EA5B
:1016600005352B434D8806EA05352B43FA4DA84234
:1016700002D0FA4DA84208D14BF6FF752C408D8957
:101680004FF6FF7606EA85152C4384808283CD8849
:10169000A0F84050038470BD828B4FF2FF331A4094
:1016A0008283828B4FF6FF7303EA01231A438283FE
:1016B0007047F0B50C461546002200210026078C25
:1016C0004EF6FF7C07EA0C070784828B018C4FF6ED
:1016D000FF7707EA043640F6FF473A404FF6FF77B8
:1016E00007EA05273A434FF6FF7707EA03373A43FD
:1016F000D94FB8420ED0D94FB8420BD0B0F1804F7D
:1017000008D0D74FB84205D0D64FB84202D0D64FF6
:10171000B84206D14DF6FF77394046F48057394339
:1017200005E047F6FF57394044F480573943828338
:101730000184F0BD828B4FF6F3731A408283828B53
:101740000A4382837047F0B50C46154600220021FB
:101750000026078C4FF6FF6C07EA0C070784828B84
:10176000018C4FF6FF7707EA04264FF60C773A40D4
:101770004FF6FF7707EA03172F433A43B64FB842B5
:101780000ED0B64FB8420BD0B0F1804F08D0B44F56
:10179000B84205D0B34FB84202D0B34FB84206D1D9
:1017A0004FF6FF57394046F48077394305E04FF252
:1017B000FF57394044F48077394382830184F0BD78
:1017C000028B4FF2FF331A400283028B4FF6FF73F6
:1017D00003EA01231A4302837047F0B50C4615460D
:1017E000002200210026078C4FF6EF7C07EA0C0749
:1017F0000784028B018C4FF6FF7707EA041640F648
:10180000FF473A404FF6FF7707EA03373A434FF670
:10181000FF7707EA05273A438F4FB8420ED08F4F24
:10182000B8420BD0B0F1804F08D08D4FB84205D0F0
:101830008C4FB84202D08C4FB84206D14FF6DF77BA
:10184000394046F01007394305E04FF65F773940DD
:1018500044F01007394302830184F0BD028B4FF638
:10186000F3731A400283028B0A4302837047F0B578
:101870000C46154600220021068C4FF6FE773E40AE
:101880000684028B018C4FF60C7632407E1C06EAF1
:1018900003162E433243704EB0420ED06F4EB0420C
:1018A0000BD0B0F1804F08D06D4EB04205D06D4ED8
:1018B000B04202D06C4EB04206D14FF6FD763140B8
:1018C00044F00106314305E04FF6F576314044F02F
:1018D0000106314302830184F0BD70B505460C4614
:1018E0005D4885420ED05D4885420BD0B5F1804FF2
:1018F00008D05B48854205D05A48854202D05A48F4
:10190000854200D100E000BF208850B92389A28819
:1019100061882846FFF7ABFFE1882846FFF79EFF66
:1019200025E0208804280AD12389A28861882846D6
:10193000FFF753FFE1882846FFF742FF17E02088B2
:1019400008280AD12389A28861882846FFF7FBFE70
:10195000E1882846FFF7EEFE09E02389A288618826
:101960002846FFF7A6FEE1882846FFF795FE70BDE2
:101970002DE9F04105460C4600260127608808B98C
:10198000022600E00026A088012801D1022700E0FD
:1019900001272088A0B92389A28861882846FFF7FB
:1019A00066FFE1882846FFF759FF23893A4631460A
:1019B0002846FFF712FFE1882846FFF701FF13E0F2
:1019C0002389A28861882846FFF707FFE188284617
:1019D000FFF7F6FE23893A4631462846FFF747FFD0
:1019E000E1882846FFF73AFFBDE8F0810A884B8876
:1019F0001A438B881A43CB881A430B891A434B89A5
:101A00001A438B891A43A0F8442070474FF6FF71A0
:101A1000818000210180C1804180017270470021D6
:101A2000018041808180C180018141818181C181AA
:101A30007047002101804180012181800021C18007
:101A4000018170470021018041808180C180018136
:101A50004181818170470000002C01400034014029
:101A60000004004000080040000C004021B1028842
:101A700042F00102028004E002884FF6FE731A4031
:101A80000280704731B1B0F8442042F40042A0F81F
:101A9000442005E0B0F84420C2F30E02A0F8442030
:101AA00070471AB183890B43838102E083898B439A
:101AB000838170478182704741EA0203A0F8483071
:101AC00070471AB183890B43838102E083898B437A
:101AD0008381704701894FF6F87211400181704788
:101AE0000A46002101894FF68F7319401143018185
:101AF000704730B504460D4629462046FFF7F0FFF3
:101B0000208940F00700208130BD2DE9F0410446D6
:101B10000D4616461F46602D06D13B460122314632
:101B20002046FFF75AFE05E03B460122314620469B
:101B3000FFF79DFE29462046FFF7D2FF208940F09F
:101B400007002081BDE8F08130B50C4600210189F5
:101B5000C9B24FF6FF7505EA03251543254329430E
:101B6000018130BD2DE9F04105460E4617469846E5
:101B7000002443463A4631462846FFF7E5FF2C89C4
:101B80004FF6F870044044F007044FF68F7004409D
:101B900044F070042C81BDE8F081F0B504460D4698
:101BA00016461F463B46324629462046FFF7CCFFE5
:101BB000208940F480402081F0BD018582827047F9
:101BC0000A46002101884FF68F73194011430180A6
:101BD0007047F0B50C4615461E4600210022002332
:101BE0000189028B038C4FF6F877394021434FF679
:101BF000FC473A4040F201173A434FF6DD773B404D
:101C00004FF6FF7707EA06172F433B430181028314
:101C10000384F0BD0A460021018B4FF68F731940F3
:101C20001143018370470A460021018B48F6FF7378
:101C300019404FF6FF7303EA0223194301837047EB
:101C40000A460021818B4FF68F731940114381831F
:101C500070470A460021818B48F6FF7319404FF602
:101C6000FF7303EA022319438183704721B102887D
:101C700042F08002028004E002884FF67F731A402F
:101C80000280704721B1828842F00402828004E021
:101C900082884FF6FB731A408280704721B1828898
:101CA00042F00802828004E082884FF6F7731A40FF
:101CB0008280704721B1828842F00102828004E074
:101CC00082884FF6FE731A40828070470A460021D0
:101CD000018B4FF6F77319401143018370470A4691
:101CE0000021018B4FF2FF7319404FF6FF7303EA97
:101CF00002231943018370470A460021818B4FF666
:101D0000F77319401143818370470A460021818B84
:101D10004FF2FF7319404FF6FF7303EA0223194392
:101D2000818370470A460021018B4FF6FB731940EF
:101D30001143018370470A460021018B4FF6FF33A0
:101D400019404FF6FF7303EA0223194301837047DA
:101D50000A460021818B4FF6FB73194011438183A2
:101D600070470A460021818B4FF6FF3319404FF62A
:101D7000FF7303EA02231943818370470A46002157
:101D8000018B4FF67F7319401143018370470A4658
:101D90000021018BC1F30E014FF6FF7303EA02230A
:101DA0001943018370470A460021818B4FF67F73E8
:101DB00019401143818370470A460021818BC1F38A
:101DC0000E014FF6FF7303EA022319438183704724
:101DD0000A460021018C4FF6FD731940114301841E
:101DE00070470A460021018C4FF6F77319401143E2
:101DF000018470470A460021018C4FF6DF731940B9
:101E00004FF6FF7303EA02131943018470470A4631
:101E10000021018C4FF67F7319404FF6FF7303EAE0
:101E200002131943018470470A460021018C4FF6C2
:101E3000FF5319404FF6FF7303EA0223194301844D
:101E400070470A460021018C4FF2FF7319404FF68C
:101E5000FF7303EA02231943018470470A460021F5
:101E6000018C4DF6FF7319404FF6FF7303EA0233FE
:101E700019430184704730B5002301248C40A3B27C
:101E8000048C9C430484048C02FA01F5ADB22C430B
:101E9000048430BD30B5002304248C40A3B2048CEC
:101EA0009C430484048C02FA01F5ADB22C430484F3
:101EB00030BD70B5034600200024184618300125B7
:101EC0008D40ACB21D8CA5431D8409B1082909D1F0
:101ED00000EB6100056825F0700505600568154395
:101EE00005600EE00D1FC5F34E052844056825F476
:101EF000E045056005684FF6FF7606EA02263543A1
:101F0000056070BD21B1028842F00202028004E047
:101F100002884FF6FD731A400280704721B1028893
:101F200042F00402028004E002884FF6FB731A407C
:101F30000280704721B1828842F08002828004E0F2
:101F400082884FF67F731A408280704702884FF66E
:101F5000F7731A40028002880A4302807047828821
:101F60004FF68F731A40828082880A4382807047BE
:101F700002894FF6F8731A40028102890A430281EE
:101F8000704702894FF67F731A40028102890A4323
:101F900002817047818470478185704781867047D0
:101FA0000187704781877047A0F84010704702880A
:101FB0004FF6FF431A40028002880A4302807047AE
:101FC0000146888E70470146088F70470146888F0A
:101FD00070470146B1F8400070470146888C704751
:101FE0000146088D704702460020138A0B400BB152
:101FF000012000E000207047CA430282704730B5DC
:102000000246002000230024158A05EA0103958971
:1020100005EA010413B10CB1012000E0002030BD3D
:10202000CA4302827047000008B5FEF75CFA01213E
:102030001020FEF715FE4FF6FF70ADF800000120EE
:102040008DF8020010208DF8030069462248FEF743
:102050004BFB08BD3FE0FE211F48FEF7FBFB4FF4A2
:102060007A7000F056F8FD211B48FEF7F3FB4FF4A1
:102070007A7000F04EF8FB211748FEF7EBFB4FF4A7
:102080007A7000F046F8F7211348FEF7E3FB4FF4AF
:102090007A7000F03EF8EF210F48FEF7DBFB4FF4BB
:1020A0007A7000F036F8DF210B48FEF7D3FB4FF4CF
:1020B0007A7000F02EF8BF210748FEF7CBFB4FF4F3
:1020C0007A7000F026F87F210348FEF7C3FB4FF437
:1020D0007A7000F01EF8BEE700100140014601EBE7
:1020E000C1024FF0E0235A6101221A6100229A6175
:1020F00000BF4FF0E022106900F001021AB100F4B5
:102100008032002AF5D000224FF0E0231A619A6154
:102110007047014642F228324A434FF0E0235A61A9
:1021200001221A6100229A6100BF4FF0E02210697B
:1021300000F001021AB100F48032002AF5D000222A
:102140004FF0E0231A619A617047000008B5012141
:102150004FF4A070FEF784FD4FF47F40ADF800000F
:1021600001208DF8020010208DF803006946A74871
:10217000FEF7BAFA4FF6FF70ADF8000001208DF8B7
:10218000020010208DF803006946A148FEF7ACFA62
:1021900008BD5FE047F6FF719C48FEF75BFBC0217E
:1021A0009B48FEF757FB002401E0601C84B2B4F5A5
:1021B000C87FFADB4BF6FF719448FEF74BFBF92121
:1021C0009348FEF747FB002401E0601C84B2B4F59D
:1021D000C87FFADB4DF6FF718C48FEF73BFBA4216C
:1021E0008B48FEF737FB002401E0601C84B2B4F595
:1021F000C87FFADB4EF6FF718448FEF72BFBB02157
:102200008348FEF727FB002401E0601C84B2B4F58C
:10221000C87FFADB4FF2FF717C48FEF71BFB992168
:102220007B48FEF717FB002401E0601C84B2B4F584
:10223000C87FFADB4FF6FF317448FEF70BFB9221A3
:102240007348FEF707FB002401E0601C84B2B4F57C
:10225000C87FFADB9EE797E06E4801886B48FEF77F
:10226000F9FA6D4800780A2190FBF1F06B490D5C9A
:1022700029466748FEF7EEFA002401E0601C84B2AC
:10228000B4F5C87FFADB634841886048FEF7E2FA9C
:10229000614800780A2190FBF1F201FB12005F49CE
:1022A000085C4FF67F7100EA010529465848FEF7A1
:1022B000D1FA002401E0601C84B2B4F5C87FFADBD7
:1022C000544881885148FEF7C5FA554800780A21DC
:1022D00090FBF1F051490D5C29464D48FEF7BAFAE2
:1022E000002401E0601C84B2B4F5C87FFADB4948E1
:1022F000C1884648FEF7AEFA494800780A2190FBAB
:10230000F1F201FB12004549085C4FF67F7100EACB
:10231000010529463E48FEF79DFA002401E0601CB5
:1023200084B2B4F5C87FFADB3A4801893748FEF732
:1023300091FA3C4800780A2190FBF1F037490D5C96
:1023400029463348FEF786FA002401E0601C84B277
:10235000B4F5C87FFADB2F4841892C48FEF77AFA9A
:10236000304800780A2190FBF1F201FB12002B4962
:102370000D5C29462648FEF76DFA002401E0601C3A
:1023800084B2B4F5C87FFADB66E72DE9F0478046F2
:102390002549404603F018FE814603F0E1FD06465C
:1023A0004FF47A7500242DE0A01C1A4A32F8101060
:1023B0001648FEF74FFA012C0CD196FBF5F01749A1
:1023C000085C4FF67F7100EA010949461048FEF7A4
:1023D00041FA08E096FBF5F0104911F800904946E3
:1023E0000B48FEF737FA96FBF5F005FB10660A205E
:1023F00095FBF0F5002700E07F1C44F61F60874244
:10240000FADB641C042CCFDBBDE8F0870018014028
:10241000002001404C00002000000020400000206F
:1024200001000020020000200000C84210B5002476
:10243000A948006820F47020A74908600846006891
:1024400040F40020086004E0601CC4B2012000F0E9
:102450005AF91021A048FEF7E7F908B1C82CF3DBC0
:10246000C82C01DB012010BD002404E0601CC4B2B4
:10247000012000F048F910219748FEF7D5F908B976
:10248000F02CF3DBF02C01DB0120ECE70020EAE785
:1024900010B59148006820F470208F490860084604
:1024A000006840F44030086010218B48FEF7CBF9FB
:1024B00040F2EE2000F027F910218748FEF7C1F91D
:1024C0000F2000F020F910BD08B501211020FEF703
:1024D000C7FB1020ADF8000003208DF8020010208B
:1024E0008DF8030069467C48FEF7FEF810217A4813
:1024F000FEF7A7F9FFF7CCFFFFF798FF08BD70B50F
:1025000004467548006820F4702073490860084646
:10251000006840F440300860012522E004F0010624
:10252000641076B110216C48FEF78DF9022000F09E
:10253000EAF810216848FEF784F93C2000F0E3F83F
:102540000DE010216448FEF77EF93C2000F0DBF836
:1025500010216148FEF775F9022000F0D4F8681CDC
:10256000C5B2082DDADD70BD10B55B48006820F4F7
:102570007020594908600846006840F440300860FF
:1025800010215548FEF75FF9022000F0BCF8102139
:102590005148FEF756F95048006820F470204E4923
:1025A00008600846006840F4002008600C2000F035
:1025B000AAF810214848FEF72AF908B1012400E0E2
:1025C0000024322000F09FF8204610BD70B5002690
:1025D000012508E0FFF7C8FF0446E00140EA660075
:1025E000C6B2681CC5B2082DF4DD304670BD10B50A
:1025F000FFF74EFFFFF71AFFCC20FFF780FF4420C4
:10260000FFF77DFF10BD2DE9F84FFFF7F0FFFFF753
:102610003FFFFFF70BFFCC20FFF771FFBE20FFF756
:102620006EFFFFF7D3FF8346FFF7D0FF0446072C6A
:1026300008DDE043C4B26FEA0B0000F0FF0B4FF07F
:10264000000A01E04FF0010AA1464FEA09200FFA03
:1026500080F909EB0B000FFA80F9484603F09CFC67
:10266000009003F02DFB074600221C4B03F02AFAD2
:10267000054603F0F7F90FFA80F9BAF1000F02D01E
:102680004846BDE8F88FC9F1000000B2F9E72DE92E
:10269000F041002400250026FFF7B5FF04460A207C
:1026A00094FBF0F7384603F077FC05460A2094FBCC
:1026B000F0F100FB1148404603F06EFC0746084964
:1026C00003F08CFB06463146284603F025FB0549FE
:1026D0000860BDE8F0810000001801400000E43F00
:1026E00000002041580000201448006840F080702D
:1026F000124908600020124948600846006840F00E
:1027000001000860704730B50D4C636800210D4C26
:1027100024680D4DB4FBF5F404FB00F202E0084C14
:102720006468E11A9142FAD330BD10B504464FF403
:102730007A7104FB01F0FFF7E6FF10BDFCED00E04D
:10274000001000E00800002040420F0000BF70476A
:1027500000BF4C4A128802F04002002AF9D0C0F3B0
:102760000802484B1B1D1A80704708B525208DF8BC
:1027700000000C208DF8010000208DF802000120DF
:102780008DF803006846FEF7D4FA08BD08B50121AC
:102790000420FEF765FA4FF40070ADF80000032046
:1027A0008DF8020018208DF8030069463648FDF7C1
:1027B0009BFF4FF48060ADF8000004208DF803000B
:1027C00069463148FDF790FF08BD1FB50446012159
:1027D0008803FEF745FA00940020ADF80400ADF838
:1027E0000600ADF80800ADF80C000C20ADF80A00AA
:1027F00069462448FEF749FB012240F22551214851
:10280000FEF7DBFB01211F48FEF7CBFB1FBD10B518
:1028100004462046FFF7D9FFFFF7B8FFFFF7A5FFF3
:1028200010BD70B504460D460026ADB111E000BFE5
:102830001448008800F080000028F9D08021114859
:10284000FEF797FC14F8010B0E49091D0880701C57
:10285000C6B2AE42EBDB13E00FE000BF09480088D0
:1028600000F080000028F9D080210648FEF781FCA6
:1028700014F8010B0349091D088020780028ECD1C9
:1028800070BD0000003801400008014010B54FF451
:1028900080711048FDF7D5FF10BD08B5012110204B
:1028A000FEF7DEF94FF48070ADF8000003208DF8DC
:1028B000020010208DF8030069460648FDF714FF5A
:1028C000FFF7E4FF08BD10B54FF480710148FDF734
:1028D000BAFF10BD0010014070B504460E4626B187
:1028E0002021FA48FDF7ADFF03E02021F748FDF76E
:1028F000AAFF002517E04021F448FDF7A4FF04F0EB
:10290000800020B18021F148FDF79BFF03E080218A
:10291000EE48FDF798FF4021EC48FDF792FF600676
:10292000040E681CC5B2082DE5DB2021E748FDF741
:1029300088FF70BD70B504460D4605F1B001C8B200
:102940000021FFF7C9FF102141EA14100021FFF711
:10295000C3FF04F00F0141F001000021FFF7BCFFAD
:1029600070BD10B500218D20FFF7B6FF00211420A7
:10297000FFF7B2FF0021AF20FFF7AEFF10BD10B58B
:1029800000218D20FFF7A8FF00211020FFF7A4FFF2
:102990000021AE20FFF7A0FF10BD70B5002419E0A4
:1029A00004F1B001C8B20021FFF796FF00210846EC
:1029B000FFF792FF00211020FFF78EFF002505E0B2
:1029C00001210020FFF788FF681CC5B2802DF7DBCE
:1029D000601CC4B2082CE3DB70BD2DE9F041074652
:1029E0000E46904600250024A8F12000C5B27F2F96
:1029F00002DD0027B01CC6B231463846FFF79AFF09
:102A0000002408E004EB0511B14A505C0121FFF7F6
:102A100063FF601CC4B2082CF4DB701CC1B23846E2
:102A2000FFF788FF002409E004EB05110831A84AEC
:102A3000505C0121FFF750FF601CC4B2082CF3DB8F
:102A4000BDE8F0812DE9F04104460F461546002609
:102A50000EE0AA5D39462046FFF7BFFF04F10800EB
:102A6000C4B2782C02DD0024B81CC7B2701CC6B2F8
:102A7000A85D0028EDD1BDE8F0812DE9F041804648
:102A80000E461546002731464046FFF753FF002407
:102A90000AE0904A02EB8511085D0121FFF71CFF57
:102AA000781CC7B2601CC4B2102CF2DB701CC1B21F
:102AB0004046FFF73FFF00240CE06900491C854AAF
:102AC00002EB4111085D0121FFF706FF781CC7B238
:102AD000601CC4B2102CF0DBBDE8F0812DE9F041A0
:102AE00007460E46154631463846FFF723FF0024B9
:102AF00008E0794A02EB4521085D0121FFF7ECFE71
:102B0000601CC4B2202CF4DB701CC1B23846FFF745
:102B100011FF00240AE0A900491C6F4A02EBC11111
:102B2000085D0121FFF7D8FE601CC4B2202CF2DB47
:102B3000B01CC1B23846FFF7FDFE00240AE0A90030
:102B4000891C654A02EBC111085D0121FFF7C4FE33
:102B5000601CC4B2202CF2DBF01CC1B23846FFF777
:102B6000E9FE00240AE0A900C91C5B4A02EBC1117E
:102B7000085D0121FFF7B0FE601CC4B2202CF2DB1F
:102B8000BDE8F08108B501212020FEF769F8F020AA
:102B9000ADF8000010208DF8030003208DF802002E
:102BA00069464A48FDF7A0FD4FF4FC714748FDF720
:102BB00048FE10214548FDF744FE6420FFF7B5FDAF
:102BC00010214248FDF73FFE6420FFF7AEFD1021C3
:102BD0003E48FDF736FE0021AE20FFF77DFE0021C6
:102BE0000846FFF779FE00211020FFF775FE00214F
:102BF0004020FFF771FE00218120FFF76DFE0021CC
:102C0000CF20FFF769FE0021A120FFF765FE00211C
:102C1000C820FFF761FE0021A620FFF75DFE00211E
:102C2000A820FFF759FE00213F20FFF755FE0021A5
:102C3000D320FFF751FE00210846FFF74DFE00218B
:102C4000D520FFF749FE00218020FFF745FE002137
:102C5000D920FFF741FE0021F120FFF73DFE0021C2
:102C6000DA20FFF739FE00211220FFF735FE0021A0
:102C7000DB20FFF731FE00214020FFF72DFE002171
:102C80002020FFF729FE00210220FFF725FE00216A
:102C90008D20FFF721FE00211420FFF71DFE0021EB
:102CA000A420FFF719FE0021A620FFF715FE002142
:102CB000AF20FFF711FE0021AF20FFF70DFEFFF759
:102CC0006CFE00210846FFF735FE08BD00140140E8
:102CD0004A620008600900206000002008B5272033
:102CE0008DF800000C208DF8010000208DF8020006
:102CF00001208DF803006846FEF71BF808BD08B5F3
:102D000001210820FDF7ACFF4FF48060ADF8000012
:102D100003208DF8020018208DF8030069461D4835
:102D2000FDF7E2FC4FF40060ADF8000004208DF8E0
:102D3000030069461748FDF7D7FC08BD1FB50446D8
:102D400001218804FDF799FF00940020ADF80400EC
:102D5000ADF80600ADF80800ADF80C000C20ADF899
:102D60000A0069460C48FEF790F8012240F225510E
:102D70000948FEF722F901210748FEF712F91FBDA5
:102D800010B504462046FFF7D9FFFFF7B8FFFFF75D
:102D9000A5FF10BD000C01400048004000F10801F3
:102DA00041604FF0FF31816000F10801C1600161B5
:102DB00000210160704700210161704742684A604C
:102DC00093688B60936859609160086103685B1C2D
:102DD0000360704710B502460B685C1C0CB91069A3
:102DE00007E002F1080000E04068446824689C4263
:102DF000FAD944684C604C68A160886041600A61FF
:102E00001468641C146010BD01460A69D1E90130E0
:102E10009860D1E9010358605068884201D1886800
:102E20005060002008611068401E106010687047F4
:102E300070B505460E462C4602F0C3F9D4E90F12D0
:102E4000206801FB020060600020A0632068A06091
:102E5000E06B401E226C216800FB0210E060FF2046
:102E600084F8440084F845009EB9206908B901201F
:102E700000E00020A8B904F1100001F041FB80B18E
:102E80004FF08050FB490860BFF34F8FBFF36F8F47
:102E900007E004F11000FFF781FF04F12400FFF7C1
:102EA0007DFF02F09DF9012070BD2DE9F04106463D
:102EB0000D4617469846069C0DB9246000E0276031
:102EC000E663256401212046FFF7B2FF84F85080B5
:102ED0000020A064BDE8F0812DE9F84307460D46C7
:102EE00090460DB9002601E007FB05F606F15400F7
:102EF00002F005FA044644B104F1540943464A4637
:102F0000294638460094FFF7D0FF2046BDE8F883F5
:102F10002DE9F04104460F4615464FF00008A66B18
:102F2000206C40B9206860BB606801F0EDFB804612
:102F30000020606025E07DB93946226CA06802F06F
:102F4000EEFB216CA0680844A060D4E9011088421F
:102F500017D32068A06014E03946226CE06802F0C4
:102F6000DEFB216CE068401AE0602168E06888427E
:102F700003D2216C6068401AE060022D01D106B1D5
:102F8000761E701CA0634046BDE8F0812DE9F34138
:102F90000D460098846C0027A06BE16B88421BD221
:102FA00094F945602A4669462046FFF7B1FF074677
:102FB000701C60B9606A08B9012000E0002050B9B7
:102FC00004F1240001F09CFA28B1012703E0701CF1
:102FD00040B284F8450000BF3846BDE8FC8170B5BA
:102FE000044602F0EEF894F945501AE0A06C38B1AE
:102FF00000212046FFF7CAFF88B101F015FB0EE063
:10300000606A08B9012000E0002038B904F124000A
:1030100001F076FA18B101F007FB00E003E0681E4A
:1030200045B2002DE2DC00BFFF2084F8450002F02D
:10303000D7F802F0C6F894F9445010E0206908B9B6
:10304000012000E0002048B904F1100001F058FA16
:1030500008B101F0E9FA681E45B200E001E0002D78
:10306000ECDC00BFFF2084F8440002F0B9F870BD2A
:1030700070B5054602F0A5F8A86BE96B884201D14E
:10308000012400E0002402F0ABF8204670BD2DE9D9
:10309000FF4383B0074688461D464FF000093C4673
:1030A00000BF02F08EF8A06BE16B884201D3022DC5
:1030B00038D12A4641462046FFF72AFF0646A06C33
:1030C00068B129462046FFF761FF28B34FF08050D2
:1030D00068490860BFF34F8FBFF36F8F1CE0606AD1
:1030E00008B9012000E0002068B904F1240001F0D3
:1030F00007FA88B14FF080505E490860BFF34F8FE8
:10310000BFF36F8F08E03EB14FF08050594908601F
:10311000BFF34F8FBFF36F8F02F062F8012007B04B
:10312000BDE8F083059818B902F05AF80020F6E7D8
:10313000B9F1000F04D101A801F045FA4FF00109DF
:1031400002F04EF800F0F4FD02F03BF894F9440070
:10315000401C10B9002084F8440094F94500401C3C
:1031600010B9002084F8450002F03AF805A901A83A
:1031700001F030FAF0B92046FFF77AFFA0B104F170
:103180001000059901F061F92046FFF728FF00F0D3
:1031900004FD002885D14FF0805036490860BFF308
:1031A0004F8FBFF36F8F7CE72046FFF718FF00F0CB
:1031B000F4FC76E72046FFF712FF00F0EEFC00205B
:1031C000ADE710B504464CB1002060602060E060BF
:1031D00000231A4619462046FFF759FF10BD2DE976
:1031E000F041044601260027224600210120FFF776
:1031F00073FE05462846FFF7E4FF2846BDE8F08148
:1032000070B50646344601F01EFA616888420CD15A
:10321000E068401EE060E06828B900231A461946BD
:103220002046FFF734FF012500E00025284670BD49
:1032300070B5054601F0C5FFA86B08B9012400E090
:10324000002401F0CDFF204670BD70B504460D4648
:10325000206C70B1216CE0680844E0606168E0684F
:10326000884201D32068E0602846226CE16802F0C1
:1032700056FA70BD04ED00E02DE9FF4782B0054627
:1032800089461E464FF0000A2C4600BF01F099FF08
:10329000D4F83880B8F1000F3BD0E76849462046A3
:1032A000FFF7D3FFDEB9A8F10100A063206810B9D1
:1032B00001F0EEFA6060206908B9012000E000200A
:1032C00008BB04F1100001F01BF9E0B14FF0805091
:1032D000F9490860BFF34F8FBFF36F8F13E0E760CA
:1032E000606A08B9012000E0002060B904F1240000
:1032F00001F006F938B14FF08050EF490860BFF394
:103300004F8FBFF36F8F01F06BFF012006B0BDE858
:10331000F087049818B901F063FF0020F6E7BAF1CE
:10332000000F04D1684601F04EF94FF0010A01F098
:1033300057FF00F0FDFC01F044FF94F94400401CED
:1033400010B9002084F8440094F94500401C10B9DD
:10335000002084F8450001F043FF04A9684601F00D
:1033600039F940BB2046FFF763FFF0B1206830B960
:1033700001F027FF606801F075F901F031FF04F1F9
:103380002400049901F061F82046FFF728FE00F0C0
:1033900004FC00287FF47AAF4FF08050C6490860E3
:1033A000BFF34F8FBFF36F8F70E72046FFF717FE15
:1033B00000F0F3FB6AE72046FFF711FE00F0EDFB9B
:1033C0002046FFF735FF0028EED000209EE72DE9CC
:1033D000F04106460F46344601F035F961688842EF
:1033E00004D1E068401CE06001250AE000233A4671
:1033F00019462046FFF740FF054615B1E068401C1E
:10340000E0602846BDE8F08170B506460D46022210
:1034100000213046FFF760FD044604B1A563204655
:1034200070BD2DE9F05F06468A4615461F463446B4
:1034300000BF5021EFF3118081F31188BFF34F8F4C
:10344000BFF36F8F00BF8146A06BE16B884201D351
:10345000022F2BD194F945B03A4651462046FFF74A
:1034600057FD0BF10100C8B9A06C40B139462046A8
:10347000FFF78CFDB8B1B5B10120286013E0606A98
:1034800008B9012000E0002068B904F1240001F02F
:1034900037F840B13DB10120286004E00BF1010094
:1034A00040B284F845004FF0010801E04FF00008F9
:1034B00000BF89F3118800BF4046BDE8F09F2DE9A9
:1034C000F04706460D46344600BF5021EFF3118009
:1034D00081F31188BFF34F8FBFF36F8F00BF80461A
:1034E000D4F83890E06B484528D994F945A009F103
:1034F0000100A0630AF10100C8B9A06C40B100212D
:103500002046FFF743FDB8B1B5B10120286013E0B4
:10351000606A08B9012000E0002068B904F12400C5
:1035200000F0EEFF40B13DB10120286004E00AF157
:10353000010040B284F84500012700E0002700BFE9
:1035400088F3118800BF3846BDE8F0872DE9F05FA9
:1035500005468A4616462C4600BF5021EFF31180DF
:1035600081F31188BFF34F8FBFF36F8F00BF804689
:10357000D4F83890B9F1000F21D094F944B05146F5
:103580002046FFF762FEA9F10100A0630BF10100E4
:1035900070B9206908B9012000E0002068B904F181
:1035A000100000F0ADFF40B13EB10120306004E0FA
:1035B0000BF1010040B284F84400012700E000272D
:1035C00000BF88F3118800BF3846BDE8F09F2DE9A1
:1035D000F047054689462C4600BF5021EFF3118085
:1035E00081F31188BFF34F8FBFF36F8F00BF074682
:1035F000A06B48B1D4F80C8049462046FFF725FE61
:10360000C4F80C80012600E0002600BF87F3118873
:1036100000BF3046BDE8F08770B5044601F0D1FD2B
:10362000A56B01F0DDFD284670BD70B5044625464A
:1036300001F0C7FDD5E90E10461A01F0D1FD304664
:1036400070BD0146886B7047014600200EE01B4AA2
:1036500002EBC00252688A4207D10022174B43F89E
:10366000302003EBC0035A6002E0401C0828EED370
:1036700000BF704770B5044625462846FFF7E4FFB3
:10368000284601F09AFE70BD0146C86C7047C164BF
:103690007047014691F85000704701468A6B0AB99D
:1036A000012000E00020704701468A6BCB6B9A42F4
:1036B00006D1012005E0000004ED00E04C0C0020E4
:1036C00000207047024600200BE04A4B53F8303090
:1036D00033B9484B43F8301003EBC0035A6002E0A3
:1036E000401C0828F1D300BF70470246002000218B
:1036F0000AE0404B03EBC1035B68934203D13D4BAF
:1037000053F8310002E0491C0829F2D300BF70478A
:103710002DE9F04105460E4617462C4601F051FDB5
:1037200094F94400401C10B9002084F8440094F936
:103730004500401C10B9002084F8450001F050FD00
:10374000A06B28B93A46314604F1240000F0C6FEC9
:103750002046FFF744FCBDE8F08170B50446002226
:1037600004212046FFF7B8FB0546284670BD70B51A
:1037700004460E4601F025FDA06C08B1002505E0C9
:10378000A06B08B1002501E0A664012501F028FD29
:10379000284670BD2DE9F04105460F462E46B06C17
:1037A000B84201D000240AE0B06B08B1002406E062
:1037B00001F007FD0020B06401F012FD0124204655
:1037C000BDE8F08138B505460C4600200090002386
:1037D000224669462846FFF74FFD009838BD38B5A8
:1037E000044600200090002269462046FFF7AEFE06
:1037F000009838BD4C0C002010B5002407E004EB05
:103800008401FE4A02EB8100FFF7C8FA641C0C2C0D
:10381000F5D3FB48FFF7C2FAFA48FFF7BFFAFA48B8
:10382000FFF7BCFAF948FFF7B9FAF948FFF7B6FA1B
:10383000F348F8490860F348F749086010BD10B52F
:10384000044601F0BEFCF5480068401CF3490860DE
:10385000F348006840B9F24804600846006801284F
:103860000DD1FFF7C9FF0AE0EE48006838B9EC480F
:103870000068C06AE16A884201D8E9480460EA4801
:103880000068401CE849086008460068606494F8D5
:103890002C1001208840E54909680843E349086085
:1038A000E16A01EB8101D54A02EB8100211DFFF79E
:1038B00085FA01F095FCDB48006868B1D8480068DB
:1038C000C06AE16A884207D24FF08050D849086048
:1038D000BFF34F8FBFF36F8F10BD2DE9F05F8146AF
:1038E0000F4690469A460A9E0C9C4FEA8801A522F4
:1038F000206B01F059FFA8F10100216B01EB800B57
:103900002BF0070B002507E0795D04F134004155E9
:10391000785D00B902E06D1C102DF5D300BF0021C9
:10392000432001550C2E00D30B26E662E6640020EE
:103930002065201DFFF73FFA04F11800FFF73BFA5E
:103940002461C6F10C00A06164620020606584F807
:10395000580052464946584601F001FC20600B9839
:1039600008B10B980460BDE8F09F2DE9FF4F85B0CA
:10397000804689461746DDE912ABB80001F0BFFC6E
:10398000064656B15C2001F0BAFC04460CB1266331
:1039900004E0304601F011FD00E000247CB100207D
:1039A000CDE900ABCDE902403A4649464046089B86
:1039B000FFF793FF2046FFF742FF012501E04FF09C
:1039C000FF35284609B0BDE8F08F924909680968BB
:1039D00009B9012100E0002121B14FF0FF31954AE2
:1039E000116006E08B490968C968C868914A416856
:1039F0001160704710B50446206B01F0DEFC2046D4
:103A000001F0DBFC10BD70B5054601F0DAFB15B91D
:103A10008348006800E028460446201DFFF7F4F9BB
:103A200078B9E06A00EB8000744951F8200040B991
:103A300094F82C10012088407C49096881437B4818
:103A40000160A06A18B104F11800FFF7DDF97648AB
:103A50000068401C7449086071480068844209D1BC
:103A6000211D6A48FFF7AAF973480068401C724993
:103A7000086009E069480068401E684908602046FF
:103A8000FFF7B8FFFFF7A1FF01F0AAFB6548006848
:103A900058B163480068844207D14FF080506449B0
:103AA0000860BFF34F8FBFF36F8F70BD2DE9F041FA
:103AB000002762480068002863D161480068451CFF
:103AC0005F4805608DB95348D0F8008052480068BF
:103AD000504908605048C0F800805A480068401CAF
:103AE00058490860FFF771FF00BF524800688542DF
:103AF0003BD300BF47480068006808B9012000E0D8
:103B0000002020B14FF0FF304A4908602CE04148C6
:103B10000068C068C4686668B54202D2454806605D
:103B200022E0201DFFF770F9A06A18B104F1180017
:103B3000FFF76AF994F82C10012088403B49096886
:103B400008433A490860E16A01EB81012B4A02EB24
:103B50008100211DFFF732F93149E06A0968C96A1D
:103B60008842C7D30127C5E700BF2D480068C06A57
:103B700000EB8000214951F82000012800D90127DD
:103B800004E031480068401C2F4908602F48006855
:103B900000B101273846BDE8F08170B50024002649
:103BA00001F00FFB25480068401E244908600846C4
:103BB000006800287AD119480068002876D04FE0C4
:103BC0001148C068C46804F11800FFF71DF9201DF2
:103BD000FFF71AF994F82C1001208840134909685E
:103BE000084312490860E16A01EB8101034A02EBD4
:103BF0008100211DFFF7E2F8094929E08C0C002023
:103C00007C0D0020900D0020A40D0020B80D002098
:103C1000CC0D0020E40B0020E80B0020F00B00206E
:103C2000E00B0020FC0B00200C0C0020F80B002007
:103C300004ED00E0100C0020EC0B0020180C00201C
:103C4000F40B0020080C0020000C0020040C0020C5
:103C5000E06A0968C96A884202D30120FA4908600B
:103C6000FA48006808B9012000E000200028A7D029
:103C70000CB1FFF7AAFEF648056865B100BFFFF773
:103C800015FF10B10120F04908606D1E002DF6D11E
:103C90000020EF490860EC48006838B10126300781
:103CA000EC490860BFF34F8FBFF36F8F01F098FAB4
:103CB000304670BD2DE9F04105460E46E6480768DE
:103CC000E6480068001DFFF79FF850B9E348006818
:103CD00090F82C1001208840E14909688143E048B0
:103CE0000160681C38B936B1DC480168091DDD483F
:103CF000FFF764F81AE07C19D84800684460BC42B9
:103D000007D2D6480168091DD7480068FFF762F856
:103D10000CE0D2480168091DD4480068FFF75AF842
:103D2000D3480068844201D2D1480460BDE8F081E4
:103D3000D0480068401CCF49086070472DE9F04723
:103D4000044688464FF00009FFF7F2FFC2480668B4
:103D5000206800EB08052068B04207D92068A84217
:103D60000BD9B54209D94FF0010906E02068A842F5
:103D700001D8B54201D94FF001092560B9F1000F12
:103D800003D0A81B0021FFF795FFFFF706FF0746AA
:103D90003FB94FF08050AF490860BFF34F8FBFF37A
:103DA0006F8FBDE8F08770B50446002544B1FFF77A
:103DB000BFFF00212046FFF77DFFFFF7EEFE05461F
:103DC0003DB94FF08050A3490860BFF34F8FBFF358
:103DD0006F8F70BD2DE9F041064637469F48006859
:103DE000874201D100241EE001F0EBF97D6901F06A
:103DF000F7F99E480068854203D09B4800688542D9
:103E000001D102240FE09748854205D1B86A08B96C
:103E1000032408E0022406E09748854200D00DB94B
:103E2000042400E001242046BDE8F08170B504467A
:103E300001F0C7F914B98948006800E02046064639
:103E4000F56A01F0CDF9284670BD70B5024600BF95
:103E50005025EFF3118485F31188BFF34F8FBFF323
:103E60006F8F00BF214612B97C4C246800E01446D5
:103E70002346D86A00BF81F3118800BF70BD2DE9C9
:103E8000F04780460D464FF000090C2D00D30B255E
:103E900001F097F9B8F1000F02D17048006800E016
:103EA00040460446E66CAE4256D0B5420BD96B484C
:103EB000006884420DD069480068C06AA84208D8EA
:103EC0004FF0010905E065480068844201D14FF0D8
:103ED0000109E76AE16AE06C884200D1E562E564C5
:103EE000A06900F0004010B9C5F10C00A06107EB1B
:103EF0008701624A02EB81016069884201D1012099
:103F000000E00020E0B1201DFEF77EFF30B9012067
:103F1000B8405349096881435148016094F82C1016
:103F2000012088404E49096808434D490860E16A0C
:103F300001EB8101514A02EB8100211DFEF73EFF9A
:103F4000B9F1000F07D04FF0805042490860BFF32D
:103F50004F8FBFF36F8F00BF01F042F9BDE8F087CC
:103F60004448006818B10120374908601DE000206E
:103F7000354908603A480068B0FA80F0C0F11F0186
:103F800001EB81023D4B03EB8200426852684260C4
:103F900000F108024368934202D1426852684260CD
:103FA0004268D2682D4B1A6000BF704770B5054655
:103FB00001F007F915B92948006800E028460446D1
:103FC000201DFEF721FF78B9E06A00EB80002B4945
:103FD00051F8200040B994F82C1001208840204965
:103FE000096881431E480160A06A18B104F11800F5
:103FF000FEF70AFF211D1B48FEF7E0FE01F0F0F876
:104000001F48006828B101F0DCF8FFF7DEFC01F082
:10401000E7F812480068844238D11948006840B176
:104020004FF080500B490860BFF34F8FBFF36F8F85
:104030002CE00C48006813490968884224D100200C
:104040000649086022E00000040C0020A40D0020B6
:10405000000C002004ED00E0F40B0020E00B002039
:10406000F80B0020CC0D0020E80B0020E40B002012
:10407000100C0020180C0020B80D00208C0C002023
:10408000FC0B0020F00B0020FFF76AFF70BD10B59D
:10409000014600200A46FE4C5369A34201D1012388
:1040A00000E0002373B1FB4C936AA34201D10123CA
:1040B00000E0002333B9936A0BB9012300E0002329
:1040C00003B1012010BD70B505462C4674B3F2480B
:1040D000006884422AD001F074F82046FFF7D7FF29
:1040E00010B3201DFEF790FE94F82C10012088409C
:1040F000EA4909680843E9490860E16A01EB81017E
:10410000E74A02EB8100211DFEF758FEE249E06A12
:104110000968C96A884207D34FF08050E1490860B6
:10412000BFF34F8FBFF36F8F01F05AF870BD2DE9C9
:10413000F04106460027344600BF5021EFF31180BE
:1041400081F31188BFF34F8FBFF36F8F00BF054618
:104150002046FFF79CFF20B3D3480068E0B9CE4962
:10416000E06A0968C96A884200D30127201DFEF76A
:104170004BFE94F82C1001208840C8490968084378
:10418000C6490860E16A01EB8101C54A02EB810082
:10419000211DFEF713FE04E004F11801BD48FEF7EF
:1041A0000DFE00BF85F3118800BF3846BDE8F081E1
:1041B00070B523E0FFF7BCFDBC48006808B90120DA
:1041C00000E000200546FFF7E8FCBDB900F0F9FF6C
:1041D000B648C068C468201DFEF716FEB4480068E3
:1041E000401EB3490860B3480068401EB1490860EA
:1041F00000F0F6FF2046FFF7FDFB00BFAD4800686A
:104200000028D7D170BD00BFFFF7D2FFA4480068D7
:104210000128F9D94FF08050A2490860BFF34F8FB1
:10422000BFF36F8FF0E71CB5A34800210B46822235
:10423000CDE90010A1A1A348FFF797FB0446012C8C
:1042400002D100F0BCFE0446012C14D100BF502066
:1042500080F31188BFF34F8FBFF36F8F00BF4FF014
:10426000FF3099490860012098490860002098496A
:10427000086000F090FF1CBD10B500BF502080F317
:104280001188BFF34F8FBFF36F8F00BF00208F499E
:10429000086000F095FF10BD8D4908687047002147
:1042A0008B4A10687047824800687047014611B910
:1042B0007948006800E00846024602F13400704781
:1042C0000246002101E0521C491C1078A528FAD0B2
:1042D000890888B270472DE9F04107460C469046A0
:1042E0001E4617B96C48006800E038460546256050
:1042F00005F134006060E86A2061286BE061686C59
:10430000A060207B032807D1FFF712FDA86A08B13F
:1043100002202073FFF741FCE86C60610020A0617F
:10432000052E01D0267303E03846FFF753FD2073B6
:10433000B8F1000F04D0286BFFF7C2FF208401E022
:1043400000202084BDE8F0812DE9F04707460C46A7
:1043500090460026206848B320464168496841607D
:1043600000F1080142688A4202D14168496841600F
:104370004168D1F80C9000BF20464168496841600F
:1043800000F1080142688A4202D1416849684160EF
:104390004168CD6806EBC60007EB80014346012269
:1043A0002846FFF798FF761C4D45E5D13046BDE81D
:1043B000F0872DE9F04105468846164600240C2773
:1043C000FFF7B6FC3A480068804539D300BF7F1E2E
:1043D00007EB8702324B03EB820104EBC40205EBCF
:1043E00082000122FFF7B0FF0444002FEFD104EB5D
:1043F000C40105EB8100022236490968FFF7A4FFDA
:10440000044404EBC40105EB81000222324909682F
:10441000FFF79AFF044404EBC40105EB810004227A
:104420002249FFF791FF044404EBC40105EB81002E
:1044300003221749FFF788FF04440EB100203060C3
:10444000FFF7ABFB2046BDE8F08170B505460C4692
:104450001148016818312846FEF7BCFC01212046AE
:10446000FFF728FC70BD70B506460C46154644F0B3
:1044700000400949096888610748016818313046D9
:10448000FEF79CFC01212846FFF714FC70BD0000DC
:10449000CC0D0020A40D0020E00B0020F80B002024
:1044A0008C0C002004ED00E0180C0020B80D00205A
:1044B000F00B0020EC0B0020140C002049444C456C
:1044C0000000000007420008100C0020FC0B002038
:1044D000F40B0020E40B0020E80B002070B506462A
:1044E0000D461446FE48016818313046FEF766FC5A
:1044F0000CB14FF0FF3521462846FFF7DBFB70BDBE
:1045000070B50646F068C46804F11800FEF77CFC3C
:10451000F4480068A8B9201DFEF776FC94F82C102A
:1045200001208840F04909680843EF490860E16AC2
:1045300001EB8101ED4A02EB8100211DFEF73EFCFB
:1045400004E004F11801EA48FEF738FCE449E06AA7
:104550000968C96A884204D901250120E549086033
:1045600000E00025284670BD2DE9F04105460F46C4
:1045700047F000402860EC682846FEF745FC201D07
:10458000FEF742FC94F82C1001208840D6490968B7
:104590000843D5490860E16A01EB8101D34A02EB87
:1045A0008100211DFEF70AFCCD49E06A0968C96A4D
:1045B000884204D901260120CE49086000E0002687
:1045C0003046BDE8F081CC4909680160CB490968F3
:1045D0004160704770B504460D4600F0F2FDC748D3
:1045E00002682868401C08B9002619E0C249206802
:1045F0000968884204D06068904201D801260FE023
:104600006068101A2968884209D228686168511ABE
:10461000401A28602046FFF7D6FF002600E001265A
:1046200000F0DEFD304670BD0120B24908607047E1
:10463000014611B10A46906C00E00020704708B1B5
:10464000024691647047A64908687047AC490968FA
:1046500009B9012005E0A349096809B9022000E071
:104660000020704770B505462C46002D4BD09C4964
:10467000E06A0968C96A884245D2A06900F0004032
:1046800028B997480068C06AC0F10C00A061E16ACF
:1046900001EB8101954A02EB81016069884201D1F9
:1046A000012000E0002050B3201DFEF7ADFB78B9DB
:1046B000E06A00EB80008D4951F8200040B994F881
:1046C0002C10012088408849096881438648016090
:1046D00083480068C06AE06294F82C10012088408A
:1046E00081490968084380490860E16A01EB81015A
:1046F0007E4A02EB8100211DFEF760FB03E0784853
:104700000068C06AE06270BD70B505462C460026A0
:10471000ADB3206D401E2065E16CE06A88422ED06A
:10472000206D60BB201DFEF76FFB78B9E06A00EBDF
:1047300080006E4951F8200040B994F82C100120F7
:10474000884069490968814367480160E06CE0621C
:10475000E06AC0F10C00A06194F82C1001208840A0
:1047600061490968084360490860E16A01EB810119
:104770005E4A02EB8100211DFEF720FB0126304638
:1047800070BD70B505460E463146284600F084FFE0
:10479000284600F0A5FF044602E020202855641CAE
:1047A0000F2CFAD300202855281970BD7FB5054677
:1047B000002028705348006803905249096801EBB3
:1047C000C101880000F09BFD0446002C53D000225C
:1047D00020460399FFF7EDFD03900020029043E08F
:1047E000029800EBC00004EB8000007B012806D09B
:1047F000022806D0032806D0042808D105E0522656
:1048000007E0422605E0532603E0442601E00026A7
:1048100000BF00BF029800EBC00004EB80004168BD
:104820002846FFF7AEFF0546029800EBC00004EBF8
:1048300080008068029901EBC10104EB8101098CC1
:10484000CDE90010029800EBC00004EB8000324676
:104850002DA10369284600F071FE284600F040FFB4
:1048600005440298401C0290DDE902018842B7D35A
:10487000204600F0A2FD7FBD1949096888691849E2
:104880000968C96AC1F10C01154A12689161704743
:104890001348006830B11249096801F15000096DF0
:1048A000491C01600E480068704770B506460D4609
:1048B00000F087FC0A480068406D80B90120084973
:1048C000096881F8580055B101212846FFF7F2F92F
:1048D0004FF0805010490860BFF34F8F1EE01FE07B
:1048E000E00B0020180C0020F80B00208C0C00209E
:1048F000A40D0020040C0020080C0020F40B002064
:10490000FC0B0020F00B0020092563092575092503
:10491000750925750D0A000004ED00E0BFF36F8FE7
:1049200000F05EFC00F04DFCC8480068446D4CB1DE
:1049300026B10020C5490968486503E0601EC349E7
:10494000096848650020C149096881F8580000F0ED
:1049500047FC204670BD2DE9F041074688461446C5
:104960001D4600F02EFCB948006890F85800022857
:1049700018D0B649096801F15400496DB943016086
:104980000120B249096881F858005DB1012128462B
:10499000FFF790F94FF08050AD490860BFF34F8F9B
:1049A000BFF36F8F00F01CFC00F00BFC1CB1A7489C
:1049B0000068406D2060A548006890F85800012804
:1049C00001D1002608E0A149096801F15400496DB0
:1049D00021EA08010160012600209C49096881F84C
:1049E000580000F0FDFB3046BDE8F0812DE9F047AE
:1049F00081460D4616461F464FF0010A4C4600F010
:104A0000E0FB0FB1606D386094F85880022084F8A4
:104A10005800052E17D2DFE806F01503070B0D002E
:104A2000606D284360650EE0606D401C60650AE0C3
:104A3000656508E0B8F1020F01D0656501E04FF04F
:104A4000000A00E000BF00BFB8F1010F22D1201D15
:104A5000FEF7DAF994F82C10012088407D490968A6
:104A600008437C490860E16A01EB81017A4A02EB64
:104A70008100211DFEF7A2F97449E06A0968C96A3C
:104A8000884207D94FF0805071490860BFF34F8FBB
:104A9000BFF36F8F00F0A4FB5046BDE8F0872DE90F
:104AA000F84F82460D4616461F46DDF828B0012015
:104AB0000090544600BF5021EFF3118081F311881C
:104AC000BFF34F8FBFF36F8F00BF81460FB1606D93
:104AD000386094F85880022084F85800052E17D2C8
:104AE000DFE806F01503070B0D00606D28436065D5
:104AF0000EE0606D401C60650AE0656508E0B8F195
:104B0000020F01D0656501E00020009000E000BFC9
:104B100000BFB8F1010F2DD150480068A8B9201D81
:104B2000FEF772F994F82C10012088404949096871
:104B3000084348490860E16A01EB8101464A02EBFB
:104B40008100211DFEF73AF904E004F11801444800
:104B5000FEF734F93D49E06A0968C96A884209D913
:104B6000BBF1000F03D00120CBF8000002E00120D0
:104B70003C49086000BF89F3118800BF0098BDE878
:104B8000F88F2DE9F04105460E462C4600BF502116
:104B9000EFF3118081F31188BFF34F8FBFF36F8F55
:104BA00000BF074694F85880022084F85800606DD2
:104BB000401C6065B8F1010F2AD128480068A8B9E7
:104BC000201DFEF721F994F82C100120884021497E
:104BD000096808431F490860E16A01EB81011E4A28
:104BE00002EB8100211DFEF7E9F804E004F1180151
:104BF0001B48FEF7E3F81549E06A0968C96A88426C
:104C000006D916B10120306002E001201549086084
:104C100000BF87F3118800BFBDE8F08170B505467D
:104C200015B90A48006800E02846064600F0C9FAAF
:104C300096F85800022804D1002086F85800012474
:104C400000E0002400F0CCFA204670BDE00B00200C
:104C500004ED00E0F80B00208C0C0020180C002064
:104C6000A40D0020040C00202DE9F04104460D465F
:104C700016461F464FF0000865602461B5420CD807
:104C8000F01BA169884202D34FF0010811E0211DF9
:104C9000F9480068FEF79EF80BE0BE4204D2BD4220
:104CA00002D34FF0010804E0211DF4480068FEF72C
:104CB00091F84046BDE8F0812DE9FF4705460C46D6
:104CC00016461F46DDF830804FF00009EC480068BA
:104CD00010B3009401960295062C15DAFFF7B6FC86
:104CE000022808D1002342466946E5480068FEF7DD
:104CF000CEF9814610E000231A466946E048006874
:104D0000FEF7C5F9814607E000233A466946DC48CC
:104D10000068FEF786FB8146484604B0BDE8F08790
:104D20002DE9F84326E0D5480068C0680568D348F7
:104D30000068C068C468201DFEF766F82046616AF6
:104D40008847E069012815D1A0694619AE4207D904
:104D500066602461211DC9480068FEF73BF809E040
:104D6000002003462A46014600902046FFF7A4FF94
:104D7000804600BFC1480068006808B9012000E013
:104D800000200028CFD0BD480768BB480068BB4959
:104D90000860B9480760BDE8F88370B50446FFF7BE
:104DA0007BFA0546B7480068854204D2FFF7B8FF92
:104DB0000120206001E000202060B2480560284604
:104DC00070BDF0B587B056E00398002805DA04AE50
:104DD000D6E90020B168904700BF039800284ADB5D
:104DE000059C606908B9012000E0002010B9201D71
:104DF000FEF70AF802A8FFF7D0FF054603980A2835
:104E000037D2DFE800F009050725273206082628F3
:104E100000BF00BF00BF00BF0498A269811803460D
:104E20002A462046FFF720FF88B12046616A88475E
:104E3000E06901280BD1002000900498A169421874
:104E4000002319462046FFF737FF074600BF11E051
:104E500000BF0FE000BF0498A061A06941192B4674
:104E60002A462046FFF700FF04E0204600F0A5FA9E
:104E700000E000BF00BF00231A4603A98048006875
:104E8000FEF7FAF900289FD107B0F0BDF8B5054646
:104E90000E467A480068C068C468201DFDF7B4FF5C
:104EA000E069012811D1A06941192B4632462046FC
:104EB000FFF7DAFE48B1002003462A46014600907B
:104EC0002046FFF7F9FE074600BF2046616A884783
:104ED000F8BDF8B505460C46FEF72AFF6846FFF711
:104EE0005CFF0646009820BB44B9B54206D8FEF7E1
:104EF00054FE31462846FFF7C9FF1CE03CB15E482E
:104F00000068006808B9012000E000200446A91BE1
:104F100022465B480068FEF7FBFBFEF73EFE50B9F9
:104F20004FF0805058490860BFF34F8FBFF36F8F29
:104F300001E0FEF732FEF8BD0146504A12681268E1
:104F40000AB9012200E000220A600A6822B94B4A2D
:104F50001268D268106800E00020704708B500BFF2
:104F60006846FFF7E9FF044620460099FFF7B1FFC6
:104F7000FFF727FFF4E710B500F023F94048006879
:104F8000D0B94248FDF70AFF4148FDF707FF3F4807
:104F90003A4908603E48384908600022102105203F
:104FA000FDF79AFF364908600846006820B139A12C
:104FB00033480068FEF786FB00F012F910BD1CB5FF
:104FC0000024FFF7D8FF2E48006858B133480B2162
:104FD00000234FF48272CDE9001031A13248FEF770
:104FE000C4FC044620461CBD2DE9F04705460E468C
:104FF00017469846DDE908945CB1FFF7BCFF2560D1
:10500000A661E761C4F82080C4F82490201DFDF754
:10501000D2FEBDE8F0872DE9FC4705460E4617464F
:105020009846DDF828902C2000F069F904463CB140
:1050300043463A4631462846CDE90094FFF7D4FF6F
:105040002046BDE8FC8715480068704701460A46BF
:105050009069704701460A465068704701460A4603
:105060001068704770B50446264600F0AAF87069CB
:10507000E0B901201BE00000200C00201C0C0020E7
:10508000240C00202C0C002004ED00E0E00D00209A
:10509000F40D0020546D725100000000280C002017
:1050A000546D7220537663005D4F0008002080F03D
:1050B000010500F095F8284670BD70B504462646F7
:1050C00000F07FF8356A00F08BF8284670BD70B5A7
:1050D00004460D46264600F074F8356200F080F86C
:1050E00070BD2DE9FF4104460D4616461F466FF080
:1050F0000100009001940295039600233A46694608
:1051000010480068FEF78DF98046404604B0BDE8BF
:10511000F0812DE9FF4104460D4616461F464FF02B
:10512000FF30009001940295039600233A466946A9
:1051300004480068FDF7ABFF8046404604B0BDE878
:10514000F0810000240C002000BF502080F3118863
:10515000BFF34F8FBFF36F8F00BF00BFFEE7001F8D
:105160004FF080730360001F21F001030360001FF4
:105170002E4B036014380260203870472C480068BA
:105180004FF47A71B0FBF1F0401E4FF0E02148611E
:1051900007200861704710B52648006840F4700089
:1051A000244908600846006840F070400860FFF736
:1051B000E5FF002020490860FBF742F8002010BD01
:1051C000704700BF502080F31188BFF34F8FBFF3AB
:1051D0006F8F00BF18480068401C1749086070476F
:1051E00015480068401E144908600846006820B948
:1051F000002080F3118800BF00BF704710B500BFCA
:10520000502080F31188BFF34F8FBFF36F8F00BF23
:10521000FEF74CFC20B14FF0805006491C39086065
:1052200000BF002080F3118800BF10BD4951000865
:105230000800002020ED00E0300C002010B50146F1
:10524000714800E0006803688B42FBD30246436864
:1052500013448B4204D143684C68234443600146A5
:105260000A464B6813440468A34211D1674C036893
:105270002468A34208D04B680468646823444B60E8
:1052800003681B680B6005E0604B1B680B6001E066
:1052900003680B60884200D0016010BD30B54FF448
:1052A00000435B4800F007042CB1C01D20F007004C
:1052B000574C041B1B1B0246534C22600024524DCA
:1052C0006C60D018083820F00700504C2060002493
:1052D0004E4D2D686C604D4D2D682C601146441A62
:1052E0004C604A4C24680C604A4D4C682C604A4D16
:1052F0004C682C604FF00044484D2C6030BD2DE9C7
:10530000F04105464FF00008FEF712FD3F480068E7
:1053100008B9FFF7C3FF414800682840002847D17B
:1053200045B1083505F0070020B105F00700C0F1D0
:1053300008000544002D3BD037480068854237D827
:10534000314E3046046801E0264624686068A84271
:1053500002D220680028F7D12C480068844227D068
:10536000306800F10808206830606068401B102831
:1053700007D967196068401B786065603846FFF799
:105380005DFF254960680968081A234908600846D6
:10539000006820490968884203D21F4800681D49F7
:1053A00008601E496068096808436060002020604A
:1053B000FEF7F3FB4046BDE8F08170B50646354682
:1053C000D6B1083D2C46154960680968084098B177
:1053D000206888B911496068096888436060FEF7F1
:1053E000A7FC0D496068096808440B49086020461D
:1053F000FFF724FFFEF7D1FB70BD07480068704738
:105400000448006870477047340C00203C0C0020B2
:10541000080E0020440C0020400C0020480C002006
:105420001DE0012406E0294830F814102848FBF755
:105430000AFA641C082CF6DB4FF47A70FDF775F954
:10544000012406E0214830F814102148FBF7F9F94F
:10545000641C082CF6DB40F2DC50FEF7A4FCE0E70D
:1054600008E01CA000F05EF8FDF711F94FF47A7027
:10547000FEF799FCF5E706E01A480068FCF785FF9F
:105480000520FEF790FCF7E71CB50020032103463A
:105490008022CDE9001014A11748FEF766FA00201B
:1054A000042103468022CDE9001014A11748FEF71D
:1054B0005CFA0020042103468022CDE9001014A1EB
:1054C0001648FEF752FAFEF7AEFE1CBD3000002073
:1054D00000100140696E20765461736B4C45443274
:1054E0000D0A000058000020765461736B44696710
:1054F000747562653100000077540008765461735A
:105500006B4469677475626532000000615400087D
:10551000765461736B4C4544000000002154000830
:10552000704700000FB4044910B503AA029800F0B8
:10553000D5F910BC5DF814FB5C0000200FB41CB55D
:10554000074B06AA7B4469460090059800F097F93E
:105550000020694600F0A6F91CBC5DF814FB0000B1
:105560005D0300002DE9F0410E4604460020206254
:105570002046E168884730B3252805D0D4E90121C9
:105580009047206A401CF2E7E168204600278847E0
:10559000050018D0A5F14100192802D820354FF494
:1055A00000673246294620462760FAF71BFE40B1C5
:1055B000012804D0F61D26F007060836D8E7361D68
:1055C000D6E72846DAE7206ABDE8F08170B50C46D8
:1055D0000546012A05D02878800600D5EA6900230F
:1055E00002E0012305E05B1C934202D2E05C00284C
:1055F000F9D1A869E618C01AA861286A1844286277
:105600002846AFF3008004E0D5E9012114F8010B2E
:105610009047B442F8D32846AFF3008070BD000035
:105620002DE9F0410646002410687529314616A57B
:1056300010D0AFF30080002802DA404213A507E043
:1056400031688A0701D512A502E0490704D511A5E2
:10565000012401E0AFF3008000210A2206F12407B3
:1056600009E0B0FBF2FCB0FBF2F302FB1C003030AF
:1056700078541846491C0028F3D123462A46304660
:10568000BDE8F04100F09CB8000000002D000000D3
:105690002B0000002000000040EA0103024630B564
:1056A0009B0710D14FF0013400E008C208C91D1B50
:1056B0009D4315EAC41FF8D013F0FF0102F8011B47
:1056C0000DD01B0AF8E711F8013B002B02F8013B53
:1056D00005D011F8013B002B02F8013BF3D130BD9E
:1056E00010B5431C02E010F8011B71B18107FAD11B
:1056F0004FF0013202C88C1A8C4314EAC211F9D05F
:10570000C01A0A0603D0C01E10BDC01A10BD0A047C
:1057100001D0801E10BD0902FCD0401E10BD032A1E
:1057200040F2308010F0030C00F0158011F8013BBE
:10573000BCF1020F624498BF11F801CB00F8013BA5
:1057400038BF11F8013BA2F1040298BF00F801CB69
:1057500038BF00F8013B11F0030300F0D180083A94
:10576000C0F0088051F8043B083A51F804CBA0E897
:105770000810F5E7121D5CBF51F8043B40F8043BEC
:10578000AFF30080D20724BF11F8013B11F801CB21
:1057900048BF11F8012B24BF00F8013B00F801CBF2
:1057A00048BF00F8012B704702F0FF0343EA0322D1
:1057B00042EA024200F0D8B870477047704770471D
:1057C0002DE9F0470D4699469246044600F124081B
:1057D0000168880604D5E06921F01001216000E02D
:1057E0000120A84201DD471B00E00027A1697A19CA
:1057F00002EB0900081AA0612078C00602D42046F6
:10580000AFF30080002608E0D4E901211AF8060071
:105810009047206A401C761C20624E45F4DB2078BD
:10582000C0060AD52046AFF3008006E0D4E9012186
:1058300030209047206A401C2062381EA7F10107E3
:10584000F4DC07E0D4E9012118F805009047206A4C
:10585000401C2062281EA5F10105F3DC2046AFF3B1
:1058600000802078000602D50220BDE8F0870120E4
:10587000FBE7000001694A1C02610878704700B527
:105880008FB0CDE901310021059105497944CDE979
:10589000031011466846FFF765FE0FB000BD00001B
:1058A000E5FFFFFF0A6802F8010B0A60704710B5B8
:1058B000436913B1AFF3008001E0FFF787FE0120D9
:1058C00010BD127800F124010A7000224A700122F2
:1058D000EDE711684FF0FF32E9E70000074B70B5C4
:1058E0000D467B44FFF7CBFF0446284600F05CF8EA
:1058F00010B14FF0FF3070BD204670BD6BCEFFFF82
:1059000010B5203AC0F00B80B1E81850203AA0E85A
:105910001850B1E81850A0E81850BFF4F5AF5FEA8E
:10592000027C24BFB1E81850A0E8185044BF18C941
:1059300018C0BDE810405FEA827C24BF51F8043BE8
:1059400040F8043B08BF7047D20728BF31F8023B3C
:1059500048BF11F8012B28BF20F8023B48BF00F8D0
:10596000012B70474FF000020429C0F0128010F0A4
:10597000030C00F01F80CCF1040CBCF1020F18BF27
:1059800000F8012BA8BF20F8022BA1EB0C0100F0BE
:1059900011B85FEAC17C24BF00F8012B00F8012B8D
:1059A00048BF00F8012B7047007B00F08000704773
:1059B0004FF0000200B5134694469646203922BFA8
:1059C000A0E80C50A0E80C50B1F12001BFF4F7AFF3
:1059D000090728BFA0E80C5048BF0CC05DF804EBD5
:1059E000890028BF40F8042B08BF704748BF20F843
:1059F000022B11F0804F18BF00F8012B704775463D
:105A000000F02CF8AE4605006946534620F007002A
:105A1000854618B020B5FAF7F5FDBDE820404FF0F7
:105A200000064FF000074FF000084FF0000B21F088
:105A30000701AC46ACE8C009ACE8C009ACE8C00955
:105A4000ACE8C0098D46704710B50446AFF300803E
:105A50002046BDE81040FAF7DABB00000048704766
:105A6000088E00204FEA41034FEA5353A3F58063A9
:105A7000D3F11E03C8BFD3F1210C0CDD4FF000425F
:105A800042EAC12242EA505232FA03FC8CEAE17C3B
:105A9000ACEBE1707047102BC4BF0020704703F5DA
:105AA000787CBCF1FF3F04D06FF0004282EA210015
:105AB000704770B500F0B0F849922480002070471C
:105AC000F2E70000DFF848C170B51CEA111E1EBFE6
:105AD0001CEA13159EEA0C0F95EA0C0F00F06F807C
