:020000040800F2
:10000000909600207D060008890300088B030008F5
:100010008F03000893030008970300080000000006
:100020000000000000000000000000003102000895
:100030009B0300080000000075020008E35500085B
:10004000970600089706000897060008970600081C
:10005000970600089706000897060008970600080C
:1000600097060008970600089706000897060008FC
:1000700097060008970600089706000897060008EC
:1000800097060008970600089706000897060008DC
:1000900097060008970600089706000897060008CC
:1000A00097060008970600089706000897060008BC
:1000B000BB0300089706000897060008970600088B
:1000C000970600089706000897060008970600089C
:1000D000970600089D03000897060008F103000832
:1000E000970600089706000897060008970600087C
:1000F000970600089706000897060008970600086C
:10010000970600089706000897060008970600085B
:10011000970600089706000897060008970600084B
:10012000970600089706000897060008970600083B
:1001300000F002F800F06DF80AA090E8000C82448C
:100140008344AAF10107DA4501D100F062F8AFF269
:10015000090EBAE80F0013F0010F18BFFB1A43F0A5
:1001600001031847A87B0000C87B00000A444FF039
:10017000000C10F8013B13F0070408BF10F8014B06
:100180001D1108BF10F8015B641E05D010F8016B4B
:10019000641E01F8016BF9D113F0080F1EBF10F8AF
:1001A000014BAD1C0C1B09D16D1E58BF01F801CBD2
:1001B000FAD505E014F8016B01F8016B6D1EF9D555
:1001C0009142D6D37047000000230024002500266A
:1001D000103A28BF78C1FBD8520728BF30C148BFAA
:1001E0000B607047662907F04C82752905F0DA83A9
:1001F000632905F0F687002070471FB506F064F804
:1002000004000020002106F0B5FDE0601FBD10B520
:1002100010BD06F05DF91146FFF7EFFF00F054F84E
:1002200006F07BF903B4FFF7F2FF03BC02F000FD18
:10023000224B19680868B0E8F00F80F30988BFF313
:100240006F8F4FF0000080F311884EF00D0E704755
:100250000000000006480068006880F3088862B665
:1002600061B6BFF34F8FBFF36F8F00DF00BF00BFDA
:1002700008ED00E0EFF30980BFF36F8F0F4B1A68B2
:1002800020E9F00F106008B54FF0500080F311889E
:10029000BFF34F8FBFF36F8F03F072FB4FF000007F
:1002A00080F31188BDE8084019680868B0E8F00FCD
:1002B00080F30988BFF36F8F704700BFFC050020F3
:1002C000EFF30580704700004FF4407000F0F6F93E
:1002D00002F07CFC4FF4E13002F00BFD02F03CFB3D
:1002E00001F07EFF02F05FFD02F086FD4FF47A70B0
:1002F00002F021FE01F0E2FE02F0F6F902F0FFF852
:1003000000221146012002F06AF901220021122088
:1003100002F065F902220021232002F060F9032295
:100320000021342002F05BF904220021452002F074
:1003300056F905220021562002F051F9002202212F
:10034000082002F07DF901220221302002F078F924
:100350004FF4E13002F054FE05F08BFA0FE008484C
:10036000006806F0C9FE044622460B4605A005F0CB
:10037000CFFA02F0D4FB4FF4FA6002F048FCEEE74B
:10038000D805002025660000704700BFFEE700BFCB
:10039000FEE700BFFEE700BFFEE7704710B540F282
:1003A0002551354800F038FF30B1334800F0B4FE35
:1003B0000446E0B202F044FA10BD10B501218807EE
:1003C00001F067FE78B12D480068052806D12C4859
:1003D000006802F034FD00202849086027480068C2
:1003E000401C264908600121880701F063FE10BD0A
:1003F00010B540F22551234800F00EFFD8B1214836
:1004000000F08AFEC4B22048B0F80004C0F30E0029
:1004100040F2FF3188420EDA1B49B1F80014C1F3F3
:100420000E00411C184AB2F8002461F30E0216496E
:10043000A1F800240C5440F22441124800F0ECFED4
:10044000012817D11048B0F8000420F4004000F54E
:1004500000400D49A1F800040A4800F05DFEC4B256
:100460000AA1094805F061FB08B1012000E0002065
:100470000949087010BD0000003801400400002048
:10048000D8050020004800406E0A0020434C4F531E
:1004900045440D0A00000000F80500200CB50020BE
:1004A000019000906C48006840F480306A49086010
:1004B00000BF6948006800F4003000900198401CBB
:1004C0000190009818B90198B0F5A06FF1D1624879
:1004D000006800F4003010B10120009001E000201D
:1004E00000900098012843D15C48006840F010005B
:1004F0005A4908600846006820F003000860084672
:10050000006840F002000860534840685249486063
:100510000846406848600846406840F4806048608B
:100520000846406820F47C1048600846406840F463
:10053000E81048600846006840F08070086000BF1E
:100540004548006800F000700028F9D04248406833
:1005500020F00300404948600846406840F002002F
:10056000486000BF3C48406800F00C000828F9D102
:100570000CBD10B5FFF792FF10BD10B536480068EE
:1005800040F001003449086008464068344908409A
:100590003149486008460068324908402E490860E1
:1005A0000846006820F4802008600846406820F46F
:1005B000FE0048604FF41F008860FFF7DAFF4FF03D
:1005C00000602949086010BD10B5002100200022FC
:1005D000214B5B6803F00C0121B1042906D00829E6
:1005E00028D107E0214B224C236027E01F4B204CF1
:1005F000236023E0184B5B6803F47010164B5B68B4
:1006000003F48032022303EB904022B9194B434399
:10061000174C23600DE0104B5B6803F4003323B1EB
:10062000144B4343124C236003E0104B4343104CE4
:10063000236003E00D4B0E4C236000BF00BF064B50
:100640005B68C3F303130C4CE15C094B1B68CB40A4
:10065000074C236010BD0000001002400020024043
:100660000000FFF8FFFFF6FE08ED00E000127A0040
:100670000800002000093D000C00002009488047C8
:1006800009480047FEE7FEE7FEE7FEE7FEE7FEE774
:10069000FEE7FEE7FEE7FEE704480549054A064B8C
:1006A000704700007B050008310100089090002091
:1006B00090960020909200209092002031490143B2
:1006C000314A1160704770B5002100230F22C478B1
:1006D00004B32D4C246804F4E064C4F5E064210AFA
:1006E000C1F10403CA40447804FA03F18478144049
:1006F00021430901254C0678A155047804F01F0513
:100700000124AC4005786D11AD0005F1E025C5F878
:10071000004109E0047804F01F050124AC401C4DA1
:100720000678761145F8264070BD1A4A0A40024301
:10073000154B1B1F1A60704739B1134A121D1268FE
:100740000243114B1B1D1A6006E00F4A121D12686E
:1007500082430D4B1B1D1A607047042808D14FF0CF
:10076000E021096941F004014FF0E022116107E046
:100770004FF0E021096921F004014FF0E0221161FE
:10078000704700000000FA050CED00E000E400E016
:1007900080E100E080FFFF1F10B50446CC48844292
:1007A00008D10121042000F02DFB0021042000F0DD
:1007B00029FB46E0C748844208D10121082000F007
:1007C00021FB0021082000F01DFB3AE0C2488442D2
:1007D00008D10121102000F015FB0021102000F0AD
:1007E00011FB2EE0BD48844208D10121202000F0F9
:1007F00009FB0021202000F005FB22E0B8488442DC
:1008000008D10121402000F0FDFA0021402000F035
:10081000F9FA16E0B348844208D10121802000F0A3
:10082000F1FA0021802000F0EDFA0AE0AE4884429F
:1008300007D10121801500F0E5FA0021A01500F094
:10084000E1FA10BD10B50121084600F0DBFA0021E5
:10085000012000F0D7FA10BD2DE9F0410246002535
:100860000026002000230024002791F803C00CF08C
:100870000F0591F803C00CF0100CBCF1000F03D071
:1008800091F802C04CEA050591F800C0BCF1000FD8
:1008900031D0146800202BE04FF0010C0CFA00F36B
:1008A000B1F800C00CEA03069E4220D183004FF04D
:1008B0000F0C0CFA03F7BC4305FA03FC4CEA0404E2
:1008C00091F803C0BCF1280F06D14FF0010C0CFACF
:1008D00000FCC2F814C00AE091F803C0BCF1480F54
:1008E00005D14FF0010C0CFA00FCC2F810C0401CFE
:1008F0000828D1D31460B1F800C0BCF1FF0F34DD7B
:10090000546800202EE000F1080C4FF0010808FAAE
:100910000CF3B1F800C00CEA03069E4221D183001B
:100920004FF00F0C0CFA03F7BC4305FA03FC4CEA3A
:10093000040491F803C0BCF1280F05D100F1080CA4
:1009400008FA0CF8C2F8148091F803C0BCF1480F03
:1009500007D100F1080C4FF0010808FA0CF8C2F8B2
:100960001080401C0828CED35460BDE8F0814FF6BB
:10097000FF710180022181700421C170704702461D
:10098000002093680B400BB1012000E0002070476D
:100990000146886880B2704702460020D3680B4049
:1009A0000BB1012000E0002070470146C86880B20A
:1009B000704701617047416170470AB1016100E011
:1009C00041617047C16070474FF480320A438261D1
:1009D0008161826182698269704702460020434BCF
:1009E00018684FF68073184040EA021008433F4BE6
:1009F000186070473E49C8617047F0B50A46002349
:100A000000240021002500F00046B6F1004F02D17D
:100A1000364EF16901E0354E7168C0F3034583B28B
:100A200000F44016B6F5401F08D121F070612F4E3A
:100A3000766826F070662D4F7E6012E000F4801616
:100A4000B6F5801F06D1032606FA05F4A14341F04E
:100A5000706106E0460D360103FA06F6B14341F037
:100A6000706122B1460D360103FA06F6314300F0FB
:100A70000046B6F1004F02D11C4EF16101E01B4E61
:100A80007160F0BD30B500228B071C0F0F2303FAF5
:100A900004F2164B08338C1053F824309343134C54
:100AA00008348D1044F8253023468C1053F8243038
:100AB0008C07240F00FA04F423430C4C08348D10E7
:100AC00044F8253030BD0A49DC3108607047000029
:100AD00000080140000C01400010014000140140DA
:100AE00000180140001C01400020014000000140AE
:100AF00000002042DF48006840F00100DD49086046
:100B000008464068DC490840DA4948600846006801
:100B1000DA490840D74908600846006820F4802078
:100B200008600846406820F4FE0048604FF41F004B
:100B300088607047CF49096821F48031CD4A11603F
:100B40001146096821F480211160B0F5803F03D07F
:100B5000B0F5802F0ED106E0C649096841F4803116
:100B6000C44A116007E0C349096841F4A021C14AA1
:100B7000116000E000BF00BF704710B501460022C1
:100B8000002300204A11012A02D1BA4C236806E052
:100B9000022A02D1B74C236A01E0B64C636A01F025
:100BA0001F02012494401C400CB1012000E00020F1
:100BB00010BD38B5002000900024002500BF312072
:100BC000FFF7DBFF05460098401C00900098B0F549
:100BD000A06F01D0002DF2D03120FFF7CEFF08B179
:100BE000012400E00024204638BD01460020A14A2F
:100BF000106820F0F80040EAC10010607047A0497A
:100C000008607047024600209A4B586820F47C1018
:100C100042EA01031843974B5860704798490866A9
:100C2000704701460020934A506820F003000843B3
:100C3000506070478F48406800F00C0070470146D4
:100C400000208C4A506820F0F00008435060704744
:100C500001460020874A506820F4E0600843506055
:100C6000704701460020834A506820F4605040EAF3
:100C7000C1005060704729B17E4A527A02437D4BD1
:100C80005A7204E07B4A527A82437A4B5A72704716
:100C90007B49D8310860704701460020754A50688A
:100CA00020F440400843506070470021714A2032D0
:100CB0001170704A82F82010012802D004280AD14D
:100CC00004E001216B4A2032117005E00521694AD8
:100CD0002032117000E000BF00BF70476949086012
:100CE00070476449096A0143624A11627047654965
:100CF00044390860704730B50021002200240023E9
:100D00005C4D6D6805F00C0121B1042905D008295E
:100D100023D105E05C4D056022E05B4D05601FE0DE
:100D2000544D6D6805F47012524D6D6805F48034B1
:100D3000022505EB92421CB9544D554305600BE06A
:100D40004C4D6D6805F400351DB1504D554305609F
:100D500002E04D4D5543056002E04B4D056000BF7C
:100D600000BF444D6D6805F0F0010909484D6B5C0A
:100D70000568DD4045603F4D6D6805F4E061090A96
:100D8000434D6B5C4568DD4085603A4D6D6805F408
:100D90006051C90A3E4D6B5C4568DD40C560354D0C
:100DA0006D6805F44041890B3A4D6B5CC568B5FB35
:100DB000F3F5056130BD29B12E4A526902432D4B2E
:100DC0005A6104E02B4A526982432A4B5A617047A8
:100DD00029B1284A92690243264B9A6104E0254AC8
:100DE00092698243234B9A61704729B1214AD269A3
:100DF0000243204BDA6104E01E4AD26982431D4B54
:100E0000DA61704729B11B4AD2680243194BDA6094
:100E100004E0184AD2688243164BDA60704729B161
:100E2000144A12690243134B1A6104E0114A126911
:100E30008243104B1A61704712494039086070476D
:100E40000F49C86470470B49C87170470948406A28
:100E500040F0807007494862704701460020054A0B
:100E600092680A400AB1012000E000207047014961
:100E700088727047001002400000FFF8FFFFF6FE86
:100E8000000042428004424200127A0000093D0004
:100E90001C0000202C00002010B50446FB488442B2
:100EA00009D101218803FFF7ADFF00214FF48040F5
:100EB000FFF7A8FF32E0F648844209D10121480437
:100EC000FFF7ADFF00214FF40030FFF7A8FF25E04A
:100ED000F048844209D101218804FFF7A0FF0021D6
:100EE0004FF48020FFF79BFF18E0EB48844209D1C4
:100EF0000121C804FFF793FF00214FF40020FFF702
:100F00008EFF0BE0E548844208D101210805FFF778
:100F100086FF00214FF48010FFF781FF10BD2DE9FF
:100F2000F04786B005460E460024A24600BFA14603
:100F30000027B08900B100BF2F462C8A4CF6FF7005
:100F40000440F08804432C82AC894EF6F310044030
:100F5000B08831890843718908430443AC81AC8A65
:100F60004FF6FF400440B0890443AC8201A8FFF76C
:100F7000C2FEC648874202D1DDF810A001E0DDF8CC
:100F80000CA0A88900F4004040B10AEBCA0000EBB5
:100F90000A1031684900B0FBF1F807E00AEBCA001B
:100FA00000EB0A1031688900B0FBF1F86420B8FB4F
:100FB000F0F004012009642101FB1089A88900F4E4
:100FC000004040B1322000EBC900B0FBF1F000F06E
:100FD0000700044308E0322000EB09106421B0FB55
:100FE000F1F000F00F0004432C8106B0BDE8F0875B
:100FF0004FF41651016000218180C18001810C21D4
:10100000418100218181704710B502460020108A7D
:101010004FF2FF0318400B884C8823438C882343EE
:10102000CC8823431843108210BD002101804180E9
:101030008180C180704721B1828942F4005282814F
:1010400004E082894DF6FF731A4082817047F0B543
:101050000346002400260025002040F66A17B94206
:1010600000D100BF1846C1F3421401F01F0601274A
:1010700007FA06F5012C01D10C3004E0022C01D155
:10108000103000E014301AB107682F43076002E007
:101090000768AF430760F0BD1AB1838A0B438382B0
:1010A00002E0838A8B4383827047028A4FF6F07393
:1010B0001A400282028A0A430282704782894FF2F2
:1010C000FF731A40828182890A438281704721B16D
:1010D000828942F00202828104E082894FF6FD7328
:1010E0001A4082817047028A4FF6DF731A400282EB
:1010F000028A0A430282704721B1028A42F4804286
:10110000028204E0028A4BF6FF731A4002827047A3
:10111000C1F308028280704701468888C0F3080046
:101120007047818941F0010181817047028BD2B201
:101130000283028B42EA012202837047028B02F48F
:101140007F420283028B0A430283704721B1828A65
:1011500042F02002828204E0828A4FF6DF731A4056
:101160008282704721B1828A42F01002828204E0BA
:10117000828A4FF6EF731A408282704721B1828AC9
:1011800042F00802828204E0828A4FF6F7731A4026
:101190008282704721B1828942F40042828103E059
:1011A0008289C2F30E028281704721B1828A42F4A1
:1011B0000062828204E0828A4FF2FF731A408282C8
:1011C0007047828A4FF6FB731A408282828A0A43F2
:1011D0008282704721B1828A42F00202828204E058
:1011E000828A4FF6FD731A408282704702460020C1
:1011F000B1F5007F00D100BF13880B400BB1012077
:1012000000E00020704701F40072B2F5007F00D1C9
:1012100000BFCA430280704770B502460024002315
:101220000025002040F66A16B14200D100BFC1F38C
:10123000421501F01F03012606FA03F3012D02D126
:101240009689334006E0022D02D1168A334001E030
:10125000968A33400C12012606FA04F416883440AC
:1012600013B10CB1012000E0002070BD10B50022C8
:10127000002340F66A14A14200D100BF0A120124E3
:101280009440A3B2DC43048010BD0000003801404C
:101290000044004000480040004C00400050004026
:1012A00010B50446FE48844208D10121C014FFF75E
:1012B000A9FD0021E014FFF7A5FDC4E0B4F1804FC3
:1012C00008D101210846FFF7AAFD00210120FFF700
:1012D000A6FDB8E0F348844208D101210220FFF7BF
:1012E0009EFD00210220FFF79AFDACE0EE4884420B
:1012F00008D101210420FFF792FD00210420FFF70F
:101300008EFDA0E0E948844208D101210820FFF7C2
:1013100086FD00210820FFF782FD94E0E448844226
:1013200008D101211020FFF77AFD00211020FFF7DE
:1013300076FD88E0DF48844208D101212020FFF7B4
:101340006EFD00212020FFF76AFD7CE0DA48844230
:1013500008D101214014FFF755FD00216014FFF76B
:1013600051FD70E0D548844209D10121C804FFF73E
:1013700049FD00214FF40020FFF744FD63E0D04811
:10138000844209D101210805FFF73CFD00214FF4FB
:101390008010FFF737FD56E0CA48844209D1012189
:1013A0004805FFF72FFD00214FF40010FFF72AFD3D
:1013B00049E0C548844208D101214020FFF72FFDB4
:1013C00000214020FFF72BFD3DE0C048844208D1BA
:1013D00001218020FFF723FD00218020FFF71FFD62
:1013E00031E0BB48844208D101218015FFF717FD89
:1013F0000021A015FFF713FD25E0B648844209D16E
:1014000001210804FFF7FEFC00214FF48030FFF7B4
:10141000F9FC18E0B048844209D101214804FFF7E3
:10142000F1FC00214FF40030FFF7ECFC0BE0AB487F
:10143000844208D101218804FFF7E4FC00214FF425
:101440008020FFF7DFFC10BD00220288944B9842F9
:101450000ED0994B98420BD0B0F1804F08D0914BF1
:10146000984205D0904B984202D0904B984204D1BC
:101470004FF68F731A404B881A438D4B984207D012
:101480008C4B984204D04FF6FF431A40CB881A4346
:1014900002808B8883850B880385814B98420BD013
:1014A000854B984208D08B4B984205D08A4B984286
:1014B00002D08A4B984201D10B7A038601238382A2
:1014C000704770B5002400220023058C4FF6FE768D
:1014D00035400584028C8388048B4FF68F752C4031
:1014E000B51E2C400D882C43751E2A400D892A43B9
:1014F0004D882A436A4DA8420BD06F4DA84208D0B0
:10150000744DA84205D0744DA84202D0734DA84234
:1015100013D14FF6F7752A404D892A434FF6FB75D4
:101520002A408D882A434FF6FF652B404FF6FF5522
:101530002B408D892B43CD892B4383800483CD8819
:101540008586028470BD70B5002400220023058CBE
:101550004FF6EF7635400584028C8388048B48F67D
:10156000FF752C404FF6FF452C400D884FF6FF7657
:1015700006EA05252C434FF6DF752A400D8906EA59
:1015800005152A434D8806EA05152A43444DA8420D
:1015900002D0494DA8421DD14FF67F752A404D8992
:1015A0004FF6FF7606EA05152A434FF6BF752A4027
:1015B0008D8806EA05152A434FF6FF352B404FF27A
:1015C000FF752B408D8906EA85052B43CD8906EAF8
:1015D00085052B4383800483CD880587028470BDF5
:1015E00070B5002400220023058C4FF6FF663540BD
:1015F0000584028C8388848B4FF68F752C404FF6C0
:10160000FC752C400D882C434FF6FF552A400D8960
:101610004FF6FF7606EA05252A434D8806EA05259A
:101620002A431F4DA84202D0234DA8421DD14FF29C
:10163000FF752A404D894FF6FF7606EA05252A43B5
:101640004FF6FF352A408D8806EA05252A434EF6D7
:10165000FF752B404DF6FF752B408D8906EA051569
:101660002B43CD8906EA05152B4383808483CD88DF
:101670008587028470BD70B5002200230024058C8C
:101680004EF6FF7635400584038C8488828B48F6BD
:10169000FF752A404FF6FF452A400D8820E00000E4
:1016A000002C01400004004000080040000C0040F5
:1016B000001000400014004000340140004C014084
:1016C000005001400054014000180040001C004040
:1016D000002000400040014000440140004801401B
:1016E0004FF6FF7606EA05252A434DF6FF752B4097
:1016F0000D8906EA05352B434D8806EA05352B434F
:10170000FA4DA84202D0FA4DA84208D14BF6FF7517
:101710002C408D894FF6FF7606EA85152C43848090
:101720008283CD88A0F84050038470BD828B4FF235
:10173000FF331A408283828B4FF6FF7303EA012343
:101740001A4382837047F0B50C46154600220021EB
:101750000026078C4EF6FF7C07EA0C070784828B75
:10176000018C4FF6FF7707EA043640F6FF473A4010
:101770004FF6FF7707EA05273A434FF6FF7707EA68
:1017800003373A43D94FB8420ED0D94FB8420BD0A5
:10179000B0F1804F08D0D74FB84205D0D64FB842ED
:1017A00002D0D64FB84206D14DF6FF77394046F405
:1017B0008057394305E047F6FF57394044F48057D6
:1017C000394382830184F0BD828B4FF6F3731A4054
:1017D0008283828B0A4382837047F0B50C4615469C
:1017E000002200210026078C4FF6FF6C07EA0C0749
:1017F0000784828B018C4FF6FF7707EA04264FF6A9
:101800000C773A404FF6FF7707EA03172F433A4326
:10181000B64FB8420ED0B64FB8420BD0B0F1804FA1
:1018200008D0B44FB84205D0B34FB84202D0B34F3E
:10183000B84206D14FF6FF57394046F48077394316
:1018400005E04FF2FF57394044F4807739438283F3
:101850000184F0BD028B4FF2FF331A400283028BEA
:101860004FF6FF7303EA01231A4302837047F0B572
:101870000C461546002200210026078C4FF6EF7C0F
:1018800007EA0C070784028B018C4FF6FF7707EA03
:10189000041640F6FF473A404FF6FF7707EA033752
:1018A0003A434FF6FF7707EA05273A438F4FB8428E
:1018B0000ED08F4FB8420BD0B0F1804F08D08D4F73
:1018C000B84205D08C4FB84202D08C4FB84206D1F6
:1018D0004FF6DF77394046F01007394305E04FF601
:1018E0005F77394044F01007394302830184F0BD2B
:1018F000028B4FF6F3731A400283028B0A43028372
:101900007047F0B50C46154600220021068C4FF6B4
:10191000FE773E400684028B018C4FF60C763240F7
:101920007E1C06EA03162E433243704EB0420ED0A0
:101930006F4EB0420BD0B0F1804F08D06D4EB04228
:1019400005D06D4EB04202D06C4EB04206D14FF67B
:10195000FD76314044F00106314305E04FF6F5765F
:10196000314044F00106314302830184F0BD70B57B
:1019700005460C465D4885420ED05D4885420BD039
:10198000B5F1804F08D05B48854205D05A48854262
:1019900002D05A48854200D100E000BF208850B9EB
:1019A0002389A28861882846FFF7ABFFE188284693
:1019B000FFF79EFF25E0208804280AD12389A2880A
:1019C00061882846FFF753FFE1882846FFF742FF6A
:1019D00017E0208808280AD12389A2886188284630
:1019E000FFF7FBFEE1882846FFF7EEFE09E02389BA
:1019F000A28861882846FFF7A6FEE1882846FFF7FF
:101A000095FE70BD2DE9F04105460C4600260127E4
:101A1000608808B9022600E00026A088012801D1CC
:101A2000022700E001272088A0B92389A2886188C5
:101A30002846FFF766FFE1882846FFF759FF23890C
:101A40003A4631462846FFF712FFE1882846FFF75D
:101A500001FF13E02389A28861882846FFF707FF6A
:101A6000E1882846FFF7F6FE23893A4631462846A4
:101A7000FFF747FFE1882846FFF73AFFBDE8F0810E
:101A80000A884B881A438B881A43CB881A430B89E0
:101A90001A434B891A438B891A43A0F84420704794
:101AA0004FF6FF71818000210180C1804180017269
:101AB00070470021018041808180C1800181418186
:101AC0008181C18170470021018041800121818095
:101AD0000021C18001817047002101804180818007
:101AE000C18001814181818170470000002C01404B
:101AF000003401400004004000080040000C004099
:101B000021B1028842F00102028004E002884FF60F
:101B1000FE731A400280704731B1B0F8442042F49D
:101B20000042A0F8442005E0B0F84420C2F30E02C1
:101B3000A0F8442070471AB183890B43838102E0E7
:101B400083898B43838170478182704741EA020316
:101B5000A0F8483070471AB183890B43838102E0B3
:101B600083898B438381704701894FF6F872114056
:101B7000018170470A46002101894FF68F73194091
:101B800011430181704730B504460D462946204671
:101B9000FFF7F0FF208940F00700208130BD2DE9DC
:101BA000F04104460D4616461F46602D06D13B46C1
:101BB000012231462046FFF75AFE05E03B4601224E
:101BC00031462046FFF79DFE29462046FFF7D2FF0B
:101BD000208940F007002081BDE8F08130B50C4637
:101BE00000210189C9B24FF6FF7505EA03251543A7
:101BF00025432943018130BD2DE9F04105460E46BC
:101C000017469846002443463A4631462846FFF791
:101C1000E5FF2C894FF6F870044044F007044FF6B6
:101C20008F70044044F070042C81BDE8F081F0B561
:101C300004460D4616461F463B4632462946204678
:101C4000FFF7CCFF208940F480402081F0BD018562
:101C5000828270470A46002101884FF68F7319402F
:101C6000114301807047F0B50C4615461E46002111
:101C7000002200230189028B038C4FF6F87739404C
:101C800021434FF6FC473A4040F201173A434FF6E2
:101C9000DD773B404FF6FF7707EA06172F433B43BC
:101CA000018102830384F0BD0A460021018B4FF6B7
:101CB0008F7319401143018370470A460021018B3D
:101CC00048F6FF7319404FF6FF7303EA02231943E6
:101CD000018370470A460021818B4FF68F731940AC
:101CE0001143818370470A460021818B48F6FF73B8
:101CF00019404FF6FF7303EA0223194381837047AB
:101D000021B1028842F08002028004E002884FF68E
:101D10007F731A400280704721B1828842F004022A
:101D2000828004E082884FF6FB731A4082807047FD
:101D300021B1828842F00802828004E082884FF656
:101D4000F7731A408280704721B1828842F0010205
:101D5000828004E082884FF6FE731A4082807047CA
:101D60000A460021018B4FF6F77319401143018396
:101D700070470A460021018B4FF2FF7319404FF65E
:101D8000FF7303EA02231943018370470A460021C7
:101D9000818B4FF6F77319401143818370470A46D0
:101DA0000021818B4FF2FF7319404FF6FF7303EA56
:101DB00002231943818370470A460021018B4FF6A5
:101DC000FB7319401143018370470A460021018BC0
:101DD0004FF6FF3319404FF6FF7303EA022319430E
:101DE000018370470A460021818B4FF6FB7319402F
:101DF0001143818370470A460021818B4FF6FF33E0
:101E000019404FF6FF7303EA022319438183704799
:101E10000A460021018B4FF67F731940114301835D
:101E200070470A460021018BC1F30E014FF6FF7384
:101E300003EA02231943018370470A460021818B7C
:101E40004FF67F7319401143818370470A46002182
:101E5000818BC1F30E014FF6FF7303EA022319438E
:101E6000818370470A460021018C4FF6FD731940AB
:101E70001143018470470A460021018C4FF6F77325
:101E800019401143018470470A460021018C4FF626
:101E9000DF7319404FF6FF7303EA021319430184FD
:101EA00070470A460021018C4FF67F7319404FF6A8
:101EB000FF7303EA02131943018470470A460021A5
:101EC000018C4FF6FF5319404FF6FF7303EA0223CC
:101ED0001943018470470A460021018C4FF2FF73B9
:101EE00019404FF6FF7303EA022319430184704738
:101EF0000A460021018C4DF6FF7319404FF6FF731F
:101F000003EA023319430184704730B500230124EA
:101F10008C40A3B2048C9C430484048C02FA01F527
:101F2000ADB22C43048430BD30B5002304248C4072
:101F3000A3B2048C9C430484048C02FA01F5ADB274
:101F40002C43048430BD70B503460020002418469D
:101F5000183001258D40ACB21D8CA5431D8409B1FC
:101F6000082909D100EB6100056825F070050560BE
:101F70000568154305600EE00D1FC5F34E052844A6
:101F8000056825F4E045056005684FF6FF7606EA2A
:101F900002263543056070BD21B1028842F002027D
:101FA000028004E002884FF6FD731A4002807047F9
:101FB00021B1028842F00402028004E002884FF658
:101FC000FB731A400280704721B1828842F0800280
:101FD000828004E082884FF67F731A4082807047C7
:101FE00002884FF6F7731A40028002880A43028083
:101FF000704782884FF68F731A40828082880A4326
:102000008280704702894FF6F8731A400281028974
:102010000A430281704702894FF67F731A4002819A
:1020200002890A4302817047818470478185704725
:10203000818670470187704781877047A0F84010FC
:10204000704702884FF6FF431A40028002880A4315
:10205000028070470146888E70470146088F70479E
:102060000146888F70470146B1F84000704701462D
:10207000888C70470146088D704702460020138AFD
:102080000B400BB1012000E000207047CA430282E0
:10209000704730B50246002000230024158A05EA67
:1020A0000103958905EA010413B10CB1012000E098
:1020B000002030BDCA4302827047000008B5FEF719
:1020C0005CFA01211020FEF783FE4FF6FF70ADF899
:1020D000000001208DF8020010208DF803006946F1
:1020E0002248FEF7B9FB08BD3FE0FE211F48FEF77E
:1020F00069FC4FF47A7000F056F8FD211B48FEF79A
:1021000061FC4FF47A7000F04EF8FB211748FEF79F
:1021100059FC4FF47A7000F046F8F7211348FEF7A7
:1021200051FC4FF47A7000F03EF8EF210F48FEF7B3
:1021300049FC4FF47A7000F036F8DF210B48FEF7C7
:1021400041FC4FF47A7000F02EF8BF210748FEF7EB
:1021500039FC4FF47A7000F026F87F210348FEF72F
:1021600031FC4FF47A7000F01EF8BEE70010014019
:10217000014601EBC1024FF0E0235A6101221A61CE
:1021800000229A6100BF4FF0E022106900F00102C6
:102190001AB100F48032002AF5D000224FF0E0237B
:1021A0001A619A617047014642F228324A434FF061
:1021B000E0235A6101221A6100229A6100BF4FF0A8
:1021C000E022106900F001021AB100F48032002A06
:1021D000F5D000224FF0E0231A619A6170470000A9
:1021E00008B501214FF4A070FEF7F2FD4FF47F40D7
:1021F000ADF8000001208DF8020010208DF80300DA
:1022000069468748FEF728FB4FF6FF70ADF80000DF
:1022100001208DF8020010208DF8030069468148E6
:10222000FEF71AFB08BD5FE047F6FF717C48FEF73A
:10223000C9FBC0217B48FEF7C5FB002401E0601C00
:1022400084B2B4F5C87FFADB4BF6FF717448FEF731
:10225000B9FBF9217348FEF7B5FB002401E0601CCF
:1022600084B2B4F5C87FFADB4DF6FF716C48FEF717
:10227000A9FBA4216B48FEF7A5FB002401E0601C2C
:1022800084B2B4F5C87FFADB4EF6FF716448FEF7FE
:1022900099FBB0216348FEF795FB002401E0601C28
:1022A00084B2B4F5C87FFADB4FF2FF715C48FEF7E9
:1022B00089FB99215B48FEF785FB002401E0601C47
:1022C00084B2B4F5C87FFADB4FF6FF315448FEF70D
:1022D00079FB92215348FEF775FB002401E0601C56
:1022E00084B2B4F5C87FFADB9EE797E04E480188D8
:1022F0004B48FEF767FB4D4800780A2190FBF1F050
:102300004B490D5C29464748FEF75CFB002401E081
:10231000601C84B2B4F5C87FFADB4348418840486A
:10232000FEF750FB414800780A2190FBF1F201FBD7
:1023300012003F49085C4FF67F7100EA010529460B
:102340003848FEF73FFB002401E0601C84B2B4F57E
:10235000C87FFADB344881883148FEF733FB3548C3
:1023600000780A2190FBF1F031490D5C29462D4897
:10237000FEF728FB002401E0601C84B2B4F5C87F9E
:10238000FADB2948C1882648FEF71CFB294800785B
:102390000A2190FBF1F201FB12002549085C4FF67F
:1023A0007F7100EA010529461E48FEF70BFB002459
:1023B00001E0601C84B2B4F5C87FFADB1A480189D9
:1023C0001748FEF7FFFA1C4800780A2190FBF1F04D
:1023D00017490D5C29461348FEF7F4FA002401E082
:1023E000601C84B2B4F5C87FFADB0F4841890C4801
:1023F000FEF7E8FA104800780A2190FBF1F201FBA1
:1024000012000B490D5C29460648FEF7DBFA002452
:1024100001E0601C84B2B4F5C87FFADB66E7000017
:1024200000180140002001404C0000200000002066
:1024300040000020010000200200002070B504468A
:102440000E4626B12021FA48FEF7B3FA03E0202118
:10245000F748FEF7B0FA002517E04021F448FEF7F0
:10246000AAFA04F0800020B18021F148FEF7A1FA19
:1024700003E08021EE48FEF79EFA4021EC48FEF78B
:1024800098FA6006040E681CC5B2082DE5DB202111
:10249000E748FEF78EFA70BD70B504460D4605F1AB
:1024A000B001C8B20021FFF7C9FF102141EA1410A2
:1024B0000021FFF7C3FF04F00F0141F001000021EC
:1024C000FFF7BCFF70BD10B500218D20FFF7B6FFF0
:1024D00000211420FFF7B2FF0021AF20FFF7AEFF6D
:1024E00010BD10B500218D20FFF7A8FF002110209E
:1024F000FFF7A4FF0021AE20FFF7A0FF10BD70B5CD
:10250000002419E004F1B001C8B20021FFF796FFE2
:1025100000210846FFF792FF00211020FFF78EFFF1
:10252000002505E001210020FFF788FF681CC5B2E7
:10253000802DF7DB601CC4B2082CE3DB70BD2DE9F5
:10254000F04107460E46904600250024A8F12000E1
:10255000C5B27F2F02DD0027B01CC6B23146384617
:10256000FFF79AFF002408E004EB0511B14A505C24
:102570000121FFF763FF601CC4B2082CF4DB701C60
:10258000C1B23846FFF788FF002409E004EB0511CB
:102590000831A84A505C0121FFF750FF601CC4B20B
:1025A000082CF3DBBDE8F0812DE9F04104460F462D
:1025B000154600260EE0AA5D39462046FFF7BFFF0C
:1025C00004F10800C4B2782C02DD0024B81CC7B2A4
:1025D000701CC6B2A85D0028EDD1BDE8F0812DE9E0
:1025E000F04180460E461546002731464046FFF72B
:1025F00053FF00240AE0904A02EB8511085D012197
:10260000FFF71CFF781CC7B2601CC4B2102CF2DBB1
:10261000701CC1B24046FFF73FFF00240CE0690088
:10262000491C854A02EB4111085D0121FFF706FFB5
:10263000781CC7B2601CC4B2102CF0DBBDE8F0817E
:102640002DE9F04107460E46154631463846FFF75C
:1026500023FF002408E0794A02EB4521085D0121AF
:10266000FFF7ECFE601CC4B2202CF4DB701CC1B27E
:102670003846FFF711FF00240AE0A900491C6F4A01
:1026800002EBC111085D0121FFF7D8FE601CC4B246
:10269000202CF2DBB01CC1B23846FFF7FDFE00244F
:1026A0000AE0A900891C654A02EBC111085D0121FD
:1026B000FFF7C4FE601CC4B2202CF2DBF01CC1B2D8
:1026C0003846FFF7E9FE00240AE0A900C91C5B4A6E
:1026D00002EBC111085D0121FFF7B0FE601CC4B21E
:1026E000202CF2DBBDE8F08108B501212020FEF7A7
:1026F0006FFBF020ADF8000010208DF803000320E0
:102700008DF8020069464A48FEF7A6F84FF4FC71BE
:102710004748FEF74EF910214548FEF74AF9642074
:10272000FFF741FD10214248FEF745F96420FFF70D
:102730003AFD10213E48FEF73CF90021AE20FFF79C
:102740007DFE00210846FFF779FE00211020FFF7EB
:1027500075FE00214020FFF771FE00218120FFF768
:102760006DFE0021CF20FFF769FE0021A120FFF7B9
:1027700065FE0021C820FFF761FE0021A620FFF7BB
:102780005DFE0021A820FFF759FE00213F20FFF742
:1027900055FE0021D320FFF751FE00210846FFF728
:1027A0004DFE0021D520FFF749FE00218020FFF7D4
:1027B00045FE0021D920FFF741FE0021F120FFF75F
:1027C0003DFE0021DA20FFF739FE00211220FFF73D
:1027D00035FE0021DB20FFF731FE00214020FFF70E
:1027E0002DFE00212020FFF729FE00210220FFF707
:1027F00025FE00218D20FFF721FE00211420FFF788
:102800001DFE0021A420FFF719FE0021A620FFF7DE
:1028100015FE0021AF20FFF711FE0021AF20FFF7CA
:102820000DFEFFF76CFE00210846FFF735FE08BDE0
:10283000001401408676000858040020580000204B
:1028400001461D488088B0F5806F01D10120704796
:1028500019484288801D8154821F5288501CC2171B
:1028600000EB92529212A0EB8222134B5A80184630
:102870008088401C1A4690800020E8E701460E48F8
:10288000808808B9022070470B480288801D805C50
:102890000870094A1288501CC21700EB925292121B
:1028A000A0EB8222044B1A8018468088401E1A46EC
:1028B00090800020E7E700006806002010B50024A3
:1028C000B548006820F47020B349086008460068E5
:1028D00040F40020086004E0601CC4B2012000F055
:1028E00084F91021AC48FEF757F808B1C82CF3DB87
:1028F000C82C01DB012010BD002404E0601CC4B220
:10290000012000F072F91021A348FEF745F808B93C
:10291000F02CF3DBF02C01DB0120ECE70020EAE7F0
:1029200010B59D48006820F470209B490860084657
:10293000006840F44030086010219748FEF73BF8EB
:1029400040F2EE2000F051F910219348FEF731F8E3
:102950000F2000F04AF910BD08B501214020FEF714
:1029600037FA1020ADF8000003208DF80200102087
:102970008DF8030069468848FDF76EFF10218648F0
:10298000FEF717F8FFF7CCFFFFF798FF08BD70B50B
:1029900004468148006820F470207F49086008469A
:1029A000006840F440300860012522E004F0010690
:1029B000641076B110217848FDF7FDFF022000F089
:1029C00014F910217448FDF7F4FF3C2000F00DF9D4
:1029D0000DE010217048FDF7EEFF3C2000F005F9F6
:1029E00010216D48FDF7E5FF022000F0FEF8681C9D
:1029F000C5B2082DDADD70BD10B56748006820F457
:102A00007020654908600846006840F4403008605E
:102A100010216148FDF7CFFF022000F0E6F81021F9
:102A20005D48FDF7C6FF5C48006820F470205A49F5
:102A300008600846006840F4002008600C2000F0A0
:102A4000D4F810215448FDF79AFF08B1012400E0A2
:102A50000024322000F0C9F8204610BD70B50026D1
:102A6000012508E0FFF7C8FF0446E00140EA6600E0
:102A7000C6B2681CC5B2082DF4DD304670BD10B575
:102A8000FFF74EFFFFF71AFFCC20FFF780FF44202F
:102A9000FFF77DFF10BD2DE9F84FFFF7F0FFFFF7BF
:102AA0003FFFFFF70BFFCC20FFF771FFBE20FFF7C2
:102AB0006EFFFFF7D3FF8346FFF7D0FF0446072CD6
:102AC00008DDE043C4B26FEA0B0000F0FF0B4FF0EB
:102AD000000A01E04FF0010AA1464FEA09200FFA6F
:102AE00080F909EB0B000FFA80F9484604F070FCFE
:102AF000009004F001FB07460022284B04F0C8F9BF
:102B0000054604F059F90FFA80F9BAF1000F02D026
:102B10004846BDE8F88FC9F1000000B2F9E72DE999
:102B2000F04100240025A046FFF7B5FF04460A2027
:102B300094FBF0F6304604F04BFC05460A2094FB6B
:102B4000F0F100FB1147384604F042FC06461449F8
:102B500004F060FB80464146284604F0F9FA11492A
:102B600008600846006804F0C7FA064632460B467D
:102B70000DA002F0CDFE0B48006804F0BDFA064639
:102B80000022114B04F082FA02D200F010F901E0A9
:102B900000F0EEF8BDE8F081001801400000E43FCD
:102BA00000002041D80500204453503138423230D3
:102BB0002054656D7065726174757265203D2025C5
:102BC0002E32660D0A00000000A060401448006824
:102BD00040F08070124908600020124948600846A1
:102BE000006840F001000860704730B50D4C636824
:102BF00000210D4C24680D4DB4FBF5F404FB00F2EC
:102C000002E0084C6468E11A9142FAD330BD10B575
:102C100004464FF47A7104FB01F0FFF7E6FF10BDA4
:102C2000FCED00E0001000E00800002040420F0032
:102C300000BF704700BF4C4A128802F04002002AD1
:102C4000F9D0C0F30802484B1B1D1A80704708B525
:102C500025208DF800000C208DF8010000208DF853
:102C6000020001208DF803006846FDF72CFD08BD29
:102C700008B501210420FEF7ABF84FF40070ADF861
:102C8000000003208DF8020018208DF8030069462B
:102C90003648FDF7E1FD4FF48060ADF800000420F8
:102CA0008DF8030069463148FDF7D6FD08BD1FB514
:102CB000044601218803FEF78BF800940020ADF84C
:102CC0000400ADF80600ADF80800ADF80C000C20CB
:102CD000ADF80A0069462448FEF721F9012240F2C6
:102CE00025512148FEF7B3F901211F48FEF7A3F94A
:102CF0001FBD10B504462046FFF7D9FFFFF7B8FF08
:102D0000FFF7A5FF10BD70B504460D460026ADB116
:102D100011E000BF1448008800F080000028F9D0BE
:102D200080211148FEF76FFA14F8010B0E49091DB6
:102D30000880701CC6B2AE42EBDB13E00FE000BFB0
:102D40000948008800F080000028F9D0802106485A
:102D5000FEF759FA14F8010B0349091D0880207881
:102D60000028ECD170BD000000380140000801408F
:102D70004FF480701F494861704708B50121102049
:102D8000FEF726F84FF48070ADF8000003208DF8B0
:102D9000020010208DF8030069461648FDF75CFD1F
:102DA000FFF7E6FF08BD10B5FFF7E7FF10BD10B550
:102DB0004FF47A7411E04FF480700E4908614FF4BB
:102DC0004870FFF7D5F94FF480700A494861C82070
:102DD000FFF7CEF90120FFF7E6F9201EA4F1010468
:102DE000E9D110BD0348C06880F480700149C86013
:102DF000704700000010014008B501214FF4A07099
:102E0000FDF7E6FF4FF47F40ADF8000001208DF89C
:102E1000020010208DF8030069462948FDF71CFDCB
:102E20004FF6FF70ADF8000001208DF80200102071
:102E30008DF8030069462348FDF70EFD08BD2DE916
:102E4000F04780462049404604F0DAFA814604F013
:102E5000A3FA06464FF47A7500242DE0A01C1B4A05
:102E600032F810101648FDF7ADFD012C0CD196FB81
:102E7000F5F01749085C4FF67F7100EA01094946F1
:102E80001048FDF79FFD08E096FBF5F0104911F89A
:102E9000009049460B48FDF795FD96FBF5F005FBC4
:102EA00010660A2095FBF0F5002700E07F1C44F631
:102EB0001F608742FADB641C042CCFDBBDE8F0877F
:102EC00000180140002001400000C842EC0500202D
:102ED000E00500203EB5044601210846FDF785FFC8
:102EE000601E80B2ADF804004720ADF8000000205D
:102EF000ADF80600ADF8020069464FF08040FEF7DD
:102F0000A3FA012211469007FEF715FE012188075A
:102F1000FEF7F6FD3EBD08B51C208DF80000002030
:102F20008DF801008DF8020001208DF8030068463D
:102F3000FDF7C9FB08BD10B50446FFF7ECFF2046BE
:102F4000FFF7C8FF10BD000008B527208DF800006E
:102F50000D208DF8010000208DF8020001208DF871
:102F600003006846FDF7AFFB08BD08B50121082046
:102F7000FDF72EFF4FF48060ADF8000003208DF8C0
:102F8000020018208DF8030069467C48FDF764FCB8
:102F90004FF40060ADF8000004208DF8030069468E
:102FA0007648FDF759FC08BD1FB5044601210846C7
:102FB000FDF70EFF01218804FDF717FF00940020A4
:102FC000ADF80400ADF80600ADF80800ADF80C004F
:102FD0000C20ADF80A0069466948FDF7A0FF012200
:102FE00040F225516648FEF732F8012240F22441B2
:102FF0006348FEF72CF801216148FEF71CF81FBD5D
:1030000010B504462046FFF7CFFFFFF7AEFFFFF7EE
:103010009BFF10BDF0B503460D4616460027294616
:103020000A2E03D0002008702846F0BD33B93020A6
:1030300001F8010B002008702846F6E7002B03DAA0
:103040002D2001F8010B5B4242F210720DE093FB60
:10305000F2F404B937B104F1300001F8010B04FBBC
:10306000123301270A2092FBF0F2002AEFDC002045
:1030700008702846D9E70FB470B586B006460CA88C
:10308000019073E00B9800785C281CD10B98401CD1
:103090000B9000786E2809D072280FD10D21304690
:1030A000FEF736F80B98401C0B900BE00A213046D7
:1030B000FEF72EF80B98401C0B9003E00B98401C79
:1030C0000B9000BF4BE00B980078252840D10B985F
:1030D000401C0B900078642818D0732833D10198D5
:1030E00010C801900BE021783046FEF711F800BFC0
:1030F00080213046FEF77AF80028F9D0641C207849
:103100000028F0D10B98401C0B9020E0019820C8BB
:1031100001900A2202A92846FFF77CFF02AC0BE0CF
:1031200021783046FDF7F4FF00BF80213046FEF7DE
:103130005DF80028F9D0641C20780028F0D10B98A5
:10314000401C0B9003E00B98401C0B9000BF06E066
:103150000B9810F8011B0B903046FDF7D9FF00BF0C
:1031600080213046FEF742F80028F9D00B9800780D
:10317000002887D106B070BC5DF814FB000C01403C
:103180000048004000F1080141604FF0FF318160CC
:1031900000F10801C1600161002101607047002158
:1031A0000161704742684A6093688B609368596018
:1031B0009160086103685B1C0360704710B50246AC
:1031C0000B685C1C0CB9106907E002F1080000E014
:1031D0004068446824689C42FAD944684C604C6852
:1031E000A160886041600A611468641C146010BDAD
:1031F00001460A69D1E901309860D1E901035860BC
:103200005068884201D188685060002008611068C9
:10321000401E10601068704710B5002407E004EBF2
:103220008401FE4A02EB8100FFF7ACFF641C0C2C0A
:10323000F5D3FB48FFF7A6FFFA48FFF7A3FFFA48CC
:10324000FFF7A0FFF948FFF79DFFF948FFF79AFF46
:10325000F348F8490860F348F749086010BD10B515
:10326000044602F0A1F9F5480068401CF3490860E3
:10327000F348006840B9F248046008460068012835
:103280000DD1FFF7C9FF0AE0EE48006838B9EC48F5
:103290000068C06AE16A884201D8E9480460EA48E7
:1032A0000068401CE849086008460068606494F8BB
:1032B0002C1001208840E54909680843E34908606B
:1032C000E16A01EB8101D54A02EB8100211DFFF784
:1032D00069FF02F078F9DB48006868B1D8480068F7
:1032E000C06AE16A884207D24FF08050D84908602E
:1032F000BFF34F8FBFF36F8F10BD2DE9F05F814695
:103300000F4690469A460A9E0C9C4FEA8801A522D9
:10331000206B02F0A4FCA8F10100216B01EB800BF3
:103320002BF0070B002507E0795D04F134004155CF
:10333000785D00B902E06D1C102DF5D300BF0021AF
:10334000432001550C2E00D30B26E662E6640020D4
:103350002065201DFFF723FF04F11800FFF71FFF72
:103360002461C6F10C00A06164620020606584F8ED
:10337000580052464946584602F0E5F820600B983E
:1033800008B10B980460BDE8F09F2DE9FF4F85B0B0
:10339000804689461746DDE912ABB80002F0A3F972
:1033A000064656B15C2002F09EF904460CB1266335
:1033B00004E0304602F0F5F900E000247CB1002082
:1033C000CDE900ABCDE902403A4649464046089B6C
:1033D000FFF793FF2046FFF742FF012501E04FF082
:1033E000FF35284609B0BDE8F08F924909680968A1
:1033F00009B9012100E0002121B14FF0FF31954AC8
:10340000116006E08B490968C968C868914A41683B
:103410001160704710B50446206B02F0C2F92046D7
:1034200002F0BFF910BD70B5054602F0BDF815B940
:103430008348006800E028460446201DFFF7D8FEB8
:1034400078B9E06A00EB8000744951F8200040B977
:1034500094F82C10012088407C49096881437B48FE
:103460000160A06A18B104F11800FFF7C1FE7648A8
:103470000068401C7449086071480068844209D1A2
:10348000211D6A48FFF78EFE73480068401C724990
:10349000086009E069480068401E684908602046E5
:1034A000FFF7B8FFFFF7A1FF02F08DF8654800684D
:1034B00058B163480068844207D14FF08050644996
:1034C0000860BFF34F8FBFF36F8F70BD2DE9F041E0
:1034D000002762480068002863D161480068451CE5
:1034E0005F4805608DB95348D0F8008052480068A5
:1034F000504908605048C0F800805A480068401C95
:1035000058490860FFF771FF00BF524800688542C4
:103510003BD300BF47480068006808B9012000E0BD
:10352000002020B14FF0FF304A4908602CE04148AC
:103530000068C068C4686668B54202D24548066043
:1035400022E0201DFFF754FEA06A18B104F1180014
:10355000FFF74EFE94F82C10012088403B49096883
:1035600008433A490860E16A01EB81012B4A02EB0A
:103570008100211DFFF716FE3149E06A0968C96A1A
:103580008842C7D30127C5E700BF2D480068C06A3D
:1035900000EB8000214951F82000012800D90127C3
:1035A00004E031480068401C2F4908602F4800683B
:1035B00000B101273846BDE8F08170B5002400262F
:1035C00001F0F2FF25480068401E244908600846C3
:1035D000006800287AD119480068002876D04FE0AA
:1035E0001148C068C46804F11800FFF701FE201DEF
:1035F000FFF7FEFD94F82C1001208840134909685C
:10360000084312490860E16A01EB8101034A02EBB9
:103610008100211DFFF7C6FD094929E0700E002039
:10362000600F0020740F0020880F00209C0F0020E6
:10363000B00F002000060020040600200C06002029
:10364000FC05002018060020280600201406002093
:1036500004ED00E02C0600200806002034060020BF
:1036600010060020240600201C0600202006002052
:10367000E06A0968C96A884202D30120FA490860F1
:10368000FA48006808B9012000E000200028A7D00F
:103690000CB1FFF7AAFEF648056865B100BFFFF759
:1036A00015FF10B10120F04908606D1E002DF6D104
:1036B0000020EF490860EC48006838B10126300767
:1036C000EC490860BFF34F8FBFF36F8F01F07BFFB2
:1036D000304670BD2DE9F04105460E46E6480768C4
:1036E000E6480068001DFFF783FD50B9E348006815
:1036F00090F82C1001208840E14909688143E04896
:103700000160681C38B936B1DC480168091DDD4824
:10371000FFF748FD1AE07C19D84800684460BC42B5
:1037200007D2D6480168091DD7480068FFF746FD53
:103730000CE0D2480168091DD4480068FFF73EFD3F
:10374000D3480068844201D2D1480460BDE8F081CA
:10375000D0480068401CCF49086070472DE9F04709
:10376000044688464FF00009FFF7F2FFC24806689A
:10377000206800EB08052068B04207D92068A842FD
:103780000BD9B54209D94FF0010906E02068A842DB
:1037900001D8B54201D94FF001092560B9F1000FF8
:1037A00003D0A81B0021FFF795FFFFF706FF074690
:1037B0003FB94FF08050AF490860BFF34F8FBFF360
:1037C0006F8FBDE8F08770B50446002544B1FFF760
:1037D000BFFF00212046FFF77DFFFFF7EEFE054605
:1037E0003DB94FF08050A3490860BFF34F8FBFF33E
:1037F0006F8F70BD2DE9F041064637469F4800683F
:10380000874201D100241EE001F0CEFE7D6901F067
:10381000DAFE9E480068854203D09B4800688542D6
:1038200001D102240FE09748854205D1B86A08B952
:10383000032408E0022406E09748854200D00DB931
:10384000042400E001242046BDE8F08170B5044660
:1038500001F0AAFE14B98948006800E02046064637
:10386000F56A01F0B0FE284670BD70B5024600BF93
:103870005025EFF3118485F31188BFF34F8FBFF309
:103880006F8F00BF214612B97C4C246800E01446BB
:103890002346D86A00BF81F3118800BF70BD2DE9AF
:1038A000F04780460D464FF000090C2D00D30B2544
:1038B00001F07AFEB8F1000F02D17048006800E014
:1038C00040460446E66CAE4256D0B5420BD96B4832
:1038D000006884420DD069480068C06AA84208D8D0
:1038E0004FF0010905E065480068844201D14FF0BE
:1038F0000109E76AE16AE06C884200D1E562E564AB
:10390000A06900F0004010B9C5F10C00A06107EB00
:103910008701624A02EB81016069884201D101207E
:1039200000E00020E0B1201DFFF762FC30B901206B
:10393000B8405349096881435148016094F82C10FC
:10394000012088404E49096808434D490860E16AF2
:1039500001EB8101514A02EB8100211DFFF722FC9E
:10396000B9F1000F07D04FF0805042490860BFF313
:103970004F8FBFF36F8F00BF01F025FEBDE8F087CA
:103980004448006818B10120374908601DE0002054
:10399000354908603A480068B0FA80F0C0F11F016C
:1039A00001EB81023D4B03EB8200426852684260AA
:1039B00000F108024368934202D1426852684260B3
:1039C0004268D2682D4B1A6000BF704770B505463B
:1039D00001F0EAFD15B92948006800E028460446D0
:1039E000201DFFF705FC78B9E06A00EB80002B4949
:1039F00051F8200040B994F82C100120884020494B
:103A0000096881431E480160A06A18B104F11800DA
:103A1000FFF7EEFB211D1B48FFF7C4FB01F0D3FDB0
:103A20001F48006828B101F0BFFDFFF7DEFC01F080
:103A3000CAFD12480068844238D11948006840B174
:103A40004FF080500B490860BFF34F8FBFF36F8F6B
:103A50002CE00C48006813490968884224D10020F2
:103A60000649086022E0000020060020880F0020A0
:103A70001C06002004ED00E010060020FC050020DC
:103A800014060020B00F00200406002000060020CD
:103A90002C060020340600209C0F0020700E002011
:103AA000180600200C060020FFF76AFF70BD10B555
:103AB000014600200A46FE4C5369A34201D101236E
:103AC00000E0002373B1FB4C936AA34201D10123B0
:103AD00000E0002333B9936A0BB9012300E000230F
:103AE00003B1012010BD70B505462C4674B3F248F1
:103AF000006884422AD001F057FD2046FFF7D7FF27
:103B000010B3201DFFF774FB94F82C10012088409F
:103B1000EA4909680843E9490860E16A01EB810163
:103B2000E74A02EB8100211DFFF73CFBE249E06A16
:103B30000968C96A884207D34FF08050E14908609C
:103B4000BFF34F8FBFF36F8F01F03DFD70BD2DE9C7
:103B5000F04106460027344600BF5021EFF31180A4
:103B600081F31188BFF34F8FBFF36F8F00BF0546FE
:103B70002046FFF79CFF20B3D3480068E0B9CE4948
:103B8000E06A0968C96A884200D30127201DFFF74F
:103B90002FFB94F82C1001208840C849096808437D
:103BA000C6490860E16A01EB8101C54A02EB810068
:103BB000211DFFF7F7FA04E004F11801BD48FFF7F3
:103BC000F1FA00BF85F3118800BF3846BDE8F081E7
:103BD00070B523E0FFF7BCFDBC48006808B90120C0
:103BE00000E000200546FFF7E8FCBDB901F0DCFC71
:103BF000B648C068C468201DFFF7FAFAB4480068E8
:103C0000401EB3490860B3480068401EB1490860CF
:103C100001F0D9FC2046FFF7FDFB00BFAD4800686E
:103C20000028D7D170BD00BFFFF7D2FFA4480068BD
:103C30000128F9D94FF08050A2490860BFF34F8F97
:103C4000BFF36F8FF0E71CB5A34800210B4682221B
:103C5000CDE90010A1A1A348FFF797FB0446012C72
:103C600002D101F0A0FB0446012C14D100BF50206A
:103C700080F31188BFF34F8FBFF36F8F00BF4FF0FA
:103C8000FF30994908600120984908600020984950
:103C9000086001F073FC1CBD10B500BF502080F31C
:103CA0001188BFF34F8FBFF36F8F00BF00208F4984
:103CB000086001F078FC10BD8D490868704700214C
:103CC0008B4A10687047824800687047014611B9F6
:103CD0007948006800E00846024602F13400704767
:103CE0000246002101E0521C491C1078A528FAD098
:103CF000890888B270472DE9F04107460C46904686
:103D00001E4617B96C48006800E038460546256035
:103D100005F134006060E86A2061286BE061686C3E
:103D2000A060207B032807D1FFF712FDA86A08B125
:103D300002202073FFF741FCE86C60610020A06165
:103D4000052E01D0267303E03846FFF753FD20739C
:103D5000B8F1000F04D0286BFFF7C2FF208401E008
:103D600000202084BDE8F0812DE9F04707460C468D
:103D700090460026206848B3204641684968416063
:103D800000F1080142688A4202D1416849684160F5
:103D90004168D1F80C9000BF2046416849684160F5
:103DA00000F1080142688A4202D1416849684160D5
:103DB0004168CD6806EBC60007EB8001434601224F
:103DC0002846FFF798FF761C4D45E5D13046BDE803
:103DD000F0872DE9F04105468846164600240C2759
:103DE000FFF7B6FC3A480068804539D300BF7F1E14
:103DF00007EB8702324B03EB820104EBC40205EBB5
:103E000082000122FFF7B0FF0444002FEFD104EB42
:103E1000C40105EB8100022236490968FFF7A4FFBF
:103E2000044404EBC40105EB810002223249096815
:103E3000FFF79AFF044404EBC40105EB8100042260
:103E40002249FFF791FF044404EBC40105EB810014
:103E500003221749FFF788FF04440EB100203060A9
:103E6000FFF7ABFB2046BDE8F08170B505460C4678
:103E70001148016818312846FFF7A0F901212046B2
:103E8000FFF728FC70BD70B506460C46154644F099
:103E900000400949096888610748016818313046BF
:103EA000FFF780F901212846FFF714FC70BD0000E0
:103EB000B00F0020880F0020FC0500201406002011
:103EC000700E002004ED00E0340600209C0F00205E
:103ED0000C060020080600203006002049444C450E
:103EE00000000000273C00082C06002018060020D7
:103EF00010060020000600200406002070B50646CB
:103F00000D461446FE48016818313046FFF74AF95D
:103F10000CB14FF0FF3521462846FFF7DBFB70BDA3
:103F200070B50646F068C46804F11800FFF760F940
:103F3000F4480068A8B9201DFFF75AF994F82C102E
:103F400001208840F04909680843EF490860E16AA8
:103F500001EB8101ED4A02EB8100211DFFF722F9FF
:103F600004E004F11801EA48FFF71CF9E449E06AAB
:103F70000968C96A884204D901250120E549086019
:103F800000E00025284670BD2DE9F04105460F46AA
:103F900047F000402860EC682846FFF729F9201D0B
:103FA000FFF726F994F82C1001208840D6490968BB
:103FB0000843D5490860E16A01EB8101D34A02EB6D
:103FC0008100211DFFF7EEF8CD49E06A0968C96A52
:103FD000884204D901260120CE49086000E000266D
:103FE0003046BDE8F081CC4909680160CB490968D9
:103FF0004160704770B504460D4601F0D5FAC748D8
:1040000002682868401C08B9002619E0C2492068E7
:104010000968884204D06068904201D801260FE008
:104020006068101A2968884209D228686168511AA4
:10403000401A28602046FFF7D6FF002600E0012640
:1040400001F0C1FA304670BD0120B24908607047E6
:10405000014611B10A46906C00E00020704708B19B
:10406000024691647047A64908687047AC490968E0
:1040700009B9012005E0A349096809B9022000E057
:104080000020704770B505462C46002D4BD09C494A
:10409000E06A0968C96A884245D2A06900F0004018
:1040A00028B997480068C06AC0F10C00A061E16AB5
:1040B00001EB8101954A02EB81016069884201D1DF
:1040C000012000E0002050B3201DFFF791F878B9DF
:1040D000E06A00EB80008D4951F8200040B994F867
:1040E0002C10012088408849096881438648016076
:1040F00083480068C06AE06294F82C100120884070
:1041000081490968084380490860E16A01EB81013F
:104110007E4A02EB8100211DFFF744F803E0784856
:104120000068C06AE06270BD70B505462C46002686
:10413000ADB3206D401E2065E16CE06A88422ED050
:10414000206D60BB201DFFF753F878B9E06A00EBE3
:1041500080006E4951F8200040B994F82C100120DD
:10416000884069490968814367480160E06CE06202
:10417000E06AC0F10C00A06194F82C100120884086
:1041800061490968084360490860E16A01EB8101FF
:104190005E4A02EB8100211DFFF704F8012630463C
:1041A00070BD70B505460E463146284601F0CFFC7D
:1041B000284601F0F0FC044602E020202855641C4B
:1041C0000F2CFAD300202855281970BD7FB505465D
:1041D000002028705348006803905249096801EB99
:1041E000C101880001F07FFA0446002C53D0002260
:1041F00020460399FFF7EDFD03900020029043E075
:10420000029800EBC00004EB8000007B012806D080
:10421000022806D0032806D0042808D105E052263B
:1042200007E0422605E0532603E0442601E000268D
:1042300000BF00BF029800EBC00004EB80004168A3
:104240002846FFF7AEFF0546029800EBC00004EBDE
:1042500080008068029901EBC10104EB8101098CA7
:10426000CDE90010029800EBC00004EB800032465C
:104270002DA10369284601F057FB284601F08BFC6D
:1042800005440298401C0290DDE902018842B7D340
:10429000204601F086FA7FBD1949096888691849E6
:1042A0000968C96AC1F10C01154A12689161704729
:1042B0001348006830B11249096801F15000096DD6
:1042C000491C01600E480068704770B506460D46EF
:1042D00001F06AF90A480068406D80B90120084978
:1042E000096881F8580055B101212846FFF7F2F915
:1042F0004FF0805010490860BFF34F8F1EE01FE061
:10430000FC0500203406002014060020700E00205A
:10431000880F002020060020240600201006002020
:10432000180600200C0600200925630925750925BB
:10433000750925750D0A000004ED00E0BFF36F8FCD
:1043400001F041F901F030F9C8480068446D4CB102
:1043500026B10020C5490968486503E0601EC349CD
:10436000096848650020C149096881F8580001F0D2
:104370002AF9204670BD2DE9F041074688461446CB
:104380001D4601F011F9B948006890F8580002285C
:1043900018D0B649096801F15400496DB94301606C
:1043A0000120B249096881F858005DB10121284611
:1043B000FFF790F94FF08050AD490860BFF34F8F81
:1043C000BFF36F8F01F0FFF801F0EEF81CB1A748C2
:1043D0000068406D2060A548006890F858000128EA
:1043E00001D1002608E0A149096801F15400496D96
:1043F00021EA08010160012600209C49096881F832
:10440000580001F0E0F83046BDE8F0812DE9F047B2
:1044100081460D4616461F464FF0010A4C4601F0F4
:10442000C3F80FB1606D386094F85880022084F8AA
:104430005800052E17D2DFE806F01503070B0D0014
:10444000606D284360650EE0606D401C60650AE0A9
:10445000656508E0B8F1020F01D0656501E04FF035
:10446000000A00E000BF00BFB8F1010F22D1201DFB
:10447000FEF7BEFE94F82C10012088407D490968A3
:1044800008437C490860E16A01EB81017A4A02EB4A
:104490008100211DFEF786FE7449E06A0968C96A39
:1044A000884207D94FF0805071490860BFF34F8FA1
:1044B000BFF36F8F01F087F85046BDE8F0872DE914
:1044C000F84F82460D4616461F46DDF828B00120FB
:1044D0000090544600BF5021EFF3118081F3118802
:1044E000BFF34F8FBFF36F8F00BF81460FB1606D79
:1044F000386094F85880022084F85800052E17D2AE
:10450000DFE806F01503070B0D00606D28436065BA
:104510000EE0606D401C60650AE0656508E0B8F17A
:10452000020F01D0656501E00020009000E000BFAF
:1045300000BFB8F1010F2DD150480068A8B9201D67
:10454000FEF756FE94F82C1001208840494909686E
:10455000084348490860E16A01EB8101464A02EBE1
:104560008100211DFEF71EFE04E004F118014448FD
:10457000FEF718FE3D49E06A0968C96A884209D910
:10458000BBF1000F03D00120CBF8000002E00120B6
:104590003C49086000BF89F3118800BF0098BDE85E
:1045A000F88F2DE9F04105460E462C4600BF5021FC
:1045B000EFF3118081F31188BFF34F8FBFF36F8F3B
:1045C00000BF074694F85880022084F85800606DB8
:1045D000401C6065B8F1010F2AD128480068A8B9CD
:1045E000201DFEF705FE94F82C100120884021497B
:1045F000096808431F490860E16A01EB81011E4A0E
:1046000002EB8100211DFEF7CDFD04E004F118014D
:104610001B48FEF7C7FD1549E06A0968C96A884268
:1046200006D916B10120306002E00120154908606A
:1046300000BF87F3118800BFBDE8F08170B5054663
:1046400015B90A48006800E02846064600F0ACFFAD
:1046500096F85800022804D1002086F8580001245A
:1046600000E0002400F0AFFF204670BDFC050020F4
:1046700004ED00E014060020700E00203406002037
:10468000880F00202006002070B505460E462C46F7
:1046900000F08AFFD4E90F12206801FB020060607D
:1046A0000020A0632068A060E06B401E226C21689F
:1046B00000FB0210E060FF2084F8440084F845000D
:1046C0009EB9206908B9012000E00020A8B904F1D2
:1046D0001000FFF725FC80B14FF08050FB490860C7
:1046E000BFF34F8FBFF36F8F07E004F11000FEF7A9
:1046F00049FD04F12400FEF745FD00F064FF0120B0
:1047000070BD2DE9F04106460D4617469846069CB9
:104710000DB9246000E02760E6632564012120468E
:10472000FFF7B2FF84F850800020A064BDE8F0815C
:104730002DE9F84307460D4690460DB9002601E0E5
:1047400007FB05F606F1540000F0CDFF044644B126
:1047500004F1540943464A46294638460094FFF777
:10476000D0FF2046BDE8F8832DE9F04104460F460E
:1047700015464FF00008A66B206C40B9206860BB5E
:104780006068FFF7D1FC80460020606025E07DB9BD
:104790003946226CA06801F01DFA216CA06808441B
:1047A000A060D4E90110884217D32068A06014E00B
:1047B0003946226CE06801F00DFA216CE068401A7D
:1047C000E0602168E068884203D2216C6068401A8A
:1047D000E060022D01D106B1761E701CA063404638
:1047E000BDE8F0812DE9F3410D460098846C002767
:1047F000A06BE16B88421BD294F945602A4669465A
:104800002046FFF7B1FF0746701C60B9606A08B91F
:10481000012000E0002050B904F12400FFF780FBE4
:1048200028B1012703E0701C40B284F8450000BFA6
:104830003846BDE8FC8170B5044600F0B5FE94F939
:1048400045501AE0A06C38B100212046FFF7CAFF9E
:1048500088B1FFF7F9FB0EE0606A08B9012000E0BB
:10486000002038B904F12400FFF75AFB18B1FFF714
:10487000EBFB00E003E0681E45B2002DE2DC00BF68
:10488000FF2084F8450000F09EFE00F08DFE94F9B4
:10489000445010E0206908B9012000E0002048B928
:1048A00004F11000FFF73CFB08B1FFF7CDFB681ED9
:1048B00045B200E001E0002DECDC00BFFF2084F8F1
:1048C000440000F080FE70BD70B5054600F06CFE3F
:1048D000A86BE96B884201D1012400E0002400F0BC
:1048E00072FE204670BD2DE9FF4383B0074688461F
:1048F0001D464FF000093C4600BF00F055FEA06B7E
:10490000E16B884201D3022D38D12A464146204628
:10491000FFF72AFF0646A06C68B129462046FFF73C
:1049200061FF28B34FF0805068490860BFF34F8F94
:10493000BFF36F8F1CE0606A08B9012000E000201F
:1049400068B904F12400FFF7EBFA88B14FF080500A
:104950005E490860BFF34F8FBFF36F8F08E03EB131
:104960004FF0805059490860BFF34F8FBFF36F8FEE
:1049700000F029FE012007B0BDE8F083059818B9C2
:1049800000F021FE0020F6E7B9F1000F04D101A8E4
:10499000FFF729FB4FF0010900F015FEFEF7D8FEE6
:1049A00000F002FE94F94400401C10B9002084F885
:1049B000440094F94500401C10B9002084F84500DB
:1049C00000F001FE05A901A8FFF714FBF0B920468D
:1049D000FFF77AFFA0B104F110000599FFF745FA3F
:1049E0002046FFF728FFFEF7E8FD002885D14FF0AD
:1049F000805036490860BFF34F8FBFF36F8F7CE75D
:104A00002046FFF718FFFEF7D8FD76E72046FFF7B0
:104A100012FFFEF7D2FD0020ADE710B504464CB101
:104A2000002060602060E06000231A46194620469E
:104A3000FFF759FF10BD2DE9F0410446012600277C
:104A4000224600210120FFF773FE05462846FFF7A6
:104A5000E4FF2846BDE8F08170B506463446FFF70E
:104A600002FB616888420CD1E068401EE060E068AB
:104A700028B900231A4619462046FFF734FF0125BE
:104A800000E00025284670BD70B5054600F08CFD9D
:104A9000A86B08B9012400E0002400F094FD204632
:104AA00070BD70B504460D46206C70B1216CE06895
:104AB0000844E0606168E068884201D32068E060F3
:104AC0002846226CE16801F085F870BD04ED00E035
:104AD0002DE9FF4782B0054689461E464FF0000A81
:104AE0002C4600BF00F060FDD4F83880B8F1000F0C
:104AF0003BD0E76849462046FFF7D3FFDEB9A8F16F
:104B00000100A063206810B9FFF7D2FB6060206944
:104B100008B9012000E0002008BB04F11000FFF7F5
:104B2000FFF9E0B14FF08050F9490860BFF34F8FB3
:104B3000BFF36F8F13E0E760606A08B9012000E0FF
:104B4000002060B904F12400FFF7EAF938B14FF012
:104B50008050EF490860BFF34F8FBFF36F8F00F0B5
:104B600032FD012006B0BDE8F087049818B900F0C6
:104B70002AFD0020F6E7BAF1000F04D16846FFF7DE
:104B800032FA4FF0010A00F01EFDFEF7E1FD00F0E1
:104B90000BFD94F94400401C10B9002084F8440037
:104BA00094F94500401C10B9002084F8450000F03D
:104BB0000AFD04A96846FFF71DFA40BB2046FFF72F
:104BC00063FFF0B1206830B900F0EEFC6068FFF7D9
:104BD00059FA00F0F8FC04F124000499FFF745F9B4
:104BE0002046FFF728FEFEF7E8FC00287FF47AAFA6
:104BF0004FF08050C6490860BFF34F8FBFF36F8FEF
:104C000070E72046FFF717FEFEF7D7FC6AE720465D
:104C1000FFF711FEFEF7D1FC2046FFF735FF002815
:104C2000EED000209EE72DE9F04106460F463446BF
:104C3000FFF719FA6168884204D1E068401CE0601F
:104C400001250AE000233A4619462046FFF740FFB7
:104C5000054615B1E068401CE0602846BDE8F081DB
:104C600070B506460D46022200213046FFF760FD72
:104C7000044604B1A563204670BD2DE9F05F0646E9
:104C80008A4615461F46344600BF5021EFF3118077
:104C900081F31188BFF34F8FBFF36F8F00BF814641
:104CA000A06BE16B884201D3022F2BD194F945B060
:104CB0003A4651462046FFF757FD0BF10100C8B9AF
:104CC000A06C40B139462046FFF78CFDB8B1B5B1B4
:104CD0000120286013E0606A08B9012000E000208C
:104CE00068B904F12400FFF71BF940B13DB1012080
:104CF000286004E00BF1010040B284F845004FF059
:104D0000010801E04FF0000800BF89F3118800BFDF
:104D10004046BDE8F09F2DE9F04706460D46344673
:104D200000BF5021EFF3118081F31188BFF34F8F43
:104D3000BFF36F8F00BF8046D4F83890E06B4845D2
:104D400028D994F945A009F10100A0630AF10100F6
:104D5000C8B9A06C40B100212046FFF743FDB8B1AF
:104D6000B5B10120286013E0606A08B9012000E0B5
:104D7000002068B904F12400FFF7D2F840B13DB13A
:104D80000120286004E00AF1010040B284F84500E7
:104D9000012700E0002700BF88F3118800BF3846D4
:104DA000BDE8F0872DE9F05F05468A4616462C4699
:104DB00000BF5021EFF3118081F31188BFF34F8FB3
:104DC000BFF36F8F00BF8046D4F83890B9F1000F61
:104DD00021D094F944B051462046FFF762FEA9F174
:104DE0000100A0630BF1010070B9206908B901202E
:104DF00000E0002068B904F11000FFF791F840B11D
:104E00003EB10120306004E00BF1010040B284F8B3
:104E10004400012700E0002700BF88F3118800BF8D
:104E20003846BDE8F09F2DE9F047054689462C46F7
:104E300000BF5021EFF3118081F31188BFF34F8F32
:104E4000BFF36F8F00BF0746A06B48B1D4F80C804A
:104E500049462046FFF725FEC4F80C80012600E0F5
:104E6000002600BF87F3118800BF3046BDE8F087F9
:104E700070B5044600F098FBA56B00F0A4FB284633
:104E800070BD70B50446254600F08EFBD5E90E10C6
:104E9000461A00F098FB304670BD0146886B70479B
:104EA000014600200EE01B4A02EBC00252688A4213
:104EB00007D10022174B43F8302003EBC0035A60A0
:104EC00002E0401C0828EED300BF704770B50446CE
:104ED00025462846FFF7E4FF284600F062FC70BD37
:104EE0000146C86C7047C1647047014691F8500094
:104EF000704701468A6B0AB9012000E00020704724
:104F000001468A6BCB6B9A4206D1012005E0000076
:104F100004ED00E0C40F002000207047024600208E
:104F20000BE04A4B53F8303033B9484B43F830105C
:104F300003EBC0035A6002E0401C0828F1D300BF15
:104F400070470246002000210AE0404B03EBC103FA
:104F50005B68934203D13D4B53F8310002E0491C9A
:104F60000829F2D300BF70472DE9F04105460E46EF
:104F700017462C4600F018FB94F94400401C10B969
:104F8000002084F8440094F94500401C10B900202A
:104F900084F8450000F017FBA06B28B93A4631466B
:104FA00004F12400FEF7AAFF2046FFF744FCBDE809
:104FB000F08170B50446002204212046FFF7B8FBBB
:104FC0000546284670BD70B504460E4600F0ECFA62
:104FD000A06C08B1002505E0A06B08B1002501E038
:104FE000A664012500F0EFFA284670BD2DE9F041D6
:104FF00005460F462E46B06CB84201D000240AE0A8
:10500000B06B08B1002406E000F0CEFA0020B064D6
:1050100000F0D9FA01242046BDE8F08138B50546F4
:105020000C46002000900023224669462846FFF7E0
:105030004FFD009838BD38B504460020009000228E
:1050400069462046FFF7AEFE009838BDC40F002029
:105050002DE9F04104460D4616461F464FF0000864
:1050600065602461B5420CD8F01BA169884202D367
:105070004FF0010811E0211DF9480068FEF79EF885
:105080000BE0BE4204D2BD4202D34FF0010804E05F
:10509000211DF4480068FEF791F84046BDE8F08114
:1050A0002DE9FF4705460C4616461F46DDF83080C1
:1050B0004FF00009EC48006810B300940196029587
:1050C000062C15DAFEF7D2FF022808D1002342464B
:1050D0006946E5480068FFF706FC814610E00023BA
:1050E0001A466946E0480068FFF7FDFB814607E085
:1050F00000233A466946DC480068FFF7BEFD81465A
:10510000484604B0BDE8F0872DE9F84326E0D548CD
:105110000068C0680568D3480068C068C468201D7E
:10512000FEF766F82046616A8847E069012815D1D4
:10513000A0694619AE4207D966602461211DC9489D
:105140000068FEF73BF809E0002003462A460146C6
:1051500000902046FFF7A4FF804600BFC1480068CA
:10516000006808B9012000E000200028CFD0BD4829
:105170000768BB480068BB490860B9480760BDE8DC
:10518000F88370B50446FEF797FD0546B7480068FA
:10519000854204D2FFF7B8FF0120206001E0002023
:1051A0002060B2480560284670BDF0B587B056E073
:1051B0000398002805DA04AED6E90020B1689047CC
:1051C00000BF039800284ADB059C606908B90120EC
:1051D00000E0002010B9201DFEF70AF802A8FFF732
:1051E000D0FF054603980A2837D2DFE800F009050A
:1051F000072527320608262800BF00BF00BF00BFD2
:105200000498A269811803462A462046FFF720FF2A
:1052100088B12046616A8847E06901280BD10020E7
:1052200000900498A1694218002319462046FFF710
:1052300037FF074600BF11E000BF0FE000BF049832
:10524000A061A06941192B462A462046FFF700FFBE
:1052500004E0204600F0A5FA00E000BF00BF0023F4
:105260001A4603A980480068FFF732FC00289FD146
:1052700007B0F0BDF8B505460E467A480068C0682C
:10528000C468201DFDF7B4FFE069012811D1A069B1
:1052900041192B4632462046FFF7DAFE48B100207E
:1052A00003462A46014600902046FFF7F9FE0746CE
:1052B00000BF2046616A8847F8BDF8B505460C4630
:1052C000FEF746FA6846FFF75CFF0646009820BBEB
:1052D00044B9B54206D8FEF770F931462846FFF7C3
:1052E000C9FF1CE03CB15E480068006808B90120B5
:1052F00000E000200446A91B22465B480068FFF737
:1053000033FEFEF75AF950B94FF080505849086003
:10531000BFF34F8FBFF36F8F01E0FEF74EF9F8BD7B
:105320000146504A126812680AB9012200E00022C0
:105330000A600A6822B94B4A1268D268106800E015
:105340000020704708B500BF6846FFF7E9FF044634
:1053500020460099FFF7B1FFFFF727FFF4E710B5EC
:1053600000F022F940480068D0B94248FDF70AFF32
:105370004148FDF707FF3F483A4908603E48384931
:105380000860002210210520FFF7D2F93649086095
:105390000846006820B139A133480068FFF7BEFD18
:1053A00000F011F910BD1CB50024FFF7D8FF2E48FE
:1053B000006858B133480B2100234FF48272CDE9C5
:1053C000001031A13248FDF7E0FF044620461CBD25
:1053D0002DE9F04705460E4617469846DDE9089444
:1053E0005CB1FFF7BCFF2560A661E761C4F82080CF
:1053F000C4F82490201DFDF7D2FEBDE8F0872DE90A
:10540000FC4705460E4617469846DDF828902C20A6
:1054100000F069F904463CB143463A463146284615
:10542000CDE90094FFF7D4FF2046BDE8FC8715487E
:105430000068704701460A469069704701460A466F
:105440005068704701460A461068704770B50446B8
:10545000264600F0A9F87069E0B901201BE00000C1
:105460003C060020380600204006002048060020A8
:1054700004ED00E00410002018100020546D72515B
:105480000000000044060020546D72205376630033
:1054900045530008002080F0010500F094F82846EC
:1054A00070BD70B50446264600F07EF8356A00F0FF
:1054B0008AF8284670BD70B504460D46264600F0B1
:1054C00073F8356200F07FF870BD2DE9FF410446A6
:1054D0000D4616461F466FF001000090019402959C
:1054E000039600233A46694610480068FFF7C5FB5B
:1054F0008046404604B0BDE8F0812DE9FF410446F6
:105500000D4616461F464FF0FF300090019402955D
:10551000039600233A46694604480068FFF7E3F91A
:105520008046404604B0BDE8F081000040060020FF
:1055300000BF502080F31188BFF34F8FBFF36F8FF0
:1055400000BF00BFFEE7001F4FF080730360001F25
:1055500021F001030360001F2E4B0360143802602A
:10556000203870472C480068C821B0FBF1F0401E7D
:105570004FF0E021486107200861704710B52748C7
:10558000006840F47000254908600846006840F053
:1055900070400860FFF7E6FF002021490860FAF735
:1055A00059FE002010BD704700BF502080F31188C5
:1055B000BFF34F8FBFF36F8F00BF19480068401CC7
:1055C00017490860704716480068401E1449086073
:1055D0000846006820B9002080F3118800BF00BF92
:1055E000704710B500BF502080F31188BFF34F8F74
:1055F000BFF36F8F00BFFDF769FF20B14FF0805000
:1056000006491C39086000BF002080F3118800BFE4
:1056100010BD0000315500080800002020ED00E01A
:105620004C06002010B50146714800E00068036890
:105630008B42FBD30246436813448B4204D1436838
:105640004C682344436001460A464B68134404688F
:10565000A34211D1674C03682468A34208D04B6869
:105660000468646823444B6003681B680B6005E0B2
:10567000604B1B680B6001E003680B60884200D040
:10568000016010BD30B54FF400435B4800F00704E3
:105690002CB1C01D20F00700574C041B1B1B0246F9
:1056A000534C22600024524D6C60D018083820F012
:1056B0000700504C206000244E4D2D686C604D4D0D
:1056C0002D682C601146441A4C604A4C24680C60CA
:1056D0004A4D4C682C604A4D4C682C604FF0004499
:1056E000484D2C6030BD2DE9F04105464FF00008D3
:1056F000FEF72EF83F48006808B9FFF7C3FF41489E
:1057000000682840002847D145B1083505F007005A
:1057100020B105F00700C0F108000544002D3BD082
:1057200037480068854237D8314E3046046801E07A
:10573000264624686068A84202D220680028F7D173
:105740002C480068844227D0306800F1080820689F
:1057500030606068401B102807D967196068401BDB
:10576000786065603846FFF75DFF25496068096825
:10577000081A2349086008460068204909688842D9
:1057800003D21F4800681D4908601E496068096807
:105790000843606000202060FDF70FFF4046BDE831
:1057A000F08170B506463546D6B1083D2C46154900
:1057B00060680968084098B1206888B91149606834
:1057C000096888436060FDF7C3FF0D496068096898
:1057D00008440B4908602046FFF724FFFDF7EDFE63
:1057E00070BD0748006870470448006870477047FC
:1057F00050060020580600202C10002060060020D3
:105800005C060020640600201DE0012406E02A4812
:1058100030F814102948FBF7CEF8641C082CF6DB8E
:105820004FF47A70FDF7F3F9012406E0224830F8CE
:1058300014102248FBF7BDF8641C082CF6DB40F27C
:10584000DC50FDF7C0FFE0E705E0FDF768F94FF435
:105850007A70FDF7B8FFF8E70AE019A000F058F8F1
:105860001B480068FDF7EBFA4FF4FA70FDF7ABFF49
:10587000F3E71CB50020032103468022CDE9001088
:1058800014A11848FDF781FD002004210346802261
:10589000CDE9001014A11848FDF777FD0020042180
:1058A00003468022CDE9001014A11748FDF76DFDD5
:1058B000FEF7C9F91CBD00003000002000100140B7
:1058C000696E20765461736B4C4544310D0A0000BB
:1058D000D8050020765461736B44696774756265FE
:1058E0003100000059580008765461736B446967B1
:1058F000747562653200000049580008765461737F
:105900006B4C454400000000095800087047000037
:105910000FB4044910B503AA029800F06FFC10BC44
:105920005DF814FBDC0500200FB41CB5074B06AA7C
:105930007B4469460090059800F031FC00206946E0
:1059400000F040FC1CBC5DF814FB00009108000056
:1059500070B50C460546012A05D02878800600D58A
:10596000EA69002302E0012305E05B1C934202D2B6
:10597000E05C0028F9D1A869E618C01AA861286A75
:10598000184428622846AFF3008004E0D5E90121DD
:1059900014F8010B9047B442F8D32846AFF30080C7
:1059A00070BD00002DE9F0410646002410687529FD
:1059B000314616A510D0AFF30080002802DA40422D
:1059C00013A507E031688A0701D512A502E049074F
:1059D00004D511A5012401E0AFF3008000210A22C3
:1059E00006F1240709E0B0FBF2FCB0FBF2F302FB86
:1059F0001C00303078541846491C0028F3D1234647
:105A00002A463046BDE8F04100F05CB900000000D5
:105A10002D0000002B000000200000002DE9F047C1
:105A20004FF0000A89460446C0F820A02046E168ED
:105A30008847002876D0252806D0D4E90121904750
:105A4000206A401C2062F1E7E16820460025884773
:105A5000C4F81CA006460027C4F818A02A2E09D0B6
:105A6000304601F07FF938B304EB8708303EC8F8C0
:105A7000186019E059F8041B204604EB8702916175
:105A8000E1688847012F064618D1E069002820DA2E
:105A900025F020051DE0D8F8180000EB800006EB8B
:105AA00040003038C8F818002046E16888470646AC
:105AB00001F058F90028EED1012F0AD02E2E08D17E
:105AC0002046E16888477F1C0646022F45F02005E6
:105AD000C4DBA069002803DA404245F00105A0615B
